:100000000C94E6090C942D0A0C942D0A0C942D0ADC
:100010000C942D0A0C942D0A0C942D0A0C942D0A84
:100020000C942D0A0C942D0A0C94581A0C94141A42
:100030000C940D250C942D0A0C942D0A0C942D0A69
:100040000C942D0A0C942D0A0C942D0A0C942D0A54
:100050000C942D0A0C94871B0C942D0A0C942D0AD9
:100060000C942D0A0C942D0A0C942D0A0C942D0A34
:100070000C942D0A0C942D0A0C942D0A0C942D0A24
:100080000C942D0A0C942D0A0C942D0A0C942D0A14
:100090000C942D0A0C942D0A0C942D0A0C942D0A04
:1000A0000C942D0A0C942D0A0C942D0A0631FF098C
:1000B00074A1010975150026FF00952075088102BD
:1000C0000976150026FF00952075089102C00501EC
:1000D0000980A101850319012AB700150126B7007F
:1000E000950175108100C0050C0901A10185041955
:1000F000012AA002150126A002950175108100C0F9
:1001000005010906A1018506050719E029E7150083
:1001100025019508750181020507190029EF1500D1
:10012000250195F07501810205081901290595053C
:1001300075019102950175039101C005010906A1A0
:1001400001050719E029E7150025019508750181CA
:10015000029501750881010507190029FF15002680
:10016000FF00950675088100050819012905950508
:1001700075019102950175039101C07267626C6906
:100180006768742064697361626C65205B454550E3
:10019000524F4D5D3A207267626C696768745F63A5
:1001A0006F6E6669672E656E61626C65203D202505
:1001B000750A007267626C6967687420656E6162B7
:1001C0006C65205B454550524F4D5D3A2072676229
:1001D0006C696768745F636F6E6669672E656E61D0
:1001E000626C65203D2025750A007267626C696744
:1001F000687420746F67676C65205B454550524F8B
:100200004D5D3A207267626C696768745F636F6EF8
:100210006669672E656E61626C65203D2025750AF2
:100220000044454255473A2064697361626C6564D5
:100230002E0A0044454255473A20656E61626C655E
:10024000642E0A0022001500090019000151270040
:1002500012000F003600E60021000800070006002B
:10026000E20026000C000E00100002510000000009
:100270000000000000002A0031022800E5004F00C5
:10028000230017000A0005002C0024001C000B00AE
:10029000050000002900A800000000000000000088
:1002A000300000005200510020001A0016001B0010
:1002B0000000250018000D0011002C001E002B006E
:1002C0003900E100E0002E002F003400380050001B
:1002D0001F00140004001D00E3002D001300330074
:1002E00037000000010001000100010001000100D1
:1002F00001000100010001000100010001000100F6
:1003000001000100010001000100010000000000E7
:1003100000000000000001000100010001004D008C
:1003200001000100010001000100010001000100C5
:1003300001000000010001000000000000000000BA
:10034000010000004B004E0001000100010001000F
:100350000000010001000100010001000100010096
:1003600001000100010001000100010001004A003C
:100370000100010001000100010001000100010075
:100380000100000001000100010001000100010066
:100390000100C75C01000100010001000100010033
:1003A0000100010001000100010001000000000047
:1003B0000000000000000100010001000100010038
:1003C0000100010001000100010001000100010025
:1003D00001000000005C01000000000000000000BF
:1003E000CA5C0000010001000100010001000100E1
:1003F00000000100010001000100010001000100F6
:10040000010001000100C45CC85CCB5C010001007C
:1004100001000100010001000100C35CC65CC95C71
:10042000010000004F6E6573686F743A2061637459
:100430006976653A2025640A000A00253032582082
:10044000006B6579626F6172645F7265706F727460
:100450003A2000646973706C61795F7365747570BC
:1004600032206661696C65640A0000DA0281FFD996
:10047000F1DB20A4A62EAF646973706C61795F66AE
:100480006C6970706564206661696C65640A00005F
:10049000A0C06F6C65645F696E697420636D6420D1
:1004A0006E6F726D616C20726F746174696F6E2013
:1004B0006661696C65640A0000A1C86F6C65645F61
:1004C000696E697420636D642073657420312066E1
:1004D00061696C65640A0000AED580A81FD3004036
:1004E0008D1420007267626C696768745F636F6E59
:1004F0006669672E7370656564203D2025640A0077
:100500007267626C696768745F636F6E6669672E95
:1005100076616C203D2025640A007267626C696711
:1005200068745F636F6E6669672E736174203D2027
:1005300025640A007267626C696768745F636F6E36
:100540006669672E687565203D2025640A0072671C
:10055000686C696768745F636F6E6669672E6D6F3C
:100560006465203D2025640A007267626C696768D3
:10057000745F636F6E6669672E656E61626C65207D
:100580003D2025640A007267626C696768745F6366
:100590006F6E66696720454550524F4D3A0A0072AA
:1005A00067626C696768745F696E697420726762FC
:1005B0006C696768745F636F6E6669672E6D6F64E0
:1005C00065203D20302E2057726974652064656671
:1005D00061756C742076616C75657320746F20454D
:1005E0004550524F4D2E0A007267626C69676874FD
:1005F0005F696E6974206565636F6E6669672069FF
:1006000073206E6F7420656E61626C65642E0A00E3
:100610007267626C696768745F696E69742073746D
:10062000617274210A007267626C696768745F693D
:100630006E69742063616C6C65642E0A005B735D87
:10064000000A002530313662003A20002530325849
:10065000000A722F6320303132333435363738395F
:100660004142434445460A000000C0C0C0C0C0C06B
:10067000C0F8F81E1EFEFEF800000000000000009A
:10068000000000000000000000000000030303035E
:1006900003FFFFFFFFFFFFFF80808080808080805E
:1006A00080808080808080000000000000000000CA
:1006B000007F7FFFFFFFFFFF9F9F87878181816111
:1006C0006119190707010100000000000000000087
:1006D000000000010161617F010161617F01010092
:1006E000000000000000000000000000000000000A
:1006F00000000000000000000000000000000000FA
:1007000000000000000000000000000000000000E9
:1007100000000000000000000000000000000000D9
:1007200000000000000000000000000000000000C9
:1007300000000000000000000000000000000000B9
:1007400000000000000000000000000000000000A9
:100750000000000000000000000000000000000099
:100760000000000000000000000000000000000089
:100770000000000000000000000000000000000079
:100780000000000000000000000000000000000069
:100790000000000000000000000000000000000059
:1007A0000000000000000000000000000000000049
:1007B0000000000000000000000000000000000039
:1007C0000000000000000000000000000000000029
:1007D0000000000000000000000000000000000019
:1007E0000000000000000000000000000000000009
:1007F00000000000000000000000000000000000F9
:1008000000000000000000000000000000000000E8
:1008100000000000000000000000000000000000D8
:1008200000000000000000000000000000000000C8
:1008300000000000000000000000000000000000B8
:1008400000000000000000000000000000000000A8
:100850000000000000000000000000000000000098
:100860000000000000000000000000000000000088
:100870000000000000000000000000000000000078
:100880000000000000000000000000000000000068
:100890000000000000000000000000000000000058
:1008A0000000000000000000000000000000000048
:1008B0000000000000000000000000000000000038
:1008C0000000000000000000000000000000000028
:1008D0000000000000000000000000000000000018
:1008E00000000000000080808080808080F0F03C6C
:1008F0003CFCFCF0000000000000000000000000D4
:1009000000000000000001010707070707FFFFFEC6
:10091000FEFFFFFF000000000000000000000000DC
:1009200000000000000000000000000000FFFFFFCA
:10093000FFFFFFFF3F3F0F0F030303C3C333330F1B
:100940000F0303000000000000000000000000038F
:100950000363637F030363637F03030000000000FE
:100960000000000000000000000000000000000087
:100970000000000000000000000000000000000077
:100980000000000000000000000000000000000067
:100990000000000000000000000000000000000057
:1009A0000000000000000000000000000000000047
:1009B0000000000000000000000000000000000037
:1009C0000000000000000000000000000000000027
:1009D0000000000000000000000000000000000017
:1009E0000000000000000000000000000000000007
:1009F00000000000000000000000000000000000F7
:100A000000000000000000000000000000000000E6
:100A100000000000000000000000000000000000D6
:100A200000000000000000000000000000000000C6
:100A300000000000000000000000000000000000B6
:100A400000000000000000000000000000000000A6
:100A50000000000000000000000000000000000096
:100A60000000000000000000000000000000000086
:100A70000000000000000000000000000000000076
:100A80000000000000000000000000000000000066
:100A90000000000000000000000000000000000056
:100AA0000000000000000000000000000000000046
:100AB0000000000000000000000000000000000036
:100AC0000000000000000000000000000000000026
:100AD0000000000000000000000000000000000016
:100AE0000000000000000000000000000000000006
:100AF00000000000000000000000000000000000F6
:100B000000000000000000000000000000000000E5
:100B100000000000000000000000000000000000D5
:100B200000000000000000000000000000000000C5
:100B300000000000000000000000000000000000B5
:100B400000000000000000000000000000000000A5
:100B50000000000000000000000000000000000095
:100B60005247420A0046554E430A00424153450A45
:100B7000000A004D4F44450A002D2D2D2D2D0A0051
:100B8000204F574C20006F6C65645F72656E646522
:100B90007239302064617461206661696C65640A31
:100BA000006F6C65645F72656E6465722064617469
:100BB00061206661696C65640A006F6C65645F72D0
:100BC000656E646572206F666673657420636F6D11
:100BD0006D616E64206661696C65640A000A0025B7
:100BE000303258006B6579626F6172645F7365744F
:100BF0005F6C65643A20007267626C696768742094
:100C00006D6F6465205B4E4F454550524F4D5D3AC8
:100C10002025750A007267626C69676874206D6FC1
:100C20006465205B454550524F4D5D3A2025750A5D
:100C300000000101010101010101010202020202A1
:100C40000202020203030303030303030404040474
:100C5000040404050505050506060606060707073C
:100C6000070708080808090909090A0A0A0B0B0BF3
:100C70000C0C0C0D0D0D0E0E0E0F0F0F1010111190
:100C80001112121313141415151616171718181914
:100C9000191A1A1B1B1C1D1D1E1E1F20202122227B
:100CA000232424252626272829292A2B2C2D2D2EBE
:100CB0002F30313232333435363738393A3B3C3DD8
:100CC0003E3F404142434445464748494A4C4D4EC9
:100CD0004F50515354555658595A5B5D5E5F61628F
:100CE00064656668696B6C6D6F7072737577787A1E
:100CF0007B7D7E8082838587888A8C8E8F91939579
:100D000096989A9C9EA0A2A3A5A7A9ABADAFB1B39C
:100D1000B5B7BABCBEC0C2C4C6C9CBCDCFD1D4D67C
:100D2000D8DBDDDFE2E4E7E9EBEEF0F3F5F8FAFD1E
:100D3000FF7267626C6967687420736574206873FA
:100D400076205B4E4F454550524F4D5D3A202575FC
:100D50002C25752C25750A007267626C69676874AA
:100D60002073657420687376205B454550524F4D63
:100D70005D3A2025752C25752C25750A006F6C654C
:100D8000645F6F6E20636D64206661696C65640AE0
:100D90000000AF6F6C65645F6F666620636D6420F2
:100DA0006661696C65640A0000AE6164645F6B65CE
:100DB000795F6269743A2063616E277420616464AC
:100DC0003A20253032580A0064656C5F6B65795FA4
:100DD0006269743A2063616E27742064656C3A20FE
:100DE000253032580A005B435D005B445D005B5375
:100DF0005D005B575D005B525D0009025B00030113
:100E000000A0FA09040000010301010009211101F9
:100E100000012240000705810308000A09040100BF
:100E20000103000000092111010001226D000705E6
:100E3000820320000A0904020002030000000921C5
:100E4000110100012222000705830320000107058C
:100E50000303200001120100020000000842446365
:100E600064FCFF0102000108036F0077006C0000C2
:100E700000140364006F006F00640062006F006183
:100E8000007200640000000403090407087F0807DB
:100E9000003E5B4F5B3E003E6B4F6B3E001C3E7C5A
:100EA0003E1C00183C7E3C18001C577D571C001C43
:100EB0005E7F5E1C0000183C180000FFE7C3E7FFE0
:100EC00000001824180000FFE7DBE7FF0030483A75
:100ED000060E00262979292600407F0505070040D7
:100EE0007F05253F005A3CE73C5A007F3E1C1C080A
:100EF00000081C1C3E7F0014227F2214005F5F004C
:100F00005F5F0006097F017F00006689956A0060C7
:100F1000606060600094A2FFA2940008047E040850
:100F20000010207E20100008082A1C0800081C2A37
:100F30000808001E10101010000C1E0C1E0C0030B3
:100F4000383E383000060E3E0E060000000000005D
:100F50000000005F000000000700070000147F147D
:100F60007F1400242A7F2A120023130864620036AB
:100F70004956205000000807030000001C224100D1
:100F8000000041221C00002A1C7F1C2A0008083E89
:100F900008080000807030000008080808080000F9
:100FA00000606000002010080402003E5149453EE8
:100FB0000000427F400000724949494600214149F2
:100FC0004D33001814127F10002745454539003C69
:100FD0004A4949310041211109070036494949363A
:100FE00000464949291E000000140000000040345A
:100FF000000000000814224100141414141400000E
:1010000041221408000201590906003E415D594E73
:10101000007C1211127C007F49494936003E414153
:101020004122007F4141413E007F49494941007FC3
:1010300009090901003E41415173007F0808087FFA
:101040000000417F4100002040413F01007F081423
:101050002241007F40404040007F021C027F007F11
:101060000408107F003E4141413E007F0909090606
:10107000003E4151215E007F091929460026494959
:1010800049320003017F0103003F4040403F001F01
:101090002040201F003F4038403F00631408146385
:1010A000000304780403006159494D4300007F4167
:1010B000414100020408102000004141417F00042A
:1010C00002010204004040404040000003070800C5
:1010D000002054547840007F284444380038444469
:1010E000442800384444287F0038545454180000E1
:1010F000087E09020018A4A49C78007F08040478E4
:101100000000447D4000002040403D00007F10284A
:1011100044000000417F4000007C04780478007C9B
:101120000804047800384444443800FC1824241887
:101130000018242418FC007C0804040800485454B7
:1011400054240004043F4424003C4040207C001C04
:101150002040201C003C4030403C004428102844E3
:10116000004C9090907C004464544C44000008363D
:101170004100000000770000000041360800000236
:1011800001020402003C2623263C0000000000006F
:1011900000404040F0F8F8FF38FFF8F83FF8F8FF5B
:1011A00038FFF8F8F040404000000000000080C028
:1011B000C0C0800000C0C08000000080C0C000C06F
:1011C000C0000080C0C00000000000C0C0C0C0C09F
:1011D00000C0C0000000000000000000000000008F
:1011E00000000000000000000000000000000000FF
:1011F00000000000000000000000000000000000EF
:1012000000000000000000000000C0F0F8FC3E1EDE
:1012100006010000007F4141417F007F4141417F45
:10122000000080C0E07E5B4F5BFEC00000C000DCC1
:10123000D7DEDEDED7DC00C00000000000000000CA
:10124000000000000000000000000000000000009E
:1012500000494949FFFFFFFFE0DFBFBF00BFBFDF1D
:10126000E0FFFFFFFF49494900000000001F3F6009
:1012700060E0BF1F007F7F071E381E077F7F007F53
:101280007F0E1F3B716000000000007F7F0C0C0C84
:10129000007E7E007F7E0303007F7E03037E7E034D
:1012A000037F7E000F3E703C063C703E0F00327B99
:1012B00049493F7E007F7E0303001E3F69696F2618
:1012C00000000000000000000000030F1F3F3C78FA
:1012D00070600000007F4141417F007F4141417FBC
:1012E00000307B7F7830202030787F3B0003000F78
:1012F0007F0F0F0F7F0F00030000000000000000B1
:1013000000000000000000000000000000000000DD
:1013100000010101070F0F7F0F7F0F0F7E0F0F7F5F
:101320000F7F0F0F07010101000000000000000007
:1013300000000101000000000000000000000000AB
:10134000000000000000000000000000000000009D
:10135000000000000000000000000000000000008D
:10136000000000000000000000000000000000007D
:10137000000000000000000000000000000000006D
:10138000000000000000000000000000000000005D
:10139000000000000000000000000000000000004D
:1013A000000000000000000000000000000000003D
:1013B000000000000000000000000000000000002D
:1013C00000000000000000000000000011241FBE0B
:1013D000CFEFDAE0DEBFCDBF04B603FE27C08091B9
:1013E000FE049091FF04A0910005B09101058730A3
:1013F000904BA740B04BD1F41092FE041092FF0422
:10140000109200051092010514BE84B7877F84BF37
:101410000FB6F894A8958091600088618093600071
:10142000109260000FBEE0E0F8E3099511E0A0E043
:10143000B1E0E6E5F9E502C005900D92A238B107EA
:10144000D9F724E0A2E8B1E001C01D92AE3FB20797
:10145000E1F70E9434250C94852C0C940000FF9336
:10146000EF93E0918201F0918301309709F00995A3
:10147000EF91FF910895FC018591803011F0EFDF2D
:10148000FBCF0895FF27E0E230E247FF0CC0419513
:1014900097FF09C0EDE26095709580959095611D6C
:1014A000711D811D911D27FF02C0219530E350E27F
:1014B000AA27660F771F881F991FAA1FA41710F06D
:1014C000A41B63955A95A9F7AA3008F0A95FA05DFF
:1014D000AF93F395611571058105910541F7ED32E3
:1014E00011F4EF93F395F21718F43F93F395FBCFB4
:1014F0008F91B5DFFA95E1F70895E991F99185911A
:10150000803021F0853219F0AADFF9CF089520E06C
:10151000E89455915532C1F3503311F468945591C4
:101520005A3348F4505390F3220F022E220F220F09
:10153000200D250FF4CF0EF4219589919991533602
:1015400019F3533729F1533559F1BC0188279927ED
:10155000E8945C3621F489919991689455915436B8
:1015600039F446EF7EF077FF0DC08FEF9FEF0AC092
:1015700055374AE039F0583540E121F0523642E023
:1015800009F00895FF93EF937DDFEF91FF91B7CFBF
:10159000FF93EF93FC0181918030B9F360DFFBCFC3
:1015A000FF93EF9368DFF1CFDF93CF93CDB7DEB733
:1015B0002596A3DFCF91DF910895E8EDF0E08081DB
:1015C0008E7F80831092E2001092DA001092E10088
:1015D000A0EEB0E08C9181608C9380818F778083C6
:1015E00019BCA7EDB0E08C918E7F8C9380818F7EAB
:1015F00080831092B10208952091E4003091E500BB
:1016000095E6A9012091EC00822F817020FF06C091
:101610008091E80080FF06C080E008952091E800F6
:1016200022FD1AC08091D602882389F0853089F086
:101630008091EB0085FD0FC02091E4003091E50022
:1016400042175307F9F29150E1F684E0089582E0E1
:10165000089583E0089581E00895EF92FF920F933B
:101660001F93CF937C018B010E94FC0AC82F81112C
:1016700017C08091E80085FD0BC08091E8008E774F
:101680008093E8000E94FC0A882399F3C82F08C0C1
:10169000F70181917F018093F1000150110949F711
:1016A0008C2FCF911F910F91FF90EF900895809113
:1016B000D80287FF13C08091E80082FF06C08091A6
:1016C000E8008B778093E80004C08091D6028111F6
:1016D000F2CF08958091D6028823D9F38091E80053
:1016E00080FFF8CF8091E8008E77ECCF982F909311
:1016F000E900242F762F50E0891731F07091EC002B
:101700002091ED005091F00021FD07C09F5F9730C0
:1017100071F78093E90081E008953091EB003E7FFE
:101720003093EB003091ED003D7F3093ED00309130
:10173000EB0031603093EB007093EC002093ED00F0
:101740005093F0002091EE0027FDE0CF80E0089557
:10175000CF92DF92EF92FF920F931F93CF93DF937D
:10176000C8EDD0E088818F7E8883E7EDF0E080814E
:101770008160808384E082BF81E08093B1028881B0
:101780008E7F888302EE10E0F80110821092DA005A
:1017900081EEC82ED12CF601108288818F77888344
:1017A00088818068888388818F7D888319BC1092A6
:1017B000D6021092D7021092D5021092D40290EE67
:1017C000E92EF12CF70180818B7F808388818160F5
:1017D000888342E060E080E00E94760BF601808121
:1017E0008E7F8083F8018081816080838081886022
:1017F0008083F70180818E7F8083888180618883E8
:10180000DF91CF911F910F91FF90EF90DF90CF90DC
:101810000895FC018091DE029091DF028617970700
:10182000A0F06115710529F49091E8009E779093DE
:10183000E80090E06115710551F4911108C08091A4
:10184000E80082FF34C080E00895BC01F2CF8091AF
:10185000D6028823C1F18530C1F18091E80083FD73
:1018600030C08091E80082FDEACF8091E80080FFDF
:10187000E1CF8091F3002091F200382F61157105BE
:1018800019F02830310558F091E02830310509F081
:1018900090E02091E8002E772093E800CBCF819153
:1018A0008093F100615071092F5F3F4FE7CF809126
:1018B000D602882341F0853041F08091E80083FF13
:1018C000BECF81E0089582E0089583E008950895F1
:1018D00008958091B30208952FB7F8946091A502FE
:1018E0007091A6028091A7029091A8022FBF08953F
:1018F0002091A1023091A2022817390771F090932C
:10190000A2028093A102E0919F02F091A002309781
:1019100021F00084F185E02D0994089520919D0225
:1019200030919E022817390771F090939E028093A0
:101930009D02E0919F02F091A002309721F0068075
:10194000F781E02D09940895E0919F02F091A002A3
:10195000309721F00190F081E02D099480E0089506
:10196000FA01811101C0FB01099480919202982F24
:101970009E7F39F4809192028170826080939202FE
:1019800008958430B8F708959091A90292FF06C097
:10199000282F28712830F9F4877F846093FF06C0D0
:1019A000282F28712831F1F4877E84612091AA02C2
:1019B00020FF06C0382F38713830D9F4877F816016
:1019C00021FF06C0282F28712831D1F4877E81613C
:1019D00094FD877E0895282F24712430F9F68B7F9B
:1019E0008860DCCF282F2471243101F78B7E886139
:1019F000DDCF382F3171313019F78E7F8860E0CF1D
:101A0000282F2171213121F78E7E8861E1CFCF937C
:101A1000DF93EC0182389105A9F1D8F58133910566
:101A200009F496C048F58932910509F48AC08A976D
:101A300009F495C0C11522E5D20708F0B6C0C1155A
:101A400031E5D30708F026C1C83ED10508F09CC097
:101A5000C03ED10560F5C83AD10508F087C0C53A47
:101A6000D10508F0EFC0C130D10509F12097F9F098
:101A7000C430D105E0F440C08533910509F45AC063
:101A8000C997C1F68091A902837089F0C0EED0E0B9
:101A90000EC0833E910599F170F4803E910501F1ED
:101AA000823E910539F68091A90282FD21C0CE01C6
:101AB000DF91CF910895863E910561F1873E9105B2
:101AC00071F1843E910509F0B5CF8091AA0281FFA2
:101AD000EECF8091A902C7EED0E084FD0DC0E7CF24
:101AE0008091A90280FD07C19091AA0290FFDFCFEB
:101AF000C3EED0E084FFDBCFD0E0C0E0D8CF809150
:101B0000A90282FDFBC09091AA0290FDBFCF84FF85
:101B1000CECFF2CF8091A90283FDDDCFC8CF8091D7
:101B2000A90283FDEEC09091AA0291FFF0CFC4EE0E
:101B3000D0E0BDCF8091A90285FFB9CFC9E2D0E046
:101B4000B6CF8091A90285FFB2CFC5E3D0E0AFCF79
:101B50008091A90286FFABCFCAE2D0E0A8CF8091E6
:101B6000A90286FFA4CFC1E3D0E0A1CFCF3BD1052E
:101B700018F6C85AD0E0CC0FDD1FC95EDE4F0990C1
:101B8000D881C02DD46493CFC11540E5D40708F0A7
:101B900064C0C11580E4D80708F05CC0CE019A95F6
:101BA00081159F4108F483CFA7CFC11536E5D30730
:101BB00018F5C11545E5D40708F084C0C11584E5C2
:101BC000D80708F07AC09C2F969596959E012370B1
:101BD0003327C115D34508F462C0C1E0D0E002C08C
:101BE000CC0FDD1F2A95E2F730E2939FC00111244C
:101BF000C82BD92BDA685BCFC1158AE5D80778F4F2
:101C0000C11599E5D90708F068C0C11528E5D207C4
:101C100008F472CFDC2FCC27C06FD06A48CFCE013A
:101C200090568115904208F067CF8D2F8F710E94DA
:101C3000C40C90E0982F882788279F719C012C2B3B
:101C4000E90149C0C55AD0E0CC5EDE4FC881D0E082
:101C5000D0642DCFDF70D06A2ACFCE01E4E0969514
:101C60008795EA95E1F783702C2F269526952370AA
:101C700040E2249F90011124382B8C2F8370C1E007
:101C8000D0E002C0CC0FDD1F8A95E2F7C22BD32B28
:101C9000DC680DCFDC2FCC27C16FD06A08CFC1E044
:101CA000D0E002C0CC0FDD1F2A95E2F720E2929F20
:101CB000C0011124C82BD92BEBCFDC2FCC27C46F4C
:101CC000D06AF5CE8C2F0E94C40CC82FD0E0DC2F38
:101CD000CC27CC27DF71D062EACE8C2F8F700E9488
:101CE000C40C34E0D695C7953A95E1F7CF709C2F98
:101CF000EC01D069DCCEC9E3D0E0D9CEC2EED0E0B1
:101D0000D6CEC6EED0E0D3CE8091130281111092D0
:101D100013020895809590911202982390931202D5
:101D2000089580910E029091DD01981301C00895ED
:101D30008F5F8770FACFAF92BF92CF92DF92EF9210
:101D4000FF920F931F93CF93DF93C0903402D090F4
:101D50003502E0903602F090370240911402509123
:101D600015026091160270911702C42AD52AE62A3C
:101D7000F72ACFE1D0E0082F10E02AE0929F000D73
:101D8000111D112490E5A92EBC2ED701C6010C2EE1
:101D900004C0B695A795979587950A94D2F780FDCC
:101DA0000FC0219788F7B12C8B2DDF91CF911F9118
:101DB0000F91FF90EF90DF90CF90BF90AF9008957C
:101DC000AC9EF001AD9EF00D1124E00FF11FEE0F5F
:101DD000FF1FEC5BFD4F859194910E94070D0197C9
:101DE00001F3E2CFCF93DF93EC010E949B0EEC2F27
:101DF000F0E09AE0D99FE00DF11D112490E5899F54
:101E0000E00DF11D1124EE0FFF1FEC5BFD4F8591DE
:101E10009491DF91CF910C94070D2AE0929F800D51
:101E20001124982F977086958695869525E0829F38
:101E3000F0011124EB55FE4F50E040E080E021918D
:101E400030E0092E02C0369527950A94E2F72170FA
:101E50003327042E01C0220F0A94EAF7822B4F5F2A
:101E60005F4F4530510559F708952AE0929F800D44
:101E70001124982F977041E001C0440F9A95EAF71A
:101E800086958695869595E0899FF0011124EB55FE
:101E9000FE4F90E080E070E05191DF0111979B01CF
:101EA000082E02C0369527950A94E2F721702195F5
:101EB0002527242325272C9301968530910561F74A
:101EC0000895FC01808191810E94F20E292F2F70CC
:101ED00092959F7092509E3078F4E92FF0E0E95788
:101EE000F34D0C94212C803F19F020F4883E20F40F
:101EF00081E00895843FE1F380E00895883EC0F3D7
:101F0000813FD1F7F5CF822F8695869586950895E6
:101F1000829590E09C01220F331F220F331F2C7CEF
:101F200095958795959587958373282B30E0C90102
:101F3000880F991F8A7A359527952575822B0895E4
:101F40002F923F924F925F926F927F928F929F92C9
:101F5000AF92BF92CF92DF92EF92FF920F931F93B7
:101F6000CF93DF93A9E7B1E031E8432E31E0532E60
:101F700080E066246394712C812C912C540183940D
:101F8000ED916CE671E042E050E0F0E0EB019991F8
:101F9000BE01C92FC295CF70D0E09F70930101C0E0
:101FA000220F9A95EAF78F01042E02C01595079526
:101FB0000A94E2F79AA100FF58C0292B2AA34150A6
:101FC000510920F790E59A95F1F7EE0FFF1FE251C6
:101FD000FB4FE080F1802FE6222E21E0322E30E010
:101FE00020E0E10199911E01492F42954F7050E088
:101FF000EA01C8A0B501A401022E04C0440F551F78
:10200000661F771F0A94D2F700811181D12C9F702F
:1020100002C0D594C7949A95E2F7C0FC29C0402B22
:10202000512B518340832F5F3F4F2A303105C9F632
:1020300020813181E216F30609F081E04A165B0641
:1020400009F09ECFDF91CF911F910F91FF90EF90FC
:10205000DF90CF90BF90AF909F908F907F906F90C8
:102060005F904F903F902F90089520952923A6CF01
:102070004095509540235123D4CF9FB7F8941092A8
:10208000AF029FBF9091D602943009F048C02091D2
:10209000E9002F703091EC00932F917030FD90E8A3
:1020A000922B23E02093E9002091EB0020FF34C025
:1020B0002091EE0027FF30C02091AE02222321F0B4
:1020C0002091E80025FF28C01092AE0226E0309152
:1020D000E80035FF14C08093F1008091E80085FD91
:1020E00027C08091E80080FFFCCF8091E8008E77C8
:1020F0008093E8009F709093E90080E0089530910C
:10210000D602343049F43091EB0035FD05C0215042
:1021100041F481E08093AE029F709093E9008FEFCD
:102120000895EFE9FFE03197F1F700C00000CFCF4D
:102130008FB7F89421E02093AF028FBFDBCF80935D
:10214000AB027093AD026093AC028091D6028430F2
:1021500001F582E08093E9008FEF9091E8008150D3
:1021600095FD06C095ED9A95F1F700008111F5CF28
:102170008091E80085FF0DC050E040E063E070E032
:102180008BEA92E00E942D0B8091E8008E7780937D
:10219000E8000895BC0184E00C949F10BC0183E02A
:1021A0000C949F10CF93DF93EC018091130188234F
:1021B000B1F18091A90287FF32C060E282E0809392
:1021C000E9008FEF9091E800815095FD06C095EDF4
:1021D0009A95F1F700008111F5CF8091E80085FF15
:1021E0001BC08091130170E050E040E0811104C0F9
:1021F00050E040E068E070E0CE010E942D0B80913D
:10220000E8008E778093E80080E2FE01A4EBB2E064
:1022100001900D928A95E1F7DF91CF91089568E0E2
:1022200081E0CDCF8091920280FD0AC0EBE6F2E022
:10223000118210821282339652E0E239F507C1F71B
:10224000849A31B33F7E21B320614FB7F8948BE677
:1022500092E0FC015191CF0168E021BB000000C079
:1022600057FF31BB550F000000C000C000C031BB9C
:1022700000C06A9591F7F2E082399F0751F74FBF8E
:102280008FE594E00197F1F700C000000895CF9327
:10229000DF93C091EC04D091ED048A30C1F4209119
:1022A000E302CE01865E9240622F70E00E94ED2B29
:1022B000281B822F66E00E94012CC82FC15018F401
:1022C000DF91CF91089580E20E944711F7CF8D30C2
:1022D000E9F4C65ED2402091E302622F70E0CE01A5
:1022E0000E94ED2B281B822F9E01280F311D2115E6
:1022F000324018F080E0D0E0C0E0C80FD11DCA51D4
:10230000DD4FD093ED04C093EC04DACF96E0FE01EC
:10231000A6EEB4E001900D929A95E1F7803E08F4A4
:1023200058C086E0FE0111928A95E9F7C091EC044D
:10233000D091ED0446E050E0BE0186EE94E00E94AC
:10234000302C9E01265E3240892B41F1C90145E0C7
:10235000969587954A95E1F741E050E0BA0102C0B1
:10236000660F771F8A95E2F7CB016091E4027091C6
:10237000E502862B972BB9016B5F7F4FE5E07695E1
:102380006795EA95E1F702C0440F551F6A95E2F799
:10239000842B952B9093E5028093E4022A5F3F4FB4
:1023A0004091E302642F70E0C9010E94ED2B481BAD
:1023B000463010F4240F311D211572E0370710F05C
:1023C00030E020E02A513D4F3093ED042093EC049F
:1023D00077CFF6E08F9FB00111246557714F46E02B
:1023E00050E0CE010E94272CA1CFCF93DF93EC01C8
:1023F000FE018491811103C0DF91CF9108950E9465
:1024000047112196F5CFCF92DF92EF92FF920F9373
:102410001F93CF93DF936C017B0164E670E088E744
:102420000E94EC2AEC0197FD12C010E000E0F601DA
:10243000E00FF11F849164E670E00E94662BEC01CE
:10244000892B29F40F5F1F4F0E151F0581F70E947E
:10245000E92BCE01DF91CF911F910F91FF90EF906B
:10246000DF90CF90089580919B0290919C029111F2
:1024700003C091E089270895882389F062E070E025
:1024800088EA9DE00E940312892B39F083E99DE0E0
:102490000E943B0A80919B02089510929B028091BA
:1024A0009B02E7CFCF93C0919B0280919C0288232F
:1024B000F1F00E946C0C605A75418F4F9F4F6093F2
:1024C0009702709398028093990290939A02C11197
:1024D0000CC062E070E081E99DE00E940312892B4C
:1024E00049F08DE79DE00E943B0AC0919B028C2F32
:1024F000CF91089581E080939B02F7CF2091130143
:10250000222351F12091A90227FF26C0E62FE6954C
:10251000E695E695EE3178F4E80FF92FF11D677036
:1025200021E030E001C0220F6A95EAF72095828110
:102530002823228308958091A30280FF19C01F924F
:102540006F9388EC9DE09F938F930E94D40A0F9025
:102550000F900F900F900895FC01329608962191EC
:10256000621303C0DF0111971C92E817F907B9F74E
:10257000089520911301222349F12091A90227FFF8
:1025800025C0E62FE695E695E695EE3170F4E80F66
:10259000F92FF11D677021E030E001C0220F6A952C
:1025A000EAF78281822B828308958091A30280FFC3
:1025B0001EC01F926F938AEA9DE09F938F930E94A3
:1025C000D40A0F900F900F900F900895FC0132964F
:1025D0002FEF30E04191641751F02F3F19F4411172
:1025E00001C0232F3F5F3630A9F72F3F09F408952C
:1025F000820F911D27FD9A95FC0162830895EF9249
:10260000FF920F931F93CF93DF93809112029091CB
:102610001102892B90911002892B80938401909153
:1026200013029923B1F0892B8093840180911301C7
:10263000882309F45DC08091A90287FF59C08EE10B
:10264000E6E8F1E090E0815008F054C091110E945A
:10265000840EE0919F02F091A002309709F450C0DF
:1026600080911301882359F08091A90287FF07C048
:10267000809184018093850186E0809384010280AB
:10268000F381E02D84E891E009958091A30282FF17
:1026900037C080FF04C081E494E00E943B0AC4E894
:1026A000D1E08CE8E82E81E0F82E0BE314E0809175
:1026B000A30280FF0BC088811F928F931F930F93FB
:1026C0000E94D40A0F900F900F900F902196EC1655
:1026D000FD0669F78091A30280FF12C089E394E0B0
:1026E000DF91CF911F910F91FF90EF900C943B0AD7
:1026F00086E0A6CF2191222309F4A5CF9F5FA3CF27
:10270000DF91CF911F910F91FF90EF90089590E08E
:1027100080E00E948E0C90E080E00E94780C109285
:102720001102109210020C94FF1260933402709305
:10273000350280933602909337020C9487130F93DF
:102740001F9341E050E060E070E004C0440F551F6B
:10275000661F771F8A95D2F7CB01BA0160957095F5
:1027600080959095009134021091350220913602A7
:102770003091370260237123822393231F910F919D
:102780000C94951390910F028095892380930F02EA
:10279000282F277091F4282F082E000C330B921746
:1027A000130659F09091AA0292FD07C08595859570
:1027B00085950E949F1310920F0208950F931F9307
:1027C00041E050E060E070E004C0440F551F661F18
:1027D000771F8A95D2F78091340290913502A091AB
:1027E0003602B09137028A019B01082B192B2A2B44
:1027F0003B2BC901B8011F910F910C949513609365
:1028000014027093150280931602909317020C9491
:1028100087131092120280911301E6E8F1E08823F9
:1028200059F08091A90287FF07C08EE1DF011D9258
:102830008A95E9F70C94871386E0F8CF1F93CF931E
:10284000DF93CDB7DEB7AA970FB6F894DEBF0FBE01
:10285000CDBF88ED92E02091F100DC012D93CD01F8
:10286000B2E0803E9B07B9F78091D902833009F42A
:1028700070C0B8F4813009F447C0823009F4B1C0A7
:102880008091E80083FF84C28091D8029091D902A0
:102890009A3008F07DC2E92FF0E0EB56F34D0C942E
:1028A000212C8A3009F48CC08B3009F46FC0893038
:1028B00039F78091D802813219F78091DC0290912A
:1028C000DD020297E8F68091E800877F8093E800B8
:1028D0008091E80082FF38C09091F3008091F2006F
:1028E000029731F48091F100813011F0863021F4AB
:1028F0008091F1008093B3028091E8008B77809300
:10290000E8000E94570BBCCF8091D802813A09F0B1
:10291000B7CF8091E800877F8093E8008091DC0248
:102920009091DD02892B61F460E284EB92E070E02B
:102930000E94090C8091E8008B778093E800A0CF7B
:1029400060E090E080E0F3CF8091D6028111C0CFAB
:1029500097CF8091D802813A09F092CF8091DC0222
:102960009091DD02892B09F08BCF8091E800877F61
:102970008093E8008091E80080FFFCCF80911301F4
:102980008093F1008091E8008E77B9CF8091D802D2
:10299000813209F075CF8091DC029091DD02892BA4
:1029A00009F06ECF8091E800877F8093E8000E9455
:1029B000570B8091DA02809313010E94091460CFB3
:1029C0008091D802813209F05BCF8091E800877F47
:1029D0008093E8000E94570B8091DB028093B20243
:1029E0004FCF8091D802813A09F04ACF8091E80018
:1029F000877F8093E8008091E80080FFFCCF809182
:102A0000B202BECF803899F0823809F0C1C18091FE
:102A1000DC028F70873008F0BBC18093E9008091A1
:102A2000EB0085FB882780F91092E90006C08091B1
:102A3000D4029091D502911182609091E800977F25
:102A40009093E8008093F1001092F1008091E800EB
:102A50008E779AC1882309F488C1823009F098C121
:102A60008091DA0281118BC18091DC028F702FEF8F
:102A7000280F263008F08CC18093E9002091EB00EC
:102A800020FF7DC1933031F48091EB008062809310
:102A9000EB0075C19091EB0090619093EB0021E009
:102AA00030E001C0220F8A95EAF72093EA001092E5
:102AB000EA008091EB008860EACF811169C1109132
:102AC000DA021F778091E3008078812B8093E30006
:102AD0008091E800877F8093E8000E94570B8091E7
:102AE000E80080FFFCCF8091E30080688093E300E2
:102AF00082E0111183E08093D6024AC1805882306F
:102B000008F046C12091DA023091DB022C3DE3E06F
:102B10003E07A1F583E08A838AE289834FB7F89460
:102B2000DE01139620E03EE051E2E32FF0E0509307
:102B30005700E49120FF03C0E295EF703F5FEF7014
:102B40008E2F90E0EA30C0F0C7968D939D932F5F53
:102B5000243159F74FBF8091E800877F8093E800C8
:102B60006AE270E0CE0101960E94090C8091E800B3
:102B70008B778093E8000CC1C096E7CF8091DC0290
:102B80009091DD02432F55274330510509F44AC087
:102B900078F54130510509F47AC08BE590E0EAEF11
:102BA000FDE04230510509F0F3C02091E800277F95
:102BB0002093E8002091DE023091DF028217930714
:102BC00008F49C0140E02115310509F065C0411170
:102BD00063C08091E80082FDC9CF8091D60288232E
:102BE00029F2853019F28091E80083FFF2CFBECF41
:102BF0004132510509F43CC04232510509F0C8C0C8
:102C00008330910508F0C4C0FC01EE0FFF1FE05AAD
:102C1000FE4F0190F081E02D835A9E4FDC018C9194
:102C200090E01AC0332721303105D1F0211531054C
:102C300061F02230310509F0ABC0E7E6FEE0E49137
:102C40008E2F90E0E7E6FEE007C0E7E8FEE0E491C3
:102C50008E2F90E0E7E8FEE0009709F499C0A5CF39
:102C6000E1E7FEE0E4918E2F90E0E1E7FEE0F4CFB3
:102C70008330910508F08CC0880F991FFC01EA5938
:102C8000FE4F0190F081E02D89E090E08ECF82E14F
:102C900090E0E5E5FEE089CF8091D602882309F433
:102CA00065CF853009F462CF8091E80083FD5ECF67
:102CB0008091E80082FD8DCF8091E80080FF83CF76
:102CC0009091F3008091F2002115310519F08830C0
:102CD000910550F041E0089709F040E08091E8004C
:102CE0008E778093E8006FCF44914093F100319646
:102CF000215031090196E8CF803809F049C0809110
:102D0000E800877F8093E8008091D7028093F100EC
:102D10009DCE81113DC01091DA021230C8F580912C
:102D2000E800877F8093E8001093D7020E94570B3A
:102D3000112311F084E005C08091E30087FDFACFF4
:102D400081E08093D60242E061EC81E00E94760B44
:102D500042E261EC82E00E94760B42E261EC83E0A9
:102D60000E94760B8091D60213C08091DA028130E6
:102D700079F481E0933009F080E08093D5021092DD
:102D8000E9008091E800877F8093E8000E94570B5C
:102D90008091E80083FF0AC08091E800877F8093DC
:102DA000E8008091EB0080628093EB00AA960FB65A
:102DB000F894DEBF0FBECDBFDF91CF911F91089574
:102DC000882321F00E948A0E0C94FF120895882314
:102DD00039F090911202982B909312020C94FF12EA
:102DE0000895882341F19CEF980F913A38F4682FA9
:102DF00084E891E00E947E120C94FF1290E2980FFA
:102E0000983050F4877091E001C0990F8A95EAF7E5
:102E1000892F0E948A0EF0CF9BE5980F933020F403
:102E200090E080E00C948E0C885A873120F490E07A
:102E300080E00C94780C0895CF93C82F882309F470
:102E400067C08CEF8C0F813AC0F580911301882305
:102E500011F18091A90287FF1EC0EC2FE695E6953F
:102E6000E695F0E0EC57FE4F828190E04C2F4770E2
:102E700021E030E002C0220F331F4A95E2F782239F
:102E80009323892B91F06C2F84E891E00E947E12AD
:102E90000E94FF120AC0E6E8F1E08CE891E021917F
:102EA000C21789F38E179F07D1F76C2F84E891E042
:102EB0000E94B912CF910C94FF1280E28C0F8830DF
:102EC00068F4C77021E030E001C0220FCA95EAF72C
:102ED00080911202822B80931202ECCFEBE5EC0F73
:102EE000E33040F4F0E0EC5EFE4F808190E0CF9163
:102EF0000C948E0CC85AC73158F4EC2FF0E0EE0F4A
:102F0000FF1FE95EFE4F80819181CF910C94780C78
:102F1000CF9108951F93CF93DF93182FEB010E9459
:102F20001C178FE99FE00197F1F700C0000021977F
:102F3000C1F7812FDF91CF911F910C94F116CF92A1
:102F4000DF92EF92FF926B017C010E94B50CB701FA
:102F5000A60188E090E0FF90EF90DF90CF900C9476
:102F6000632C8F929F92AF92BF92CF92DF92EF929B
:102F7000FF920F931F93CF93DF93D82FC62F142F59
:102F8000822E0091920200FF51C0802F8E7F8230EE
:102F9000E1F4E42FF0E0EF5CF34F611154C02491B1
:102FA000F22FE22F00FF11C0ABE6B2E082E992E01F
:102FB0001196EC9311972C931296FC9312971396FB
:102FC0008A179B07A9F70E941211D0939302C0930E
:102FD000940210939502882009F4AAC0609192028D
:102FE0007091930280919402909195020E949F1794
:102FF0008091A30280FF1AC0809195021F928F9347
:10300000809194021F928F93809193021F928F93CD
:1030100088E59DE09F938F930E94D40A8DB79EB759
:1030200008960FB6F8949EBF0FBE8DBFDF91CF916B
:103030001F910F91FF90EF90DF90CF90BF90AF90D6
:103040009F908F900895E62EF12CE4919E2ECE2E27
:10305000D12C26E0D29FC00111242FEF30E0B9011E
:103060000E94ED2B8D2F90E0880F991FF5E5F69FBC
:10307000A001F79F500D1124841B950BB82EBB0C9B
:10308000B80EA9014E195F094C9DC0014D9D900DD0
:103090005C9D900D1124F92FCB9DA0011124452F8B
:1030A0005527D901A41BB50BAC9DA001AD9D500DBA
:1030B000BC9D500D1124D901AB19B1095D01AE9C25
:1030C000D001AF9CB00DBE9CB00D1124AB2FBB271F
:1030D0002A1B3B0B2C9DD0012D9DB00D3C9DB00DAE
:1030E00011242B2F62307105A1F050F46115710588
:1030F00009F458CF6130710581F0292FF52F52CF97
:103100006430710569F080F06630710509F44ACFCA
:10311000F4CF2E2FE92FFB2F45CF2E2FE52F42CFB7
:10312000292FFE2FEB2F3ECFE92FF92D252F3ACF58
:103130008091A30280FF7ACF1F921F931F92CF939B
:103140001F92DF9381E39DE09F938F930E94D40AA7
:10315000ADB7BEB718960FB6F894BEBF0FBEADBFE1
:1031600065CFE2E9F2E0438121E1421B08F440E04F
:1031700021E0628181810C94B117E2E9F2E04381A0
:1031800021E1420F08F44FEF21E0628181810C942C
:10319000B117E2E9F2E0628121E1621B08F460E02C
:1031A00021E0438181810C94B117E2E9F2E0628170
:1031B00021E1620F08F46FEF21E0438181810C94DB
:1031C000B117E2E9F2E0818121E043816281885018
:1031D0000C94B117E2E9F2E0818121E04381628140
:1031E000885F0C94B11780919602882319F0815062
:1031F0008093960260919202709193028091940262
:10320000909195020C949F1780919602833018F448
:103210008F5F8093960260919202709193028091E9
:103220009402909195020C949F178091920280FFD6
:1032300036C08170826080939202662331F1609182
:1032400092027091930280919402909195020E9453
:103250009F178091A30280FF0FC0809192028695F4
:103260001F928F9385E19CE09F938F930E94D40AD5
:103270000F900F900F900F9020E040919502609179
:103280009402809193020C94B1178091A30280FF65
:10329000F3CF1F9281E08F9387EF9BE0E5CF0895F6
:1032A000809192028695815009F481E061E00C944E
:1032B000151961E081E00C941519E2E9F2E083E070
:1032C000808311828FEF8283838314826081718176
:1032D000828193810C949F17CF9384E090E00E94A9
:1032E0003D2CC82F82E290E00E943D2C982F8C2F1D
:1032F000CF91089569EE7EEF90E080E00E946F2C00
:1033000060E082E090E00E94512C60E083E090E079
:103310000E94512C10921402109215021092160263
:103320001092170260E084E090E00E94512C60E06F
:1033300082E290E00E94512C60E085E090E00E94E3
:10334000512C60E086E090E00E94512C6FEF87E006
:1033500090E00E94512C40E050E0BA0188E090E0FB
:103360000E94632C60E08DE090E00E94512C40E0D0
:1033700050E0BA0188E190E00E94632C60E087E1B0
:1033800090E00E94512C40E050E0BA018CE190E0C6
:103390000E94632C70E060E080E290E00E946F2C5D
:1033A00040E050E0BA0188E190E00E94632C40E0E8
:1033B00050E0BA018FE090E00E94632C40E050E0C2
:1033C000BA0183E190E00C94632CCF93DF93D82F64
:1033D000C091AA02C2FB882780F98D1711F1D0FB9A
:1033E000C2F9C093AA026091A90284E090E00E9411
:1033F000512C6C2F82E290E00E94512C82E00E94BE
:10340000C2138091A30280FF0CC01F92DF9384E25D
:1034100094E09F938F930E94D40A0F900F900F9087
:103420000F90DF91CF9108951F920F920FB60F92D8
:1034300011242F933F934F935F936F937F938F93B9
:103440009F93AF93BF93CF93DF93EF93FF93D0916D
:10345000E900DF708091EC00C82FC17080FDC0E8EA
:103460001092E9008091F000877F8093F0007894BB
:103470000E941E141092E9008091F00088608093F1
:10348000F000CD2BCF70C093E900FF91EF91DF9159
:10349000CF91BF91AF919F918F917F916F915F91EC
:1034A0004F913F912F910F900FBE0F901F90189545
:1034B0001F920F920FB60F9211242F933F934F93A9
:1034C0005F936F937F938F939F93AF93BF93EF938C
:1034D000FF938091E10082FF15C08091E20082FF9E
:1034E00011C08091E1008B7F8093E1002091B002B8
:1034F0002F5F822F62E30E94012C992309F4C0C040
:103500002093B0028091DA0080FF28C08091D8001B
:1035100080FF24C08091DA008E7F8093DA00809152
:10352000D90080FFE3C080E189BD82E189BD09B493
:1035300000FEFDCF81E08093D60286EE9DE00E94E2
:103540003B0A8091B102811109C00E94DD0A0E94EC
:10355000A80B8091E20084608093E2008091E100FA
:1035600080FF1BC08091E20080FF17C08091E200C5
:103570008E7F8093E2008091E20080618093E20080
:103580008091D80080628093D80019BC85E0809338
:10359000D6028EEE9DE00E943B0A8091E10084FFFE
:1035A0002FC08091E20084FF2BC080E189BD82E1C1
:1035B00089BD89B5982F917080FFFBCF8091D8008D
:1035C0008F7D8093D8008091E1008F7E8093E10011
:1035D0008091E2008F7E8093E2008091E200816022
:1035E0008093E2008091D702882309F489C084E0A7
:1035F0008093D60282EF9DE00E943B0A8091D60222
:103600008091E10083FF2BC08091E20083FF27C0FF
:103610008091E100877F8093E10082E08093D60271
:103620001092D7028091E1008E7F8093E10080911B
:10363000E2008E7F8093E2008091E20080618093BF
:10364000E20042E060E080E00E94760B8091F000B2
:1036500088608093F00086EF9DE00E943B0AFF9116
:10366000EF91BF91AF919F918F917F916F915F91FA
:103670004F913F912F910F900FBE0F901F90189573
:103680001092B0028091AF02882309F43BCF809161
:10369000D6028430C1F49091E9009F702091EC0033
:1036A000822F817020FD80E8892B93E09093E900C0
:1036B0009091EB0090FF04C09091EE0097FD08C040
:1036C0008F708093E9001092AF021CCF1092F1002E
:1036D0009091E80095FDFACF9091E80090FFF0CF2F
:1036E0009091E8009E779093E800EACF19BC109281
:1036F000D6028AEE9DE00E943B0A1092B1022ECFC4
:103700008091E30087FD93E09093D60273CF789485
:103710001F921FB61F9211248F939F93AF93BF9355
:103720008091A5029091A602A091A702B091A80253
:103730000196A11DB11D8093A5029093A602A093AE
:10374000A702B093A802BF91AF919F918F911F9054
:103750001FBE1F9018959C014FB7F8948091A50249
:103760009091A602A091A702B091A8024FBF821B20
:10377000930B08952FB7F8948091A5029091A6021B
:10378000A091A702B091A8022FBF08950F931F9395
:10379000CF93DF93C62FD42F022FFC018281882381
:1037A000A1F06093E2020E94BA1B9093E102809321
:1037B000E002C77081E001C0880FCA95EAF7DF9187
:1037C000CF911F910F910C94E7168091E20268133C
:1037D00037C08091E0029091E1020E94AB1B883CCF
:1037E000910570F510E21D0FCD17B9F080E28C0F36
:1037F000883040F4C77081E001C0880FCA95EAF7AD
:103800000E94E016183048F481E09D2F977001C0A7
:10381000880F9A95EAF70E94E71664E170E0802F1E
:103820000E948A17183098F4D77081E001C0880F81
:10383000DA95EAF7DF91CF911F910F910C94E01682
:10384000C77081E001C0880FCA95EAF7F3CFDF9116
:10385000CF911F910F9108954F925F926F927F9237
:103860008F929F92AF92BF92CF92DF92EF92FF9290
:103870000F931F93CF93DF9300D000D00F92CDB75B
:10388000DEB77C01FC0183819481892B39F01081A2
:10389000D180812F8D218F3F09F01FC50F900F9090
:1038A0000F900F900F90DF91CF911F910F91FF908C
:1038B000EF90DF90CF90BF90AF909F908F907F90D0
:1038C0006F905F904F9008950E949B0E082F682F75
:1038D00089819A810E94350FE12FF0E02AE0D29E83
:1038E000E00DF11D112430E5039FE00DF11D1124C1
:1038F000EE0FFF1FEC5BFD4F05911491043F8CE52B
:10390000180709F49AC0D0F5093DECE51E0709F443
:1039100090C00A3DFCE51F0709F49BC0083D2CE55B
:103920001207D1F526E241EE61EEC7010E94C61BE7
:1039300080910F02877009F4B1CFF701828188234B
:1039400009F4ACCF8091AA0282FDA8CF82E00F904B
:103950000F900F900F900F90DF91CF911F910F91CB
:10396000FF90EF90DF90CF90BF90AF909F908F909F
:103970007F906F905F904F900C94C213063F3CE590
:10398000130709F462C008F45CC027E245EE66EE56
:10399000073F9CE5190749F2F7018281882309F462
:1039A000ADC41092E2020430FDE51F0708F054C0D8
:1039B0000B3F2CE5120730F4C80182509C45449718
:1039C00008F04FC00E946C199093AA028093A9023C
:1039D00000318CE5180709F417C108F093C00830CE
:1039E000ECE51E0709F4FEC008F065C004302CE5C4
:1039F000120709F4E9C008F04BC002308CE5180743
:103A000009F4DCC08091A902826003301C4509F4EE
:103A1000D8C06091A9021091AA0284E090E00E94AF
:103A2000512C612F82E290E00E94512C0E940914D7
:103A30007FCF27E245EE65EE78CF26E241EE60EEDD
:103A400074CF27E245EE64EE70CF26E241EE62EEDF
:103A50006CCF28E241E0EFCF02363DE5130709F4D1
:103A6000B1CF809112020631ECE51E0709F053C474
:103A70008A7A91E009F490E09093A40169E28111BF
:103A800065E384E891E00E94B9120E94FF1250CFD2
:103A90008091A90280610630ECE51E0709F491C00F
:103AA0008091A902886007301C4508F48AC0809183
:103AB000A902806286C08091A9028D7F0C302CE51E
:103AC000120709F47EC058F40A308CE5180709F48F
:103AD00093C008F48BC08091A9028E7F72C0809140
:103AE000A902877F0E30ECE51E0709F46AC08091B9
:103AF000A9028B7F0F301C4508F463C08091A90296
:103B00008F7E5FC00D3F2CE5120709F479C068F580
:103B100004318CE5180709F48BC080F40231ECE520
:103B20001E0709F475C08091A9028F7B03311C45E3
:103B300008F447C08091A902837F43C00B3F2CE566
:103B4000120709F445C008F049C005311C4509F0C9
:103B500060CF8091A90282FB992790F921E09227FA
:103B600090FB82F990FB83F92CC001309DE5190789
:103B700009F454C088F48091AA0283600F3FFCE5E9
:103B80001F0749F18091AA028D7F01151D4518F18B
:103B90008091AA028C7F1FC003303DE5130709F412
:103BA00056C008F44EC002361D4509F032CF909140
:103BB000A902892F8F7E94FF806103C08091A902A2
:103BC00081608093A90225CF8091A9028460F9CFFA
:103BD0008091AA0281608093AA021BCF8091AA02E1
:103BE0008260F9CF8091A9028064EBCF0E94091412
:103BF0008091A9028068E5CF8091A9028C60E1CF15
:103C00008091AA028E7FE7CF8091A9028F7DD9CFC4
:103C10000E9409148091A9028F77D3CF8091AA02C4
:103C2000982F909591708E7F892B90FB81F9D3CF3F
:103C30000E9409149091A902892F97FB87F9805857
:103C4000C0CF61E08EE090E00E94512CE2CE60E0B7
:103C5000F9CF8091A30280FF10C0809192028095DD
:103C600081701F928F938AEE91E09F938F930E94B1
:103C7000D40A0F900F900F900F908091920280FFC6
:103C80002CC08E7F80939202609192027091930279
:103C900080919402909195020E949F178091A302B7
:103CA00080FF0FC08091920281701F928F938BE7EB
:103CB00091E09F938F930E94D40A0F900F900F90E2
:103CC0000F90FFEF20E732E0F15020403040E1F765
:103CD00000C000000E9412112BCE816080939202DE
:103CE0008091A30280FF0DC01F9281E08F9383EB30
:103CF00091E09F938F930E94D40A0F900F900F90A2
:103D00000F908091920261E086950E94151910CE65
:103D100040E559E169E579E10E94B00C09CE49E539
:103D200059E160E579E1F8CF41EE58E16AEE78E1DA
:103D3000F3CF41EB58E16DEB78E1EECF61E081E04C
:103D4000E4CF0C352DE5120709F444C00D351007FA
:103D5000B9F10B351D4509F009C381E038C00E9457
:103D600009149FEFE4E3FCE09150E040F040E1F7FC
:103D700000C0000087E797E7909301088093000850
:103D800088E19AE00FB6F894A895809360000FBE82
:103D900090936000FFCF9091A302892F8E7F90FFB8
:103DA00081608093A30280FF05C083E392E00E94BC
:103DB0003B0ABECD81E292E0FACF0E947A19B8CDDB
:103DC0008091AA0282FB882780F991E089270E94CE
:103DD000E519CCC280E0FBCF812F902F0E940D0F00
:103DE000D82ED5C2212F2F70C22E107F19F0C29469
:103DF00020EFC222DD20B9F0CC2069F080E2800FF4
:103E0000883010F0811009C080911202C82AC09237
:103E100012020E94FF12802F4BC080911102C82A0B
:103E2000C0921102F6CF802F0E94F116CC2009F427
:103E300041C0005E083010F0811004C08C2D0E943B
:103E40008A0E06C0C09480911102C822C09211024D
:103E50000E94FF122FC0312F3F70C32E107F1032EF
:103E600019F0C29490EFC922882089F081E0881669
:103E700009F489C0DD2009F493C0992009F489C0B0
:103E8000F701858180FFC7CF8F70858382C0209125
:103E9000AA0222FF55C0DD2009F44BC0CC2039F026
:103EA00080911202C82AC09212020E94FF1280E082
:103EB0000E941C172A2D2850330B2430310510F492
:103EC0000E94A40CBB20A9F080910F0280FD11C0BC
:103ED000F70112828595859585950E94DE13C701AD
:103EE0000E942C1C80910F028595859585950E94D6
:103EF0009F1385E0F701DE01119601900D928A95DE
:103F0000E1F789819A810E940D0F9A81E981F0E0A1
:103F10002AE0929FE00DF11D112430E5839FE00D12
:103F2000F11D1124EE0FFF1FEC5BFD4F8591949165
:103F3000B5CC80E00E94F116CC2009F4BBCF7ECF37
:103F4000DD20A1F0909113028C2D892B911003C0DC
:103F50000E94E716AFCFE1E09E12FACF22FDAACF72
:103F6000981709F4A7CF80931302A4CF911006C02D
:103F70000E94840E8C2D0E94E0169CCFF1E09F16CB
:103F800009F498CFF5CFDD2031F025E0291508F4AC
:103F900091CF8C2DDDCF34E0391508F48BCFEACFEB
:103FA000992041F3F9E38F128DC12FEF37EE83E0B3
:103FB000215030408040E1F700C00000802F0E9477
:103FC000F11678CF812F86958695837061F08130C8
:103FD00009F070CFC8019370D11002C090E080E06A
:103FE0000E94780C67CFC8019370D11002C090E096
:103FF00080E00E948E0C5ECF812F837009F066C036
:10400000D11058CF802F829586958770880F880FA2
:10401000602F6F70462E512C712C612C082E04C01D
:10402000440C551C661C771C0A94D2F740E050E003
:10403000BA0104FF0FC04FE050E060E070E004C040
:10404000440F551F661F771F8A95D2F740955095EC
:1040500060957095812F869586958370823019F1D1
:10406000D8F400911402109115022091160230919B
:104070001702813069F04429552966297729CB0137
:10408000BA0160237123822393230E94FF1312CF6E
:10409000402A512A622A732ACB01BA016429752960
:1040A00086299729F2CF4429552966297729009135
:1040B0001402109115022091160230911702CB01C3
:1040C000BA016027712782279327DFCF8695DD20ED
:1040D00011F0812F8170882309F4ECCE802F829516
:1040E00086958770880F880F602F6F70462E512C31
:1040F000712C612C082E04C0440C551C661C771CC6
:104100000A94D2F740E050E0BA0104FF0FC04FE03C
:1041100050E060E070E004C0440F551F661F771F39
:104120008A95D2F74095509560957095812F869528
:1041300086958370823019F1D8F400913402109181
:1041400035022091360230913702813069F04429DE
:10415000552966297729CB01BA016023712382236F
:1041600093230E949513A6CE402A512A622A732ACD
:10417000CB01BA016429752986299729F2CF4429F0
:104180005529662977290091340210913502209132
:10419000360230913702CB01BA016027712782279E
:1041A0009327DFCF1F70DD2029F0812F0E94DE13BF
:1041B000802FCECE802F0E94E016812F0E949F1369
:1041C00079CE802F22EF821609F43FC0281570F0B7
:1041D00030EF8316D1F091EF891691F0DD2009F4CC
:1041E0006CC0911018CE812F8F7133C0E3EF8E1603
:1041F00099F1F4EF8F12F2CF8091AA0282FF3FC0B3
:10420000812F8F71DD20D1F224C0DD20C9F024E0A0
:10421000291508F44FCE1F7161E070E080E090E056
:1042200004C0660F771F881F991F1A95D2F7009157
:104230003402109135022091360230913702ADCF11
:1042400035E0391508F436CEE6CF812F8F71D110C5
:10425000B5CF0E94DE132ECE60E070E0CB01DD20F2
:1042600009F47FCF1F7161E070E080E090E004C04E
:10427000660F771F881F991F1A95D2F772CFDD201E
:1042800089F01F71812F0E94DE138091AA0282FDA6
:1042900007C0E8E01E9FC0011124836080930F02D5
:1042A000812FD7CF81E00E94C213F1E0F91508F009
:1042B00001CE82E00E94C213FDCD992059F08933CE
:1042C00009F473CE9FEFE9EFF0E09150E040F04049
:1042D000E1F772CE812F8F7171CF85E0DE011196EB
:1042E00001900D928A95E1F7F701228189819A81E7
:1042F0002111EACA0E940D0F082FEECA06311C4593
:10430000A9F58091A40169E2811165E384E891E057
:104310000E947E12BACB82720A3C2CE5120709F485
:1043200008CD08F091C0063C9CE5190709F4FCCCC7
:1043300008F074C0043CFCE51F0709F4E9CC08F060
:10434000EECC033C3CE5130709F483CC0F3D8CE530
:10435000180709F432CD08F0F4CC0115ECE51E077E
:1043600009F4FDCC01301C4509F415CDF70182811B
:1043700010810181882309F42FCD812F902F0E9475
:104380009B0ED82E682F812F902F0E94350FE12F82
:10439000F0E02AE0029FE00DF11D112430E5D39EEC
:1043A000E00DF11D1124EE0FFF1FEC5BFD4F859119
:1043B00094910E94070D8C01882EF701D280958080
:1043C00092945FE0952280910F028770C1F0BD2C1E
:1043D000DD20B1F0812F807F803421F080E2800FDA
:1043E000883068F08091AA0282FD09C082E00E94B4
:1043F000C21380910F028770BB24B3948111B12C3A
:10440000A12EA2943FE0A322FBE0FA1508F452CDBE
:10441000EA2DF0E0E156F34D0C94212C49EC58E1E3
:1044200065ED78E1083C9CE5190709F475CC4AEE86
:1044300058E161EE78E1093C1C4508F46DCC45ED8E
:1044400058E169EC78E168CC0E3CFCE51F0709F403
:1044500075CCB0F443EF58E164E079E10C3C3CE505
:10446000130709F459CC4DEB58E161EB78E10D3CB1
:104470001C4508F451CC44E059E163EF78E14CCCA1
:10448000073DECE51E0708F453CA0E35FDE51F078E
:1044900009F44ECA5BCF1F93CF93DF938091DC0169
:1044A000807FA9F48091D901882389F080910E0240
:1044B000D091DD016091D7017091D801A091DA010E
:1044C000B091DB01C62FC72316E0D81304C0DF91DB
:1044D000CF911F91089590E0109711F0CF3F19F4FC
:1044E00001968770F2CF189F9001199F300D11240B
:1044F000F901E252FE4F41814713F2CF408146134A
:10450000EFCF42814111ECCF438154814A1B5B0BB9
:10451000483C510528F78091DC018F7080618093C1
:10452000DC01F901ED51FE4F80818F708061808345
:1045300087ED91E00E942C1CDF91CF911F910C948C
:10454000910EAF92BF92CF92DF92EF92FF920F93B4
:104550001F93CF93DF93CDB7DEB761970FB6F89473
:10456000DEBF0FBECDBF8C0185E0F801DE011D96D8
:1045700001900D928A95E1F7F801E28087EDA82E6F
:1045800081E0B82E6091DA017091DB01611571054F
:1045900009F432C19091D7014091D801892F842329
:1045A0008F3F09F429C120813181C380D480F090EC
:1045B000D901F601E61BF70BFF2009F4E8C0809152
:1045C000DC01582F507FE83CF10508F0ABC05111D9
:1045D00077C0FE2C431321C092131FC0E1101DC0F1
:1045E0008F7080618093DC01C5010E942C1C80913A
:1045F000DC01F80185838F2D61960FB6F894DEBF3C
:104600000FBECDBFDF91CF911F910F91FF90EF9023
:10461000DF90CF90BF90AF900895CD2829F0822FE2
:1046200083238F3F09F003C180E0F82FF170DF2E64
:1046300080FF3CC080910E024091DD0156E0841362
:1046400015C02D873E878D859E850E94F20E292FED
:1046500022952F702230F0F0243018F59F70F1F081
:10466000F8019581907FD1F4D12C1EC090E0589F25
:10467000F001599FF00D1124E252FE4F6181361373
:1046800006C06081261303C06281E6120FC0019646
:104690008770D5CF9F7011F0882331F3805E88300A
:1046A00018F3C8010E942C1CFD2CA5CFEE2009F4A4
:1046B000A2CF8091DC0181608093DC01F12C9BCF43
:1046C000431306C0921304C0F801EE2009F479C028
:1046D000C8010E94610F882309F1EE20F9F0809152
:1046E000DC01803270F02091D7013091D8013887F9
:1046F0002F831986DB86CA868C87CE0107960E9497
:104700002C1C86E0F801A7EDB1E001900D928A958E
:10471000E1F70E944B22FF24F3946DCFC8010E9461
:104720002C1CF9CF51110AC087ED91E00E942C1C7E
:1047300086E0F50111928A95E9F7C0CF43130FC0C7
:1047400092130DC0E1100BC0F8018583C8010E94CF
:104750002C1C86E0F50111928A95E9F74CCFC8012F
:104760000E94610F8823D1F2EE20C1F28091DC011A
:10477000803238F22091D7013091D8013A832983D1
:104780001B82DD82CC828E83CE010196B8CFE83CBD
:10479000F105F8F6FE2CEE2009F243131FC0921328
:1047A0001DC08091DC0180FD10C0982F907F69F0C2
:1047B000F8018583903F31F0982F907F905F8F7044
:1047C000892B8583C8010E942C1C86E0F801A7ED87
:1047D000B1E001900D928A95E1F70DCFC8010E94DA
:1047E000610F81118ECF8091DC0181608093DC01AB
:1047F000C8010E942C1CFFCEEE2009F48FCFC80107
:104800000E94610FF82E882309F488CF86E0F80112
:10481000A7EDB1E001900D928A95E1F78091D70163
:104820009091D8010E94F20E0E944B22E4CE81E0CA
:104830008E25FBCE1F93CF93DF93CDB7DEB767975F
:104840000FB6F894DEBF0FBECDBF4B8B5C8B6D8B6C
:104850007E8B8F8B6111109211021A8A198A85E062
:10486000FE017396DE011D9601900D928A95E1F787
:1048700086E0FE013D96DE01179601900D928A9525
:10488000E1F7CE0107960E94A122882389F016E065
:1048900080910E029091DD01891349C067960FB691
:1048A000F894DEBF0FBECDBFDF91CF911F91089569
:1048B00086E0FE013796DE01119601900D928A95F1
:1048C000E1F78A859B85892B11F38F819885892350
:1048D0008F3FE9F22091DD0130E0C9010196877038
:1048E000992740910E024817190671F40E94091485
:1048F0001092DD0110920E0286E0E7EDF1E0DF019B
:104900001D928A95E9F7C3CF96E0929FD001939FBD
:10491000B00D1124A252BE4FFE01319601900D92AE
:104920009A95E1F78093DD010E94910EB0CF819FAF
:10493000C001112482529E4F0E94A122882309F4B3
:10494000ADCF80910E0290E00196877099278093F9
:104950000E029ECFCF930E94A00FC82F882309F488
:1049600055C081E080931A020E94BA1B90931902ED
:104970008093180280911802909119020E94AB1B3B
:10498000049708F447C08091EE049091EF0490934F
:104990001D0280931C028091F0049091F104909389
:1049A0001F0280931E028091F2049091F304909371
:1049B0002102809320028091F4049091F504909359
:1049C0002302809322028091F6049091F704909341
:1049D0002502809324028091F8049091F904909329
:1049E0002702809326028091FA049091FB04909311
:1049F0002902809328028091FC049091FD049093F9
:104A00002B0280932A0210921A0204C080911A028B
:104A10008111B0CF8C2FCF9108951F921FB61F9296
:104A200011248F939F93AF93BF938091A402811120
:104A300013C08091A5029091A602A091A702B09107
:104A4000A8024196A11DB11D8093A5029093A602D4
:104A5000A093A702B093A802BF91AF919F918F91AD
:104A60001F901FBE1F901895CDB7DEB760970FB689
:104A7000F894DEBF0FBECDBF84B7877F84BF0FB66B
:104A8000F894A895809160008861809360001092EE
:104A900060000FBE80E890E00FB6F894809361004C
:104AA000909361000FBE85B7806885BF85B7806829
:104AB00085BF8DE390E190938301809382010E94F2
:104AC000DD0A0E94A80B8091E20084608093E200DE
:104AD00078948091D6028823A1F01091E9001F708C
:104AE0009091EC00892F817090FD80E8182B109236
:104AF000E9008091E80083FD0E941E141F7010934E
:104B0000E90082E084BD93E095BD9AEF97BD809364
:104B10006E00ACE6B1E02FE631E061E070E08D912F
:104B2000E82FE295EF70F0E091A18F70AB0101C02A
:104B3000440F8A95EAF7892F842B81A32A173B0714
:104B400071F7AFE6B1E029E731E041E050E08D9147
:104B5000E82FE295EF70F0E011A18F70BA0101C06B
:104B6000660F8A95EAF7962F9095912391A382A1DB
:104B7000862B82A32A173B0751F7EEEEF4E08EEF67
:104B800094E0ACE1B2E0119211921D921D928E1749
:104B90009F07C9F790E080E00E944B2C893E9E4F12
:104BA00011F00E947A1982E090E00E943D2C8093DF
:104BB000A3020E946C199093AA028093A90283E039
:104BC00090E00E943D2C682F70E090E080E00E9411
:104BD000FF1381E08093580280E28093E3020E94F9
:104BE000E62A6DE070E087ED94E00E940312892BC5
:104BF00009F440C18BEB94E00E943B0A80911B02B8
:104C00008111DEC08091A30280FF14C086E296E08D
:104C10009F938F930E94D40A8091A3020F900F90CC
:104C200080FF08C080E196E09F938F930E94D40A92
:104C30000F900F9090E080E00E944B2C893E9E4F99
:104C400081F08091A30280FF08C088EE95E09F93D9
:104C50008F930E94D40A0F900F900E947A190E949D
:104C60005D1988E090E00E94452C60939202709359
:104C7000930280939402909395026E7FD1F4809179
:104C8000A30280FF08C08FE995E09F938F930E9455
:104C9000D40A0F900F900E945D1988E090E00E9466
:104CA000452C6093920270939302809394029093A8
:104CB00095020E94B50C8091A30280FF76C086E821
:104CC00095E09F938F930E94D40A8091A3020F9046
:104CD0000F9080FF6AC08091920281701F928F9323
:104CE00089E695E09F938F930E94D40A8091A30256
:104CF0000F900F900F900F9080FF57C080919202FD
:104D000086951F928F938EE495E09F938F930E94D8
:104D1000D40A8091A3020F900F900F900F9080FF04
:104D200044C0809193021F928F9384E395E09F93F8
:104D30008F930E94D40A8091A3020F900F900F903E
:104D40000F9080FF32C0809194021F928F938AE16E
:104D500095E09F938F930E94D40A8091A3020F90B5
:104D60000F900F900F9080FF20C0809195021F92AE
:104D70008F9380E095E09F938F930E94D40A809157
:104D8000A3020F900F900F900F9080FF0EC08091A4
:104D900096021F928F9384EE94E09F938F930E94CC
:104DA000D40A0F900F900F900F908091920280FF85
:104DB00004C060E086950E94151981E080931B0273
:104DC00053985B9A52985A9A89B183FB882780F945
:104DD0004A999DC090E0892B80932E0280E091E05B
:104DE0009093A00280939F028091D602853079F43F
:104DF0008DE396E00E943B0A00E112E18091D60229
:104E0000853009F486C00E9409140E94A40C0E94F7
:104E1000AA248B8781110E946C0C5BE5452E52E021
:104E2000552E6CE1662E62E0762E10E000E00E87D3
:104E3000D301ED90FD903D01F201A190B1902F01C1
:104E4000AE14BF0409F0A3C00F5F1F4F0830110557
:104E500071F78FEF8E838F8318860E94BA1B816053
:104E6000782F9A8789874E815F8168858A850E941D
:104E70001A24BEC08091580263E070E081FD09C031
:104E800088EB94E00E940312892B61F082E994E0A0
:104E9000B3CE8FE894E00E940312892B19F087E7C4
:104EA00094E0AACE6DE070E08AE694E00E940312DE
:104EB000892B19F083E594E09FCE0E946C0C605A18
:104EC00075418F4F9F4F6093970270939802809324
:104ED000990290939A02E6EEF2E080E092E0DF0120
:104EE0008C011D9201501040E1F7F093ED04E09326
:104EF000EC048FEF9FEF9093E5028093E40281E052
:104F000080939C0280939B021092590277CE92E08C
:104F100062CF8091D602843031F10E943312109218
:104F2000A40228E130E040E40FB6F894A89520935D
:104F300060000FBE4093600083B7817F846083BFB1
:104F400083B7816083BF7894889583B78E7F83BF52
:104F50000FB6F894A89580916000886180936000F6
:104F6000109260000FBE8091D502882309F446CFCD
:104F70000E94AA24ECE1F2E081919191892B09F041
:104F80000FC38CE292E08E179F07B1F737CF809165
:104F9000A30281FDBAC1AE24BF2480E0CC24C39417
:104FA000D12C95012C213D21232B09F4EAC18983C1
:104FB0008E858A83EC20FD2081E0EF2809F480E0D3
:104FC0008B830E94BA1B8160782F9D838C834981DB
:104FD0005A816B818D810E941A24000F111FF801E4
:104FE000E55AFD4F80819181C826D926D182C082A1
:104FF000E0912E02EE0FEE0FE0932E0289B183FBBB
:10500000882780F98C871D864A99C2C180E0AC85CB
:10501000BD858A2BE82BE0932E02EF70F0E0EB5B6E
:10502000FE4F808190912D02890F80932D02D12C0B
:10503000823064F080912C028F5F80932C0264E1B7
:1050400070E08AEA0E948A17DD24D39480912D02B1
:105050008F3F64F480912C02815080932C0264E194
:1050600070E089EA0E948A17DD24D39480912D0292
:10507000082E000C990B62E070E00E940D2C8093CA
:105080002D02D1100E946C0C80919C02882309F49F
:1050900007C186EE92E09093ED048093EC0440917A
:1050A00030025091310260913202709133022FB779
:1050B000F8948091A5029091A602A091A702B091C8
:1050C000A8022FBF841B950BA60BB70B893C91053B
:1050D000A105B10508F444C00E946C0C6093300235
:1050E00070933102809332029093330280912F02A9
:1050F00090E001968170992780932F0221E030E0A3
:10510000F901E81BF90BCF012CE732E0829FF00197
:10511000839FF00D929FF00D1124E859F94F809173
:10512000EC049091ED04865E92409C0124583D4F22
:105130002130324008F42FC120E032E0281B390B27
:105140004091E4025091E502280F391F61E070E0C0
:105150008217930708F422C15093E5024093E402BA
:105160008091E30216E0819FC0011124811522E0A5
:10517000920714F090E080E08A519D4F9093ED04E7
:105180008093EC0480E89BE00E94F51189E79BE0A6
:105190000E94F51183E79BE00E94F51181E79BE0F7
:1051A0000E94F5114091340250913502609136020F
:1051B00070913702CB01AA27BB270097A105B10543
:1051C00009F406C1AC01BD0180E1052F162F272F80
:1051D0003327011511052105310519F0885FB90143
:1051E000A8018A019B01A4E036952795179507959C
:1051F000AA95D1F7011511052105310519F08C5F2C
:10520000B901A8018A019B01F2E03695279517950F
:105210000795FA95D1F7011511052105310519F00A
:105220008E5FB901A8017695679557954795452BEF
:10523000462B472B09F08F5F813009F4D0C08823BB
:1052400009F4C8C0823009F4CDC080919C02882343
:1052500071F02091E4023091E5022115310539F019
:105260008091590261E070E0882309F4BFC0809109
:105270009B028823A9F00E946C0C00919702109168
:1052800098022091990230919A02601B710B820B57
:10529000930B6F3F7F4F8F4F9F4710F40E94331245
:1052A0000B85011101C0D1100E9452120E94A40C62
:1052B00090915A02891709F497CD0E94A40C182FD7
:1052C00080935A028091A30282FF8ECD80FF8CCD05
:1052D00084EE9BE00E943B0A8091A30280FF84CD74
:1052E0001F921F938FED9BE09F938F930E94D40A90
:1052F0008091A3020F900F900F900F9080FF74CDBC
:105300008DED9BE00E943B0A6FCD81E596E00E9407
:105310003B0A3CE1832E32E0932ED12CC12CDF924C
:10532000CF922CE436E03F932F930E94D40A89E475
:1053300096E00E943B0AD4018C9111962C90B2E029
:105340008B0E911C0E94880F382E822D0E94880F90
:105350003F928F93E3E4F6E0FF93EF930E94D40A29
:1053600081E496E00E943B0A3FEFC31AD30A0FB6CE
:10537000F894DEBF0FBECDBF58E0C516D10479F654
:105380000ACE8F5FCC0CDD1C8A3009F00ACE5CCDD2
:1053900082E090E03CCE2CE732E0D2CE1491DC01EA
:1053A000AA51BD4F0C91101781F01C93DC0105E050
:1053B000B695A7950A95E1F78B0102C0000F111F62
:1053C000AA95E2F7D801402B5B2B01963196C0CE0F
:1053D00080E0FBCE8BE69BE00E94F51136CF85E6A0
:1053E0009BE0FACF80E69BE0F7CF8F5F082F10E0BD
:1053F0007B01082E02C0EE0CFF1C0A94E2F7A90103
:105400004E215F21452B89F39091580290FD21C0D8
:105410008295880F807680930E01980136952795A6
:105420003695279520931101815E80930F0110928C
:10543000120124E630E047E050E06CE071E088E7DC
:105440000E94952B892B99F08AEB9BE00E943B0AE6
:105450000ECF880F880F880F80930E0110921101D4
:10546000895F80930F0183E080931201E2CFA8014E
:1054700025E0440F551F2A95E1F78091580280FDE1
:1054800010C04A515D4F04E610E020E230E060E4D5
:1054900088E70E94BC2B892B09F473C081EA9BE04A
:1054A000D5CFE8E3F2E080E2DF011D928A95E9F7CB
:1054B000E9E5F1E0F88BEF8705E511E08DE5282EB1
:1054C00081E0382E97E0B92EAA24A394AF85B8893D
:1054D0002D91B88BAF87F80141908F01440E552E66
:1054E000511CC2018A519D4F2C01E22FF0E0E85C73
:1054F000FD4F30E020E08B2C821ACA2C022E01C016
:10550000CC0C0A94EAF7320190E0D3018D913D0171
:105510008C21682D691B6770962E062E000C770B68
:10552000B82F01C0BB0F9A94EAF79B2E7195619535
:1055300071096770772701C086956A95EAF7982AFE
:105540008081982A90829F5F9830F9F62F5F3F4FB5
:1055500031962830310579F6EF85F8892E163F0609
:1055600009F0B4CF04E610E020E230E048E352E076
:1055700060E488E70E94BC2B892B19F086E89BE049
:1055800065CF0E945212E094F0948091E4029091D1
:10559000E502E822F922F092E502E092E40267CE09
:1055A00009BD19BD09B400FEFDCF8091D8008F7DE3
:1055B0008093D8008091E00082608093E000809129
:1055C000E00081FDFCCF0E94091418CC1092B900B4
:1055D0008CE08093B80008959F92AF92BF92CF92D3
:1055E000DF92EF92FF920F931F93CF93DF93B82E2A
:1055F000EB010E94BA1B6C01EE24E394F12CC43140
:10560000D10560F025E0E22EF12CCF3FDC0731F030
:10561000CE0164E170E00E94ED2B7B0184EAA82EAC
:1056200094E8992E1092BC00A092BC000E94BA1B74
:105630008C018091BC0087FF0DC08091B900887FEC
:10564000883039F18091B900887F803111F10FEFF6
:105650001FEF09C00E94BA1B801B910B8E159F057E
:1056600040F30EEF1FEFCF3FDC07E1F2C6010E94CF
:10567000AB1B8C179D07B0F2C801DF91CF911F9132
:105680000F91FF90EF90DF90CF90BF90AF909F90E1
:105690000895B092BB009092BC000E94BA1B8C018E
:1056A0008091BC0087FF0AC08091B900887F883153
:1056B00011F0803461F610E000E0DECF0E94BA1BEA
:1056C000801B910B8E159F0558F3CBCF0F931F9323
:1056D000CF93DF93EB018093BB0084E88093BC0001
:1056E0000E94BA1B8C018091BC0087FF11C02091E1
:1056F000B900287F81E090E0283211F490E080E04A
:10570000919581959109DF91CF911F910F91089506
:10571000CF3FDC0741F30E94BA1B801B910B8C1713
:105720009D0708F38EEF9FEFEECFCF92DF92EF92BF
:10573000FF920F931F93CF93DF936B018A0179013F
:10574000B9010E94EC2AE6010C0D1D1DC017D107FE
:1057500061F424E92093BC00DF91CF911F910F9158
:10576000FF90EF90DF90CF90089597FDF2CFB701B3
:1057700089910E94662BEACFCF92DF92EF92FF923F
:105780000F931F93CF93DF93C62F6A017901B8015E
:105790000E94EC2A97FD0CC0B8018C2F0E94662B4A
:1057A000E601EC0CFD1CCE15DF0511F097FF0CC0D7
:1057B00024E92093BC00DF91CF911F910F91FF90BE
:1057C000EF90DF90CF900895B80189910E94662BE9
:1057D000EACF84E98093BC000895AA1BBB1B51E16A
:1057E00007C0AA1FBB1FA617B70710F0A61BB70B51
:1057F000881F991F5A95A9F780959095BC01CD01F6
:105800000895991B79E004C0991F961708F0961B1C
:10581000881F7A95C9F78095089597FB072E16F48F
:10582000009407D077FD09D00E94ED2B07FC05D02E
:105830003EF4909581959F4F0895709561957F4FA7
:105840000895EE0FFF1F0590F491E02D0994FB01E0
:10585000DC0102C005900D9241505040D8F70895E8
:10586000FB01DC0104C08D910190801921F44150AD
:105870005040C8F7881B990B0895F999FECF92BD47
:1058800081BDF89A992780B50895A6E1B0E044E07B
:1058900050E00C94772CA8E1B0E042E050E00C948A
:1058A000772C262FF999FECF92BD81BDF89A0197EA
:1058B00000B4021639F01FBA20BD0FB6F894FA9A58
:1058C000F99A0FBE08950396272F0E94522C0E942A
:1058D000512C252F0E94522C242F0C94522C0196CF
:1058E000272F0E94522C0C94512CDC01CB01FC017F
:1058F000F999FECF06C0F2BDE1BDF89A319600B429
:105900000D9241505040B8F70895F894FFCF730FAF
:10591000730F7C0F7C0F7E0F7C0F7C0F7C0F730F3F
:10592000730F830F7C0F7C0F830F02152A15C81687
:105930002A15C8165D157E15C8167C168916F21E26
:10594000F21E2B1F2B1FE21F5A1F5A1F5A1FFC1F2C
:06595000D220E120E1205D
:10595600690CD210680CCE10CA10670C0021007FAB
:1059660022000301818283E200E900EA00B500B665
:1059760000B700CD008301CC008A01920194012179
:1059860002230224022502260227022A02B300B4B9
:10599600006F00700000FF0100010000FFFF000023
:1059A600010001FF000008101818100800406D22C1
:1059B6003B01CE00AC000C0E250E3E0EC634353231
:1059C60036976694F53331F7F604000203010507AE
:0259D6000600C9
:00000001FF
