:100000000C942C040C9473040C9473040C947304DB
:100010000C9473040C9473040C9473040C94730484
:100020000C9473040C9473040C94C41C0C94801CE6
:100030000C94171E0C9473040C9473040C947304A6
:100040000C9473040C9473040C9473040C94730454
:100050000C9473040C94F31D0C9473040C947304AB
:100060000C9473040C9473040C9473040C94730434
:100070000C9473040C9473040C9473040C94730424
:100080000C9473040C9473040C9473040C94730414
:100090000C9473040C9473040C9473040C94730404
:1000A0000C9473040C9473040C9473040631FF09CC
:1000B00074A1010975150026FF00952075088102BD
:1000C0000976150026FF00952075089102C00501EC
:1000D0000980A101850319012AB700150126B7007F
:1000E000950175108100C0050C0901A10185041955
:1000F000012AA002150126A002950175108100C0F9
:1001000005010906A1018506050719E029E7150083
:1001100025019508750181020507190029EF1500D1
:10012000250195F07501810205081901290595053C
:1001300075019102950175039101C005010906A1A0
:1001400001050719E029E7150025019508750181CA
:10015000029501750881010507190029FF15002680
:10016000FF00950675088100050819012905950508
:1001700075019102950175039101C07267626C6906
:100180006768742064697361626C65205B454550E3
:10019000524F4D5D3A207267626C696768745F63A5
:1001A0006F6E6669672E656E61626C65203D202505
:1001B000750A007267626C6967687420656E6162B7
:1001C0006C65205B454550524F4D5D3A2072676229
:1001D0006C696768745F636F6E6669672E656E61D0
:1001E000626C65203D2025750A007267626C696744
:1001F000687420746F67676C65205B454550524F8B
:100200004D5D3A207267626C696768745F636F6EF8
:100210006669672E656E61626C65203D2025750AF2
:100220000044454255473A2064697361626C6564D5
:100230002E0A0044454255473A20656E61626C655E
:10024000642E0A0022001500090019000151270040
:1002500012000F003600E60021000800070006002B
:10026000E20026000C000E00100002510000000009
:100270000000000000002A0031022800E5004F00C5
:10028000230017000A0005002C0024001C000B00AE
:10029000050000002900A800000000000000000088
:1002A000300000005200510020001A0016001B0010
:1002B0000000250018000D0011002C001E002B006E
:1002C0003900E100E0002E002F003400380050001B
:1002D0001F00140004001D00E3002D001300330074
:1002E00037000000010001000100010001000100D1
:1002F00001000100010001000100010001000100F6
:1003000001000100010001000100010000000000E7
:1003100000000000000001000100010001004D008C
:1003200001000100010001000100010001000100C5
:1003300001000000010001000000000000000000BA
:10034000010000004B004E0001000100010001000F
:100350000000010001000100010001000100010096
:1003600001000100010001000100010001004A003C
:100370000100010001000100010001000100010075
:100380000100000001000100010001000100010066
:100390000100C75C01000100010001000100010033
:1003A0000100010001000100010001000000000047
:1003B0000000000000000100010001000100010038
:1003C0000100010001000100010001000100010025
:1003D00001000000005C01000000000000000000BF
:1003E000CA5C0000010001000100010001000100E1
:1003F00000000100010001000100010001000100F6
:10040000010001000100C45CC85CCB5C010001007C
:1004100001000100010001000100C35CC65CC95C71
:10042000010000004F6E6573686F743A2061637459
:100430006976653A2025640A000A00253032582082
:10044000006B6579626F6172645F7265706F727460
:100450003A20007267626C696768745F636F6E66EA
:1004600069672E7370656564203D2025640A0072FB
:1004700067626C696768745F636F6E6669672E7622
:10048000616C203D2025640A007267626C696768B0
:10049000745F636F6E6669672E736174203D2025FB
:1004A000640A007267626C696768745F636F6E6686
:1004B00069672E687565203D2025640A00726768AB
:1004C0006C696768745F636F6E6669672E6D6F64D1
:1004D00065203D2025640A007267626C6967687454
:1004E0005F636F6E6669672E656E61626C65203D45
:1004F0002025640A007267626C696768745F636FC5
:100500006E66696720454550524F4D3A0A00726742
:10051000626C696768745F696E6974207267626C87
:10052000696768745F636F6E6669672E6D6F646577
:10053000203D20302E205772697465206465666105
:10054000756C742076616C75657320746F204545F9
:1005500050524F4D2E0A007267626C696768745F73
:10056000696E6974206565636F6E6669672069737B
:10057000206E6F7420656E61626C65642E0A007275
:1005800067626C696768745F696E6974207374610F
:100590007274210A007267626C696768745F696EC1
:1005A00069742063616C6C65642E0A005B735D0086
:1005B0000A002530313662003A20002530325800DA
:1005C0000A722F63203031323334353637383941AF
:1005D00042434445460A000A0025303258006B6504
:1005E00079626F6172645F7365745F6C65643A20F1
:1005F000007267626C69676874206D6F6465205B68
:100600004E4F454550524F4D5D3A2025750A0072B8
:1006100067626C69676874206D6F6465205B45452F
:1006200050524F4D5D3A2025750A0000010101012D
:10063000010101010102020202020202020203039D
:10064000030303030303040404040404040505056D
:10065000050506060606060707070707080808082F
:10066000090909090A0A0A0B0B0B0C0C0C0D0D0DDC
:100670000E0E0E0F0F0F1010111111121213131472
:1006800014151516161717181819191A1A1B1B1CEA
:100690001D1D1E1E1F202021222223242425262644
:1006A000272829292A2B2C2D2D2E2F303132323379
:1006B0003435363738393A3B3C3D3E3F4041424382
:1006C0004445464748494A4C4D4E4F505153545566
:1006D0005658595A5B5D5E5F616264656668696B16
:1006E0006C6D6F7072737577787A7B7D7E80828394
:1006F0008587888A8C8E8F91939596989A9C9EA0D8
:10070000A2A3A5A7A9ABADAFB1B3B5B7BABCBEC0E4
:10071000C2C4C6C9CBCDCFD1D4D6D8DBDDDFE2E4AD
:10072000E7E9EBEEF0F3F5F8FAFDFF7267626C694A
:100730006768742073657420687376205B4E4F453C
:100740004550524F4D5D3A2025752C25752C257549
:100750000A007267626C6967687420736574206848
:100760007376205B454550524F4D5D3A2025752CE0
:1007700025752C25750A006164645F6B65795F627D
:1007800069743A2063616E2774206164643A20259D
:100790003032580A0064656C5F6B65795F6269741A
:1007A0003A2063616E27742064656C3A20253032EC
:1007B000580A005B435D005B445D005B535D005B7A
:1007C000575D005B525D0009025B00030100A0FA67
:1007D00009040000010301010009211101000122A7
:1007E00040000705810308000A0904010001030015
:1007F0000000092111010001226D0007058203207C
:10080000000A09040200020300000009211101008E
:1008100001222200070583032000010705030320AE
:100820000001120100020000000842446364FCFF62
:100830000102000108036F0077006C000000140340
:1008400064006F006F00640062006F00610072005E
:10085000640000000403090411241FBECFEFDAE096
:10086000DEBFCDBF04B603FE27C08091B6029091D3
:10087000B702A091B802B091B9028730904BA7405F
:10088000B04BD1F41092B6021092B7021092B80297
:100890001092B90214BE84B7877F84BF0FB6F89454
:1008A000A89580916000886180936000109260003C
:1008B0000FBEE0E0F8E3099511E0A0E0B1E0E6E565
:1008C000F4E402C005900D92A237B107D9F722E0F7
:1008D000A2E7B1E001C01D92A63BB207E1F70E947A
:1008E0003E1E0C9405220C940000FF93EF93E091C0
:1008F0007201F0917301309709F00995EF91FF9122
:100900000895FC018591803011F0EFDFFBCF089551
:10091000FF27E0E230E247FF0CC0419597FF09C096
:10092000EDE26095709580959095611D711D811D1A
:10093000911D27FF02C0219530E350E2AA27660FE0
:10094000771F881F991FAA1FA41710F0A41B639577
:100950005A95A9F7AA3008F0A95FA05DAF93F39567
:10096000611571058105910541F7ED3211F4EF93A1
:10097000F395F21718F43F93F395FBCF8F91B5DF02
:10098000FA95E1F70895E991F9918591803021F088
:10099000853219F0AADFF9CF089520E0E894559147
:1009A0005532C1F3503311F4689455915A3348F4D9
:1009B000505390F3220F022E220F220F200D250FED
:1009C000F4CF0EF4219589919991533619F3533749
:1009D00029F1533559F1BC0188279927E8945C36F1
:1009E00021F48991999168945591543639F446EFE0
:1009F0007EF077FF0DC08FEF9FEF0AC055374AE0BA
:100A000039F0583540E121F0523642E009F00895BE
:100A1000FF93EF937DDFEF91FF91B7CFFF93EF93BC
:100A2000FC0181918030B9F360DFFBCFFF93EF933E
:100A300068DFF1CFDF93CF93CDB7DEB72596A3DF85
:100A4000CF91DF910895E8EDF0E080818E7F808383
:100A50001092E2001092DA001092E100A0EEB0E0F5
:100A60008C9181608C9380818F77808319BCA7EDF6
:100A7000B0E08C918E7F8C9380818F7E80831092EA
:100A8000700208952091E4003091E50095E6A901F7
:100A90002091EC00822F817020FF06C08091E80039
:100AA00080FF06C080E008952091E80022FD1AC072
:100AB00080919502882389F0853089F08091EB0040
:100AC00085FD0FC02091E4003091E50042175307E7
:100AD000F9F29150E1F684E0089582E0089583E010
:100AE000089581E00895EF92FF920F931F93CF93A3
:100AF0007C018B010E944205C82F811117C0809193
:100B0000E80085FD0BC08091E8008E778093E800B7
:100B10000E944205882399F3C82F08C0F7018191EC
:100B20007F018093F1000150110949F78C2FCF917B
:100B30001F910F91FF90EF9008958091970287FF8A
:100B400013C08091E80082FF06C08091E8008B7797
:100B50008093E80004C0809195028111F2CF08953E
:100B6000809195028823D9F38091E80080FFF8CF27
:100B70008091E8008E77ECCF982F9093E900242F96
:100B8000762F50E0891731F07091EC002091ED0044
:100B90005091F00021FD07C09F5F973071F780935F
:100BA000E90081E008953091EB003E7F3093EB0047
:100BB0003091ED003D7F3093ED003091EB003160DE
:100BC0003093EB007093EC002093ED005093F00015
:100BD0002091EE0027FDE0CF80E00895CF92DF92D4
:100BE000EF92FF920F931F93CF93DF93C8EDD0E066
:100BF00088818F7E8883E7EDF0E08081816080834B
:100C000084E082BF81E08093700288818E7F888338
:100C100002EE10E0F80110821092DA0081EEC82E88
:100C2000D12CF601108288818F7788838881806833
:100C3000888388818F7D888319BC109295021092D9
:100C40009602109294021092930290EEE92EF12CEB
:100C5000F70180818B7F808388818160888342E077
:100C600060E080E00E94BC05F60180818E7F808379
:100C7000F801808181608083808188608083F701B2
:100C800080818E7F8083888180618883DF91CF918E
:100C90001F910F91FF90EF90DF90CF900895FC018E
:100CA00080919D0290919E0286179707A0F0611592
:100CB000710529F49091E8009E779093E80090E008
:100CC0006115710551F4911108C08091E80082FF0F
:100CD00034C080E00895BC01F2CF80919502882352
:100CE000C1F18530C1F18091E80083FD30C0809171
:100CF000E80082FDEACF8091E80080FFE1CF80919B
:100D0000F3002091F200382F6115710519F0283099
:100D1000310558F091E02830310509F090E020913C
:100D2000E8002E772093E800CBCF81918093F100EB
:100D3000615071092F5F3F4FE7CF80919502882363
:100D400041F0853041F08091E80083FFBECF81E023
:100D5000089582E0089583E00895089508958091AC
:100D6000720208952FB7F89480919F029091A0028B
:100D7000A091A102B091A2022FBF08952091640218
:100D8000309165022817390771F0909365028093BE
:100D90006402E0916202F0916302309721F00084D6
:100DA000F185E02D0994089520916002309161024F
:100DB0002817390771F09093610280936002E091E7
:100DC0006202F0916302309721F00680F781E02DF6
:100DD00009940895E0916202F0916302309721F046
:100DE0000190F081E02D099480E00895FA018111CD
:100DF00001C0FB01099480915B02982F9E7F39F41A
:100E000080915B028170826080935B0208958430E0
:100E1000B8F708959091680292FF06C0282F2871B4
:100E20002830F9F4877F846093FF06C0282F28714B
:100E30002831F1F4877E84612091690220FF06C089
:100E4000382F38713830D9F4877F816021FF06C090
:100E5000282F28712831D1F4877E816194FD877E07
:100E60000895282F24712430F9F68B7F8860DCCF19
:100E7000282F2471243101F78B7E8861DDCF382F34
:100E80003171313019F78E7F8860E0CF282F2171C2
:100E9000213121F78E7E8861E1CFCF93DF93EC0182
:100EA00082389105A9F1D8F58133910509F496C0EE
:100EB00048F58932910509F48AC08A9709F495C0EA
:100EC000C11522E5D20708F0B6C0C11531E5D30738
:100ED00008F026C1C83ED10508F09CC0C03ED1052F
:100EE00060F5C83AD10508F087C0C53AD10508F0C9
:100EF000EFC0C130D10509F12097F9F0C430D10518
:100F0000E0F440C08533910509F45AC0C997C1F691
:100F100080916802837089F0C0EED0E00EC0833EFD
:100F2000910599F170F4803E910501F1823E9105A1
:100F300039F68091680282FD21C0CE01DF91CF9108
:100F40000895863E910561F1873E910571F1843ED9
:100F5000910509F0B5CF8091690281FFEECF8091B4
:100F60006802C7EED0E084FD0DC0E7CF8091680233
:100F700080FD07C19091690290FFDFCFC3EED0E002
:100F800084FFDBCFD0E0C0E0D8CF8091680282FD43
:100F9000FBC09091690290FDBFCF84FFCECFF2CF0E
:100FA0008091680283FDDDCFC8CF8091680283FD08
:100FB000EEC09091690291FFF0CFC4EED0E0BDCFBA
:100FC0008091680285FFB9CFC9E2D0E0B6CF8091A9
:100FD000680285FFB2CFC5E3D0E0AFCF8091680251
:100FE00086FFABCFCAE2D0E0A8CF8091680286FF2F
:100FF000A4CFC1E3D0E0A1CFCF3BD10518F6C85AAA
:10100000D0E0CC0FDD1FC05FDE4F0990D881C02D2E
:10101000D46493CFC11540E5D40708F064C0C1156E
:1010200080E4D80708F05CC0CE019A9581159F41F5
:1010300008F483CFA7CFC11536E5D30718F5C1153E
:1010400045E5D40708F084C0C11584E5D80708F049
:101050007AC09C2F969596959E0123703327C115D3
:10106000D34508F462C0C1E0D0E002C0CC0FDD1F60
:101070002A95E2F730E2939FC0011124C82BD92BA7
:10108000DA685BCFC1158AE5D80778F4C11599E510
:10109000D90708F068C0C11528E5D20708F472CF57
:1010A000DC2FCC27C06FD06A48CFCE019056811577
:1010B000904208F067CF8D2F8F710E940A0790E051
:1010C000982F882788279F719C012C2BE90149C004
:1010D000C55AD0E0C35FDE4FC881D0E0D0642DCFC9
:1010E000DF70D06A2ACFCE01E4E096958795EA9525
:1010F000E1F783702C2F26952695237040E2249FDC
:1011000090011124382B8C2F8370C1E0D0E002C0F5
:10111000CC0FDD1F8A95E2F7C22BD32BDC680DCFF5
:10112000DC2FCC27C16FD06A08CFC1E0D0E002C06D
:10113000CC0FDD1F2A95E2F720E2929FC001112417
:10114000C82BD92BEBCFDC2FCC27C46FD06AF5CEC0
:101150008C2F0E940A07C82FD0E0DC2FCC27CC2789
:10116000DF71D062EACE8C2F8F700E940A0734E0C4
:10117000D695C7953A95E1F7CF709C2FEC01D069D1
:10118000DCCEC9E3D0E0D9CEC2EED0E0D6CEC6EEFA
:10119000D0E0D3CE80910302811110920302089512
:1011A0008095909102029823909302020895809175
:1011B000FE019091CD01981301C008958F5F877053
:1011C000FACFAF92BF92CF92DF92EF92FF920F933E
:1011D0001F93CF93DF93C0900B02D0900C02E0904E
:1011E0000D02F0900E0240910402509105026091B0
:1011F000060270910702C42AD52AE62AF72ACFE10F
:10120000D0E0082F10E02AE0929F000D111D11245C
:1012100090E5A92EBC2ED701C6010C2E04C0B695B0
:10122000A795979587950A94D2F780FD0FC02197CF
:1012300088F7B12C8B2DDF91CF911F910F91FF90EB
:10124000EF90DF90CF90BF90AF900895AC9EF001EB
:10125000AD9EF00D1124E00FF11FEE0FFF1FEC5BB0
:10126000FD4F859194910E944D07019701F3E2CFC4
:10127000CF93DF93EC010E94E108EC2FF0E09AE0BD
:10128000D99FE00DF11D112490E5899FE00DF11D1E
:101290001124EE0FFF1FEC5BFD4F85919491DF91C0
:1012A000CF910C944D072AE0929F800D1124982F26
:1012B000977086958695869525E0829FF00111248A
:1012C000EB56FE4F50E040E080E0219130E0092EE7
:1012D00002C0369527950A94E2F721703327042E31
:1012E00001C0220F0A94EAF7822B4F5F5F4F45300F
:1012F000510559F708952AE0929F800D1124982FE7
:10130000977041E001C0440F9A95EAF7869586955B
:10131000869595E0899FF0011124EB56FE4F90E0F1
:1013200080E070E05191DF0111979B01082E02C00F
:10133000369527950A94E2F72170219525272423D5
:1013400025272C9301968530910561F70895FC01BE
:10135000808191810E943809292F2F7092959F706A
:1013600092509E3078F4E92FF0E0E95FFD4D0C9447
:10137000B721803F19F020F4883E20F481E00895E1
:10138000843FE1F380E00895883EC0F3813FD1F7C8
:10139000F5CF822F8695869586950895829590E063
:1013A0009C01220F331F220F331F2C7C95958795AC
:1013B000959587958373282B30E0C901880F991F75
:1013C0008A7A359527952575822B08952F923F921D
:1013D0004F925F926F927F928F929F92AF92BF9245
:1013E000CF92DF92EF92FF920F931F93CF93DF93F1
:1013F000AAE6B1E032E7432E31E0532E80E06624C6
:101400006394712C812C912C54018394ED916DE5A2
:1014100071E042E050E0F0E0EB019991BE01C92F8C
:10142000C295CF70D0E09F70930101C0220F9A95B2
:10143000EAF78F01042E02C0159507950A94E2F78A
:101440009AA100FF58C0292B2AA34150510920F727
:1014500090E59A95F1F7EE0FFF1FEA55FD4FE080FA
:10146000F18020E6222E21E0322E30E020E0E10162
:1014700099911E01492F42954F7050E0EA01C8A092
:10148000B501A401022E04C0440F551F661F771F2B
:101490000A94D2F700811181D12C9F7002C0D5949B
:1014A000C7949A95E2F7C0FC29C0402B512B518379
:1014B00040832F5F3F4F2A303105C9F620813181AB
:1014C000E216F30609F081E04A165B0609F09ECFAA
:1014D000DF91CF911F910F91FF90EF90DF90CF9010
:1014E000BF90AF909F908F907F906F905F904F9044
:1014F0003F902F90089520952923A6CF4095509591
:1015000040235123D4CFCF930E94E609C82F8823CC
:1015100009F460C081E080930A020E94B2069093B1
:1015200009028093080220910802309109024FB706
:10153000F89480919F029091A002A091A102B09195
:10154000A2024FBF821B930B049708F447C08091FF
:10155000A6029091A70290931102809310028091AD
:10156000A8029091A9029093130280931202809195
:10157000AA029091AB02909315028093140280917D
:10158000AC029091AD029093170280931602809165
:10159000AE029091AF02909319028093180280914D
:1015A000B0029091B10290931B0280931A02809135
:1015B000B2029091B30290931D0280931C0280911D
:1015C000B4029091B50290931F0280931E02109274
:1015D0000A0204C080910A028111A5CF8C2FCF91FD
:1015E00008959FB7F89410926E029FBF9091950254
:1015F000943009F048C02091E9002F703091EC0040
:10160000932F917030FD90E8922B23E02093E90016
:101610002091EB0020FF34C02091EE0027FF30C066
:1016200020916D02222321F02091E80025FF28C09F
:1016300010926D0226E03091E80035FF14C08093CF
:10164000F1008091E80085FD27C08091E80080FFCF
:10165000FCCF8091E8008E778093E8009F70909394
:10166000E90080E0089530919502343049F43091DA
:10167000EB0035FD05C0215041F481E080936D02FF
:101680009F709093E9008FEF0895EFE9FFE03197A5
:10169000F1F700C00000CFCF8FB7F89421E020937E
:1016A0006E028FBFDBCF80936A0270936C026093EF
:1016B0006B0280919502843001F582E08093E9000D
:1016C0008FEF9091E800815095FD06C095ED9A95B9
:1016D000F1F700008111F5CF8091E80085FF0DC082
:1016E00050E040E063E070E08AE692E00E9473051B
:1016F0008091E8008E778093E8000895BC0184E033
:101700000C94530BBC0183E00C94530BCF93DF93E9
:10171000EC0180910C018823B1F18091680287FF70
:1017200032C060E282E08093E9008FEF9091E800A0
:10173000815095FD06C095ED9A95F1F70000811155
:10174000F5CF8091E80085FF1BC080910C0170E00F
:1017500050E040E0811104C050E040E068E070E0FB
:10176000CE010E9473058091E8008E778093E80097
:1017700080E2FE01A3E7B2E001900D928A95E1F7C5
:10178000DF91CF91089568E081E0CDCF80915B0239
:1017900080FD0AC0E4E3F2E01182108212823396E7
:1017A00052E0EB35F507C1F7849A31B33F7E21B3A0
:1017B00020614FB7F89484E392E0FC015191CF018E
:1017C00068E021BB000000C057FF31BB550F00008F
:1017D00000C000C000C031BB00C06A9591F7F2E0C4
:1017E0008B359F0751F74FBF8FE594E00197F1F7D5
:1017F00000C00000089520910C01222351F1209196
:10180000680227FF26C0E62FE695E695E695EE31BD
:1018100078F4E80FF92FF11D677021E030E001C086
:10182000220F6A95EAF72095828128232283089562
:101830008091660280FF19C01F926F9385E997E03F
:101840009F938F930E941A050F900F900F900F9007
:101850000895FC01329608962191621303C0DF01BE
:1018600011971C92E817F907B9F7089520910C0118
:10187000222349F12091680227FF25C0E62FE69533
:10188000E695E695EE3170F4E80FF92FF11D6770DB
:1018900021E030E001C0220F6A95EAF78281822BB5
:1018A000828308958091660280FF1EC01F926F930D
:1018B00087E797E09F938F930E941A050F900F90F0
:1018C0000F900F900895FC0132962FEF30E0419178
:1018D000641751F02F3F19F4411101C0232F3F5FCE
:1018E0003630A9F72F3F09F40895820F911D27FD87
:1018F0009A95FC0162830895EF92FF920F931F93D4
:10190000CF93DF938091020290910102892B9091F5
:101910000002892B80937401909103029923B1F006
:10192000892B8093740180910C01882309F45DC098
:101930008091680287FF59C08EE1E6E7F1E090E010
:10194000815008F054C091110E94CA08E0916202CF
:10195000F0916302309709F450C080910C01882304
:1019600059F08091680287FF07C0809174018093CD
:10197000750186E0809374010280F381E02D84E795
:1019800091E009958091660282FF37C080FF04C014
:1019900081E494E00E948104C4E7D1E08CE7E82E62
:1019A00081E0F82E0BE314E08091660280FF0BC00B
:1019B00088811F928F931F930F930E941A050F9097
:1019C0000F900F900F902196EC16FD0669F780910D
:1019D000660280FF12C089E394E0DF91CF911F91EE
:1019E0000F91FF90EF900C94810486E0A6CF219197
:1019F000222309F4A5CF9F5FA3CFDF91CF911F9141
:101A00000F91FF90EF90089590E080E00E94D4063F
:101A100090E080E00E94BE06109201021092000247
:101A20000C947C0C60930B0270930C0280930D025B
:101A300090930E020C94040D0F931F9341E050E01D
:101A400060E070E004C0440F551F661F771F8A9541
:101A5000D2F7CB01BA016095709580959095009171
:101A60000B0210910C0220910D0230910E026023A6
:101A70007123822393231F910F910C94120D909147
:101A8000FF01809589238093FF01282F277091F40F
:101A9000282F082E000C330B9217130659F0909143
:101AA000690292FD07C08595859585950E941C0D5C
:101AB0001092FF0108950F931F9341E050E060E002
:101AC00070E004C0440F551F661F771F8A95D2F738
:101AD00080910B0290910C02A0910D02B0910E0228
:101AE0008A019B01082B192B2A2B3B2BC901B8011A
:101AF0001F910F910C94120D6093040270930502D4
:101B000080930602909307020C94040D882321F021
:101B10000E94D0080C947C0C0895882339F0909191
:101B20000202982B909302020C947C0C0895882357
:101B300041F19CEF980F913A38F4682F84E791E0D7
:101B40000E94FB0B0C947C0C90E2980F983050F4A0
:101B5000877091E001C0990F8A95EAF7892F0E945A
:101B6000D008F0CF9BE5980F933020F490E080E010
:101B70000C94D406885A873120F490E080E00C94CD
:101B8000BE060895CF93C82F882309F467C08CEF51
:101B90008C0F813AC0F580910C01882311F180915E
:101BA000680287FF1EC0EC2FE695E695E695F0E00B
:101BB000EC58FE4F828190E04C2F477021E030E0DE
:101BC00002C0220F331F4A95E2F782239323892B09
:101BD00091F06C2F84E791E00E94FB0B0E947C0C3B
:101BE0000AC0E6E7F1E08CE791E02191C21789F3A2
:101BF0008E179F07D1F76C2F84E791E00E94360C77
:101C0000CF910C947C0C80E28C0F883068F4C77004
:101C100021E030E001C0220FCA95EAF7809102026C
:101C2000822B80930202ECCFEBE5EC0FE33040F423
:101C3000F0E0E35FFE4F808190E0CF910C94D406FA
:101C4000C85AC73158F4EC2FF0E0EE0FFF1FE05FE9
:101C5000FE4F80819181CF910C94BE06CF91089563
:101C60001F93CF93DF93182FEB010E94C20D8FE9D2
:101C70009FE00197F1F700C000002197C1F7812F85
:101C8000DF91CF911F910C94970D0F931F93CF93DA
:101C9000DF93C62FD42F022FFC0182818823A1F06D
:101CA0006093A5020E94B2069093A4028093A302BF
:101CB000C77081E001C0880FCA95EAF7DF91CF9124
:101CC0001F910F910C948D0D8091A502681342C055
:101CD0002091A3023091A4024FB7F89480919F0203
:101CE0009091A002A091A102B091A2024FBF821BCD
:101CF000930B883C910570F510E21D0F6D17B9F03C
:101D000080E2860F883040F4C77081E001C0880F00
:101D1000CA95EAF70E94860D183048F481E09D2F9D
:101D2000977001C0880F9A95EAF70E948D0D64E1C3
:101D300070E0802F0E94300E183098F4D77081E048
:101D400001C0880FDA95EAF7DF91CF911F910F91CB
:101D50000C94860DC77081E001C0880FCA95EAF720
:101D6000F3CFDF91CF911F910F910895CF92DF9222
:101D7000EF92FF926B017C010E94FB06B701A60166
:101D800088E090E0FF90EF90DF90CF900C94E321FB
:101D90008F929F92AF92BF92CF92DF92EF92FF927B
:101DA0000F931F93CF93DF93D82FC62F142F822E1C
:101DB00000915B0200FF51C0802F8E7F8230E1F4E2
:101DC000E42FF0E0E55DF94F611154C02491F22F4A
:101DD000E22F00FF11C0A4E3B2E08BE592E0119680
:101DE000EC9311972C931296FC93129713968A17E3
:101DF0009B07A9F70E94C60BD0935C02C0935D02BB
:101E000010935E02882009F4AAC060915B02709171
:101E10005C0280915D0290915E020E94B60E8091FC
:101E2000660280FF1AC080915E021F928F9380919C
:101E30005D021F928F9380915C021F928F9382E5C7
:101E400097E09F938F930E941A058DB79EB70896CF
:101E50000FB6F8949EBF0FBE8DBFDF91CF911F913B
:101E60000F91FF90EF90DF90CF90BF90AF909F9039
:101E70008F900895E62EF12CE4919E2ECE2ED12C3B
:101E800026E0D29FC00111242FEF30E0B9010E945B
:101E90008F218D2F90E0880F991FF5E5F69FA00107
:101EA000F79F500D1124841B950BB82EBB0CB80E58
:101EB000A9014E195F094C9DC0014D9D900D5C9D7F
:101EC000900D1124F92FCB9DA0011124452F5527EA
:101ED000D901A41BB50BAC9DA001AD9D500DBC9DBF
:101EE000500D1124D901AB19B1095D01AE9CD0018F
:101EF000AF9CB00DBE9CB00D1124AB2FBB272A1B8D
:101F00003B0B2C9DD0012D9DB00D3C9DB00D11249F
:101F10002B2F62307105A1F050F46115710509F4A1
:101F200058CF6130710581F0292FF52F52CF6430E1
:101F3000710569F080F06630710509F44ACFF4CF7D
:101F40002E2FE92FFB2F45CF2E2FE52F42CF292F04
:101F5000FE2FEB2F3ECFE92FF92D252F3ACF809181
:101F6000660280FF7ACF1F921F931F92CF931F921A
:101F7000DF938BE297E09F938F930E941A05ADB792
:101F8000BEB718960FB6F894BEBF0FBEADBF65CFF3
:101F9000EBE5F2E0438121E1421B08F440E021E05F
:101FA000628181810C94C80EEBE5F2E0438121E16E
:101FB000420F08F44FEF21E0628181810C94C80E3A
:101FC000EBE5F2E0628121E1621B08F460E021E0D0
:101FD000438181810C94C80EEBE5F2E0628121E13E
:101FE000620F08F46FEF21E0438181810C94C80EE9
:101FF000EBE5F2E0818121E04381628188500C941D
:10200000C80EEBE5F2E0818121E043816281885FC7
:102010000C94C80E80915F02882319F08150809340
:102020005F0260915B0270915C0280915D02909111
:102030005E020C94B60E80915F02833018F48F5FBD
:1020400080935F0260915B0270915C0280915D02FF
:1020500090915E020C94B60E80915B0280FF36C0B8
:102060008170826080935B02662331F160915B0234
:1020700070915C0280915D0290915E020E94B60EAA
:102080008091660280FF0FC080915B0286951F924F
:102090008F938FE096E09F938F930E941A050F9085
:1020A0000F900F900F9020E040915E0260915D02D2
:1020B00080915C020C94C80E8091660280FFF3CF81
:1020C0001F9281E08F9381EF95E0E5CF0895809195
:1020D0005B028695815009F481E061E00C942C103C
:1020E00061E081E00C942C10EBE5F2E083E080836A
:1020F00011828FEF82838383148260817181828158
:1021000093810C94B60ECF9384E090E00E94BD21A1
:10211000C82F82E290E00E94BD21982F8C2FCF9192
:10212000089569EE7EEF90E080E00E94EF2160E08C
:1021300082E090E00E94D12160E083E090E00E9484
:10214000D121109204021092050210920602109200
:10215000070260E084E090E00E94D12160E082E22A
:1021600090E00E94D12160E085E090E00E94D121C2
:1021700060E086E090E00E94D1216FEF87E090E080
:102180000E94D12140E050E0BA0188E090E00E9436
:10219000E32160E08DE090E00E94D12140E050E03A
:1021A000BA0188E190E00E94E32160E087E190E0DD
:1021B0000E94D12140E050E0BA018CE190E00E9401
:1021C000E32170E060E080E290E00E94EF2140E0D7
:1021D00050E0BA0188E190E00E94E32140E050E045
:1021E000BA018FE090E00E94E32140E050E0BA01A4
:1021F00083E190E00C94E321CF93DF93D82FC0913B
:102200006902C2FB882780F98D1711F1D0FBC2F952
:10221000C09369026091680284E090E00E94D1213D
:102220006C2F82E290E00E94D12182E00E943F0D5B
:102230008091660280FF0CC01F92DF9384E294E0DD
:102240009F938F930E941A050F900F900F900F90FD
:10225000DF91CF9108951092020280910C01E6E780
:10226000F1E0882359F08091680287FF07C08EE172
:10227000DF011D928A95E9F70C94040D86E0F8CFF2
:102280001F93CF93DF93CDB7DEB7AA970FB6F8941D
:10229000DEBF0FBECDBF87E992E02091F100DC01E7
:1022A0002D93CD01B2E08F399B07B9F78091980249
:1022B000833009F470C0B8F4813009F447C082302B
:1022C00009F4B1C08091E80083FF84C28091970235
:1022D000909198029A3008F07DC2E92FF0E0EB5E11
:1022E000FD4D0C94B7218A3009F48CC08B3009F471
:1022F0006FC0893039F780919702813219F7809148
:102300009B0290919C020297E8F68091E800877FFB
:102310008093E8008091E80082FF38C09091F3003C
:102320008091F200029731F48091F100813011F038
:10233000863021F48091F100809372028091E80050
:102340008B778093E8000E949D05BCCF8091970217
:10235000813A09F0B7CF8091E800877F8093E80049
:1023600080919B0290919C02892B61F460E283E74B
:1023700092E070E00E944F068091E8008B77809396
:10238000E800A0CF60E090E080E0F3CF809195027C
:102390008111C0CF97CF80919702813A09F092CFF7
:1023A00080919B0290919C02892B09F08BCF8091A8
:1023B000E800877F8093E8008091E80080FFFCCFF1
:1023C00080910C018093F1008091E8008E77B9CF65
:1023D00080919702813209F075CF80919B02909194
:1023E0009C02892B09F06ECF8091E800877F809353
:1023F000E8000E949D058091990280930C010E9443
:102400002B1160CF80919702813209F05BCF8091D0
:10241000E800877F8093E8000E949D0580919A02E2
:10242000809371024FCF80919702813A09F04ACF91
:102430008091E800877F8093E8008091E80080FF2A
:10244000FCCF80917102BECF803899F0823809F0BC
:10245000C1C180919B028F70873008F0BBC180930F
:10246000E9008091EB0085FB882780F91092E90054
:1024700006C0809193029091940291118260909194
:10248000E800977F9093E8008093F1001092F100AC
:102490008091E8008E779AC1882309F488C1823040
:1024A00009F098C18091990281118BC180919B02A2
:1024B0008F702FEF280F263008F08CC18093E90031
:1024C0002091EB0020FF7DC1933031F48091EB002F
:1024D00080628093EB0075C19091EB0090619093C6
:1024E000EB0021E030E001C0220F8A95EAF720934B
:1024F000EA001092EA008091EB008860EACF811137
:1025000069C1109199021F778091E3008078812B37
:102510008093E3008091E800877F8093E8000E9429
:102520009D058091E80080FFFCCF8091E3008068EA
:102530008093E30082E0111183E0809395024AC109
:102540008058823008F046C12091990230919A0259
:102550002C3DE3E03E07A1F583E08A838AE289838C
:102560004FB7F894DE01139620E03EE051E2E32FEE
:10257000F0E050935700E49120FF03C0E295EF7024
:102580003F5FEF708E2F90E0EA30C0F0C7968D93DA
:102590009D932F5F243159F74FBF8091E800877FCB
:1025A0008093E8006AE270E0CE0101960E944F0637
:1025B0008091E8008B778093E8000CC1C096E7CF4C
:1025C00080919B0290919C02432F552743305105E7
:1025D00009F44AC078F54130510509F47AC08BE519
:1025E00090E0E7ECF7E04230510509F0F3C02091AC
:1025F000E800277F2093E80020919D0230919E0201
:102600008217930708F49C0140E02115310509F079
:1026100065C0411163C08091E80082FDC9CF8091FF
:102620009502882329F2853019F28091E80083FF12
:10263000F2CFBECF4132510509F43CC042325105C0
:1026400009F0C8C08330910508F0C4C0FC01EE0F4A
:10265000FF1FEF5AFE4F0190F081E02D825B9E4FED
:10266000DC018C9190E01AC0332721303105D1F084
:102670002115310561F02230310509F0ABC0E4E3EA
:10268000F8E0E4918E2F90E0E4E3F8E007C0E4E5A1
:10269000F8E0E4918E2F90E0E4E5F8E0009709F48B
:1026A00099C0A5CFEEE3F8E0E4918E2F90E0EEE341
:1026B000F8E0F4CF8330910508F08CC0880F991FA3
:1026C000FC01E95AFE4F0190F081E02D89E090E095
:1026D0008ECF82E190E0E2E2F8E089CF809195022E
:1026E000882309F465CF853009F462CF8091E80032
:1026F00083FD5ECF8091E80082FD8DCF8091E80060
:1027000080FF83CF9091F3008091F2002115310575
:1027100019F08830910550F041E0089709F040E049
:102720008091E8008E778093E8006FCF44914093CA
:10273000F1003196215031090196E8CF803809F037
:1027400049C08091E800877F8093E80080919602DD
:102750008093F1009DCE81113DC0109199021230FD
:10276000C8F58091E800877F8093E8001093960277
:102770000E949D05112311F084E005C08091E300C3
:1027800087FDFACF81E08093950242E061EC81E021
:102790000E94BC0542E261EC82E00E94BC0542E27C
:1027A00061EC83E00E94BC058091950213C080918A
:1027B0009902813079F481E0933009F080E08093D0
:1027C00094021092E9008091E800877F8093E800EE
:1027D0000E949D058091E80083FF0AC08091E80077
:1027E000877F8093E8008091EB0080628093EB000C
:1027F000AA960FB6F894DEBF0FBECDBFDF91CF9182
:102800001F9108954F925F926F927F928F929F9245
:10281000AF92BF92CF92DF92EF92FF920F931F93EE
:10282000CF93DF9300D000D00F92CDB7DEB77C01FD
:10283000FC0183819481892B39F01081D180812F13
:102840008D218F3F09F01FC50F900F900F900F90B3
:102850000F90DF91CF911F910F91FF90EF90DF903C
:10286000CF90BF90AF909F908F907F906F905F9030
:102870004F9008950E94E108082F682F89819A815E
:102880000E947B09E12FF0E02AE0D29EE00DF11DCD
:10289000112430E5039FE00DF11D1124EE0FFF1F01
:1028A000EC5BFD4F05911491043F8CE5180709F48A
:1028B0009AC0D0F5093DECE51E0709F490C00A3D29
:1028C000FCE51F0709F49BC0083D2CE51207D1F574
:1028D00026E241EE61EEC7010E94450E8091FF01A4
:1028E000877009F4B1CFF7018281882309F4ACCF56
:1028F0008091690282FDA8CF82E00F900F900F9027
:102900000F900F90DF91CF911F910F91FF90EF905B
:10291000DF90CF90BF90AF909F908F907F906F90FF
:102920005F904F900C943F0D063F3CE5130709F470
:1029300062C008F45CC027E245EE66EE073F9CE506
:10294000190749F2F7018281882309F4ADC4109276
:10295000A5020430FDE51F0708F054C00B3F2CE52D
:10296000120730F4C80182509C45449708F04FC0CC
:102970000E948310909369028093680200318CE575
:10298000180709F417C108F093C00830ECE51E07DA
:1029900009F4FEC008F065C004302CE5120709F404
:1029A000E9C008F04BC002308CE5180709F4DCC020
:1029B00080916802826003301C4509F4D8C06091A0
:1029C00068021091690284E090E00E94D121612F99
:1029D00082E290E00E94D1210E942B117FCF27E25A
:1029E00045EE65EE78CF26E241EE60EE74CF27E249
:1029F00045EE64EE70CF26E241EE62EE6CCF28E247
:102A000041E0EFCF02363DE5130709F4B1CF8091E5
:102A100002020631ECE51E0709F053C48A7A91E000
:102A200009F490E09093940169E2811165E384E7F1
:102A300091E00E94360C0E947C0C50CF809168027D
:102A400080610630ECE51E0709F491C080916802B0
:102A5000886007301C4508F48AC080916802806253
:102A600086C0809168028D7F0C302CE5120709F436
:102A70007EC058F40A308CE5180709F493C008F4B6
:102A80008BC0809168028E7F72C080916802877FC0
:102A90000E30ECE51E0709F46AC0809168028B7F56
:102AA0000F301C4508F463C0809168028F7E5FC0C0
:102AB0000D3F2CE5120709F479C068F504318CE567
:102AC000180709F48BC080F40231ECE51E0709F405
:102AD00075C0809168028F7B03311C4508F447C0A4
:102AE00080916802837F43C00B3F2CE5120709F4F5
:102AF00045C008F049C005311C4509F060CF809100
:102B0000680282FB992790F921E0922790FB82F9D5
:102B100090FB83F92CC001309DE5190709F454C0DE
:102B200088F48091690283600F3FFCE51F0749F13B
:102B3000809169028D7F01151D4518F18091690210
:102B40008C7F1FC003303DE5130709F456C008F41D
:102B50004EC002361D4509F032CF90916802892F90
:102B60008F7E94FF806103C08091680281608093B2
:102B7000680225CF809168028460F9CF8091690254
:102B80008160809369021BCF809169028260F9CFD6
:102B9000809168028064EBCF0E942B1180916802C3
:102BA0008068E5CF809168028C60E1CF80916902F6
:102BB0008E7FE7CF809168028F7DD9CF0E942B1145
:102BC000809168028F77D3CF80916902982F90957A
:102BD00091708E7F892B90FB81F9D3CF0E942B11AE
:102BE00090916802892F97FB87F98058C0CF61E0E8
:102BF0008EE090E00E94D121E2CE60E0F9CF80919A
:102C0000660280FF10C080915B02809581701F92E8
:102C10008F938AEE91E09F938F930E941A050F90F5
:102C20000F900F900F9080915B0280FF2CC08E7FE1
:102C300080935B0260915B0270915C0280915D0207
:102C400090915E020E94B60E8091660280FF0FC0D6
:102C500080915B0281701F928F938BE791E09F932D
:102C60008F930E941A050F900F900F900F90FFEF17
:102C700020E732E0F15020403040E1F700C0000092
:102C80000E94C60B2BCE816080935B02809166020E
:102C900080FF0DC01F9281E08F9383EB91E09F93A3
:102CA0008F930E941A050F900F900F900F908091B4
:102CB0005B0261E086950E942C1010CE47E650E141
:102CC00060E770E10E94F60609CE40E750E167E652
:102CD00070E1F8CF48EF5FE061E070E1F3CF48ECDE
:102CE0005FE064ED7FE0EECF61E081E0E4CF0C35A2
:102CF0002DE5120709F444C00D351007B9F10B3565
:102D00001D4509F009C381E038C00E942B119FEFD7
:102D1000E4E3FCE09150E040F040E1F700C0000047
:102D200087E797E7909301088093000888E19AE08D
:102D30000FB6F894A895809360000FBE9093600042
:102D4000FFCF90916602892F8E7F90FF81608093E4
:102D5000660280FF05C083E392E00E948104BECD3D
:102D600081E292E0FACF0E949110B8CD8091690281
:102D700082FB882780F991E089270E94FC10CCC251
:102D800080E0FBCF812F902F0E945309D82ED5C20F
:102D9000212F2F70C22E107F19F0C29420EFC22273
:102DA000DD20B9F0CC2069F080E2800F883010F08F
:102DB000811009C080910202C82AC09202020E94BA
:102DC0007C0C802F4BC080910102C82AC092010266
:102DD000F6CF802F0E94970DCC2009F441C0005EF1
:102DE000083010F0811004C08C2D0E94D00806C05D
:102DF000C09480910102C822C09201020E947C0C02
:102E00002FC0312F3F70C32E107F103219F0C294A3
:102E100090EFC922882089F081E0881609F489C0E2
:102E2000DD2009F493C0992009F489C0F701858158
:102E300080FFC7CF8F70858382C02091690222FFF7
:102E400055C0DD2009F44BC0CC2039F0809102023E
:102E5000C82AC09202020E947C0C80E00E94C20D2F
:102E60002A2D2850330B2430310510F40E94EA0635
:102E7000BB20A9F08091FF0180FD11C0F7011282F3
:102E80008595859585950E945B0DC7010E9402146A
:102E90008091FF018595859585950E941C0D85E0A3
:102EA000F701DE01119601900D928A95E1F7898173
:102EB0009A810E9453099A81E981F0E02AE0929F69
:102EC000E00DF11D112430E5839FE00DF11D11246B
:102ED000EE0FFF1FEC5BFD4F85919491B5CC80E028
:102EE0000E94970DCC2009F4BBCF7ECFDD20A1F04E
:102EF000909103028C2D892B911003C00E948D0D9F
:102F0000AFCFE1E09E12FACF22FDAACF981709F4C5
:102F1000A7CF80930302A4CF911006C00E94CA08D5
:102F20008C2D0E94860D9CCFF1E09F1609F498CF5E
:102F3000F5CFDD2031F025E0291508F491CF8C2D57
:102F4000DDCF34E0391508F48BCFEACF992041F377
:102F5000F9E38F128DC12FEF37EE83E0215030401F
:102F60008040E1F700C00000802F0E94970D78CFCD
:102F7000812F86958695837061F0813009F070CF3E
:102F8000C8019370D11002C090E080E00E94BE069C
:102F900067CFC8019370D11002C090E080E00E941A
:102FA000D4065ECF812F837009F066C0D11058CF50
:102FB000802F829586958770880F880F602F6F709D
:102FC000462E512C712C612C082E04C0440C551C2B
:102FD000661C771C0A94D2F740E050E0BA0104FF67
:102FE0000FC04FE050E060E070E004C0440F551F98
:102FF000661F771F8A95D2F740955095609570951A
:10300000812F869586958370823019F1D8F40091CE
:1030100004021091050220910602309107028130CE
:1030200069F04429552966297729CB01BA01602323
:103030007123822393230E947C0D12CF402A512AB0
:10304000622A732ACB01BA01642975298629972936
:10305000F2CF44295529662977290091040210915D
:1030600005022091060230910702CB01BA016027C8
:10307000712782279327DFCF8695DD2011F0812FDE
:103080008170882309F4ECCE802F82958695877015
:10309000880F880F602F6F70462E512C712C612C79
:1030A000082E04C0440C551C661C771C0A94D2F7E9
:1030B00040E050E0BA0104FF0FC04FE050E060E094
:1030C00070E004C0440F551F661F771F8A95D2F722
:1030D0004095509560957095812F86958695837063
:1030E000823019F1D8F400910B0210910C0220915A
:1030F0000D0230910E02813069F04429552966296C
:103100007729CB01BA0160237123822393230E9484
:10311000120DA6CE402A512A622A732ACB01BA0187
:103120006429752986299729F2CF442955296629CA
:10313000772900910B0210910C0220910D02309121
:103140000E02CB01BA016027712782279327DFCFB8
:103150001F70DD2029F0812F0E945B0D802FCECEC5
:10316000802F0E94860D812F0E941C0D79CE802F0A
:1031700022EF821609F43FC0281570F030EF831655
:10318000D1F091EF891691F0DD2009F46CC0911017
:1031900018CE812F8F7133C0E3EF8E1699F1F4EFC3
:1031A0008F12F2CF8091690282FF3FC0812F8F7111
:1031B000DD20D1F224C0DD20C9F024E0291508F477
:1031C0004FCE1F7161E070E080E090E004C0660FB8
:1031D000771F881F991F1A95D2F700910B02109143
:1031E0000C0220910D0230910E02ADCF35E0391561
:1031F00008F436CEE6CF812F8F71D110B5CF0E9463
:103200005B0D2ECE60E070E0CB01DD2009F47FCFB6
:103210001F7161E070E080E090E004C0660F771FEE
:10322000881F991F1A95D2F772CFDD2089F01F7180
:10323000812F0E945B0D8091690282FD07C0E8E04A
:103240001E9FC001112483608093FF01812FD7CF7F
:1032500081E00E943F0DF1E0F91508F001CE82E017
:103260000E943F0DFDCD992059F0893309F473CEAA
:103270009FEFE9EFF0E09150E040F040E1F772CECF
:10328000812F8F7171CF85E0DE01119601900D9233
:103290008A95E1F7F701228189819A812111EACA91
:1032A0000E945309082FEECA06311C45A9F58091EA
:1032B000940169E2811165E384E791E00E94FB0BD0
:1032C000BACB82720A3C2CE5120709F408CD08F04B
:1032D00091C0063C9CE5190709F4FCCC08F074C0C9
:1032E000043CFCE51F0709F4E9CC08F0EECC033CF4
:1032F0003CE5130709F483CC0F3D8CE5180709F46E
:1033000032CD08F0F4CC0115ECE51E0709F4FDCC34
:1033100001301C4509F415CDF7018281108101812E
:10332000882309F42FCD812F902F0E94E108D82EF9
:10333000682F812F902F0E947B09E12FF0E02AE077
:10334000029FE00DF11D112430E5D39EE00DF11D2B
:103350001124EE0FFF1FEC5BFD4F859194910E94AD
:103360004D078C01882EF701D280958092945FE002
:1033700095228091FF018770C1F0BD2CDD20B1F056
:10338000812F807F803421F080E2800F883068F0C8
:103390008091690282FD09C082E00E943F0D809108
:1033A000FF018770BB24B3948111B12CA12EA2948C
:1033B0003FE0A322FBE0FA1508F452CDEA2DF0E03D
:1033C000E15EFD4D0C94B72140EE5FE06CEE7FE0D6
:1033D000083C9CE5190709F475CC41E050E168EF21
:1033E0007FE0093C1C4508F46DCC4CEE5FE060EEDC
:1033F0007FE068CC0E3CFCE51F0709F475CCB0F407
:103400004AE050E16BE170E10C3C3CE5130709F444
:1034100059CC44ED5FE068EC7FE00D3C1C4508F4BE
:1034200051CC4BE150E16AE070E14CCC073DECE55A
:103430001E0708F453CA0E35FDE51F0709F44ECAEE
:103440005BCF1F93CF93DF938091CC01807FA9F452
:103450008091C901882389F08091FE01D091CD012E
:103460006091C7017091C801A091CA01B091CB01D0
:10347000C62FC72316E0D81304C0DF91CF911F9148
:10348000089590E0109711F0CF3F19F401968770DE
:10349000F2CF189F9001199F300D1124F901E253CA
:1034A000FE4F41814713F2CF40814613EFCF428157
:1034B0004111ECCF438154814A1B5B0B483C5105C1
:1034C00028F78091CC018F7080618093CC01F90145
:1034D000ED52FE4F80818F708061808387EC91E098
:1034E0000E940214DF91CF911F910C94D708AF92E4
:1034F000BF92CF92DF92EF92FF920F931F93CF93E1
:10350000DF93CDB7DEB761970FB6F894DEBF0FBE7D
:10351000CDBF8C0185E0F801DE011D9601900D9272
:103520008A95E1F7F801E28087ECA82E81E0B82EB9
:103530006091CA017091CB016115710509F432C126
:103540009091C7014091C801892F84238F3F09F4CE
:1035500029C120813181C380D480F090C901F60156
:10356000E61BF70BFF2009F4E8C08091CC01582F2F
:10357000507FE83CF10508F0ABC0511177C0FE2C3C
:10358000431321C092131FC0E1101DC08F708061D2
:103590008093CC01C5010E9402148091CC01F801F6
:1035A00085838F2D61960FB6F894DEBF0FBECDBF19
:1035B000DF91CF911F910F91FF90EF90DF90CF900F
:1035C000BF90AF900895CD2829F0822F83238F3F9D
:1035D00009F003C180E0F82FF170DF2E80FF3CC0BE
:1035E0008091FE014091CD0156E0841315C02D87D6
:1035F0003E878D859E850E943809292F22952F7040
:103600002230F0F0243018F59F70F1F0F801958128
:10361000907FD1F4D12C1EC090E0589FF001599FAB
:10362000F00D1124E253FE4F6181361306C0608114
:10363000261303C06281E6120FC001968770D5CFB2
:103640009F7011F0882331F3805E883018F3C80131
:103650000E940214FD2CA5CFEE2009F4A2CF809188
:10366000CC0181608093CC01F12C9BCF431306C029
:10367000921304C0F801EE2009F479C0C8010E9439
:10368000A709882309F1EE20F9F08091CC0180325E
:1036900070F02091C7013091C80138872F831986B7
:1036A000DB86CA868C87CE0107960E94021486E0CC
:1036B000F801A7ECB1E001900D928A95E1F70E9424
:1036C000211AFF24F3946DCFC8010E940214F9CF90
:1036D00051110AC087EC91E00E94021486E0F501C6
:1036E00011928A95E9F7C0CF43130FC092130DC012
:1036F000E1100BC0F8018583C8010E94021486E026
:10370000F50111928A95E9F74CCFC8010E94A709EB
:103710008823D1F2EE20C1F28091CC01803238F2C0
:103720002091C7013091C8013A8329831B82DD8231
:10373000CC828E83CE010196B8CFE83CF105F8F635
:10374000FE2CEE2009F243131FC092131DC080917E
:10375000CC0180FD10C0982F907F69F0F80185831F
:10376000903F31F0982F907F905F8F70892B8583E9
:10377000C8010E94021486E0F801A7ECB1E00190B4
:103780000D928A95E1F70DCFC8010E94A70981111A
:103790008ECF8091CC0181608093CC01C8010E94C2
:1037A0000214FFCEEE2009F48FCFC8010E94A709B2
:1037B000F82E882309F488CF86E0F801A7ECB1E061
:1037C00001900D928A95E1F78091C7019091C8010F
:1037D0000E9438090E94211AE4CE81E08E25FBCE9A
:1037E0001F93CF93DF93CDB7DEB767970FB6F894EB
:1037F000DEBF0FBECDBF4B8B5C8B6D8B7E8B8F8BFB
:103800006111109201021A8A198A85E0FE017396ED
:10381000DE011D9601900D928A95E1F786E0FE018A
:103820003D96DE01179601900D928A95E1F7CE0143
:1038300007960E94771A882389F016E08091FE018E
:103840009091CD01891349C067960FB6F894DEBFF9
:103850000FBECDBFDF91CF911F91089586E0FE018D
:103860003796DE01119601900D928A95E1F78A85CF
:103870009B85892B11F38F81988589238F3FE9F2EE
:103880002091CD0130E0C9010196877099274091C0
:10389000FE014817190671F40E942B111092CD01F8
:1038A0001092FE0186E0E7ECF1E0DF011D928A95BF
:1038B000E9F7C3CF96E0929FD001939FB00D1124FA
:1038C000A253BE4FFE01319601900D929A95E1F7F9
:1038D0008093CD010E94D708B0CF819FC0011124F1
:1038E00082539E4F0E94771A882309F4ADCF8091AE
:1038F000FE0190E00196877099278093FE019ECF8C
:103900001F920F920FB60F9211242F933F934F9354
:103910005F936F937F938F939F93AF93BF93CF9357
:10392000DF93EF93FF93D091E900DF708091EC007B
:10393000C82FC17080FDC0E81092E9008091F000AE
:10394000877F8093F00078940E9440111092E900E4
:103950008091F00088608093F000CD2BCF70C093F1
:10396000E900FF91EF91DF91CF91BF91AF919F91CE
:103970008F917F916F915F914F913F912F910F9018
:103980000FBE0F901F9018951F920F920FB60F92B7
:1039900011242F933F934F935F936F937F938F9354
:1039A0009F93AF93BF93EF93FF938091E10082FFCA
:1039B00015C08091E20082FF11C08091E1008B7FF1
:1039C0008093E10020916F022F5F822F62E30E94BB
:1039D0008321992309F4C0C020936F028091DA00FB
:1039E00080FF28C08091D80080FF24C08091DA0039
:1039F0008E7F8093DA008091D90080FFE3C080E160
:103A000089BD82E189BD09B400FEFDCF81E08093CC
:103A1000950283EB97E00E948104809170028111EE
:103A200009C00E9423050E94EE058091E200846097
:103A30008093E2008091E10080FF1BC08091E20052
:103A400080FF17C08091E2008E7F8093E20080911A
:103A5000E20080618093E2008091D80080628093D0
:103A6000D80019BC85E0809395028BEB97E00E940B
:103A700081048091E10084FF2FC08091E20084FFE7
:103A80002BC080E189BD82E189BD89B5982F9170F5
:103A900080FFFBCF8091D8008F7D8093D8008091EC
:103AA000E1008F7E8093E1008091E2008F7E809321
:103AB000E2008091E20081608093E20080919602B2
:103AC000882309F489C084E0809395028FEB97E006
:103AD0000E948104809195028091E10083FF2BC0B8
:103AE0008091E20083FF27C08091E100877F80936F
:103AF000E10082E080939502109296028091E100AD
:103B00008E7F8093E1008091E2008E7F8093E200BF
:103B10008091E20080618093E20042E060E080E01A
:103B20000E94BC058091F00088608093F00083ECD7
:103B300097E00E948104FF91EF91BF91AF919F9117
:103B40008F917F916F915F914F913F912F910F9046
:103B50000FBE0F901F90189510926F0280916E0209
:103B6000882309F43BCF809195028430C1F4909171
:103B7000E9009F702091EC00822F817020FD80E889
:103B8000892B93E09093E9009091EB0090FF04C0A3
:103B90009091EE0097FD08C08F708093E90010921D
:103BA0006E021CCF1092F1009091E80095FDFACFC3
:103BB0009091E80090FFF0CF9091E8009E7790936D
:103BC000E800EACF19BC1092950287EB97E00E94BB
:103BD0008104109270022ECF8091E30087FD93E064
:103BE0009093950273CF78941F921FB61F92112461
:103BF0008F939F93AF93BF9380919F029091A00268
:103C0000A091A102B091A2020196A11DB11D8093C5
:103C10009F029093A002A093A102B093A202BF9131
:103C2000AF919F918F911F901FBE1F9018951F926B
:103C30001FB61F9211248F939F93AF93BF938091D0
:103C40006702811113C080919F029091A002A09100
:103C5000A102B091A2024196A11DB11D80939F02C5
:103C60009093A002A093A102B093A202BF91AF9142
:103C70009F918F911F901FBE1F901895CDB7DEB7F3
:103C80002D970FB6F894DEBF0FBECDBF84B7877FE8
:103C900084BF0FB6F894A8958091600088618093E6
:103CA0006000109260000FBE80E890E00FB6F894BC
:103CB00080936100909361000FBE85B7806885BFD7
:103CC00085B7806885BF81EF9AE0909373018093F8
:103CD00072010E9423050E94EE058091E20084603B
:103CE0008093E2007894809195028823A1F010914E
:103CF000E9001F709091EC00892F817090FD80E8A1
:103D0000182B1092E9008091E80083FD0E94401179
:103D10001F701093E90082E084BD93E095BD9AEF97
:103D200097BD80936E00ADE5B1E020E631E061E043
:103D300070E08D91E82FE295EF70F0E091A18F7027
:103D4000AB0101C0440F8A95EAF7892F842B81A328
:103D50002A173B0771F7A0E6B1E02AE631E041E01F
:103D600050E08D91E82FE295EF70F0E011A18F7097
:103D7000BA0101C0660F8A95EAF7962F90959123B4
:103D800091A382A1862B82A32A173B0751F7E6EA6B
:103D9000F2E086EB92E0A0E1B2E0119211921D9266
:103DA0001D928E179F07C9F790E080E00E94CB21FB
:103DB000893E9E4F11F00E94911082E090E00E9497
:103DC000BD21809366020E948310909369028093C4
:103DD000680283E090E00E94BD21682F70E090E0CF
:103DE00080E00E947C0D80910F028111DEC08091E5
:103DF000660280FF14C085E995E09F938F930E942F
:103E00001A05809166020F900F9080FF08C08FE71F
:103E100095E09F938F930E941A050F900F9090E06A
:103E200080E00E94CB21893E9E4F81F08091660206
:103E300080FF08C087E595E09F938F930E941A0545
:103E40000F900F900E9491100E94741088E090E0F3
:103E50000E94C52160935B0270935C0280935D02B7
:103E600090935E026E7FD1F48091660280FF08C05D
:103E70008EE095E09F938F930E941A050F900F900C
:103E80000E94741088E090E00E94C52160935B025C
:103E900070935C0280935D0290935E020E94FB0629
:103EA0008091660280FF76C085EF94E09F938F93A8
:103EB0000E941A05809166020F900F9080FF6AC0E1
:103EC00080915B0281701F928F9388ED94E09F93A5
:103ED0008F930E941A05809166020F900F900F90A9
:103EE0000F9080FF57C080915B0286951F928F9341
:103EF0008DEB94E09F938F930E941A058091660248
:103F00000F900F900F900F9080FF44C080915C0243
:103F10001F928F9383EA94E09F938F930E941A05D8
:103F2000809166020F900F900F900F9080FF32C02B
:103F300080915D021F928F9389E894E09F938F9305
:103F40000E941A05809166020F900F900F900F90BB
:103F500080FF20C080915E021F928F938FE694E0D5
:103F60009F938F930E941A05809166020F900F9085
:103F70000F900F9080FF0EC080915F021F928F9371
:103F800083E594E09F938F930E941A050F900F9002
:103F90000F900F9080915B0280FF04C060E08695D7
:103FA0000E942C1081E080930F0253985B9A5298E4
:103FB0005A9A89B183FB882780F94A995BC090E0BF
:103FC000892B8093220280E091E09093630280939A
:103FD000620280919502853079F48CEA95E00E9426
:103FE000810400E112E180919502853009F444C01A
:103FF0000E942B110E94EA060E94830A882359F02E
:104000008FB7F89440919F025091A0026091A10255
:104010007091A2028FBF54E2452E52E0552EE0E18E
:10402000F2E0FC87EB8710E000E00D87EB85FC8574
:10403000E190F190FC87EB87F201A190B1902F0104
:10404000AE14BF0409F054C00F5F1F4F08301105B4
:1040500061F78FEF8E838F8318860E94B20681608E
:10406000782F9A8789874E815F8168858A850E942B
:10407000F01B6FC092E0A4CF80919502843021F1B3
:104080001092670288E190E0E0E40FB6F894A895FA
:10409000809360000FBEE093600083B7817F8460EF
:1040A00083BF83B7816083BF7894889583B78E7F01
:1040B00083BF0FB6F894A8958091600088618093C3
:1040C0006000109260000FBE80919402882309F472
:1040D0008ACF0E94830AE0E1F2E081919191892BDD
:1040E00009F0FBC080E292E08E179F07B1F77BCF0B
:1040F0008091660281FDACC0AE24BF2480E0CC2458
:10410000C394D12C95012C213D21232B09F4DBC034
:104110008983ED85EA83EC20FD2081E0EF2809F416
:1041200080E08B830E94B2068160782F9D838C8310
:1041300049815A816B818D810E94F01B000F111FF4
:10414000F801EC5DFD4F80819181C826D926D1828E
:10415000C082E0912202EE0FEE0FE093220289B1BD
:1041600083FB662460F84A99B5C080E08629E82B75
:10417000E0932202EF70F0E0E25CFE4F80819091CC
:104180002102890F8093210220E082305CF080912F
:1041900020028F5F8093200264E170E08AEA0E942F
:1041A000300E21E0809121028F3F5CF4809120024B
:1041B00081508093200264E170E089EA0E94300E11
:1041C00021E080912102082E000C990B62E070E042
:1041D0000E94A32180932102222359F08FB7F894E3
:1041E00040919F025091A0026091A1027091A202A1
:1041F0008FBF0E94EA0690912302891709F4E9CE45
:104200000E94EA06182F809323028091660282FFA3
:10421000E0CE80FFDECE8EED95E00E94810480919D
:10422000660280FFD6CE1F921F9389ED95E09F9383
:104230008F930E941A05809166020F900F900F9045
:104240000F9080FFC6CE87ED95E00E948104C1CE1D
:1042500080EC95E00E94810430E1832E32E0932EC1
:10426000D12CC12CDF92CF928BEB95E09F938F9353
:104270000E941A0588EB95E00E948104F401808178
:104280002180F2E08F0E911C0E94CE09382E822DE3
:104290000E94CE093F928F9382EB95E09F938F937C
:1042A0000E941A0580EB95E00E948104FFEFCF1A6F
:1042B000DF0A0FB6F894DEBF0FBECDBF98E0C91677
:1042C000D10481F619CF8F5FCC0CDD1C8A3009F048
:1042D00019CFBACE82E090E049CF09BD19BD09B42B
:1042E00000FEFDCF8091D8008F7D8093D800809113
:1042F000E00082608093E0008091E00081FDFCCFCF
:104300000E942B1170CE991B79E004C0991F96175B
:1043100008F0961B881F7A95C9F780950895AA1B07
:10432000BB1B51E107C0AA1FBB1FA617B70710F0A0
:10433000A61BB70B881F991F5A95A9F780959095D2
:10434000BC01CD01089597FB072E16F4009407D009
:1043500077FD09D00E948F2107FC05D03EF490958F
:1043600081959F4F0895709561957F4F0895EE0F49
:10437000FF1F0590F491E02D0994F999FECF92BDAD
:1043800081BDF89A992780B50895A6E1B0E044E090
:1043900050E00C94F721A8E1B0E042E050E00C942A
:1043A000F721262FF999FECF92BD81BDF89A01978A
:1043B00000B4021639F01FBA20BD0FB6F894FA9A6D
:1043C000F99A0FBE08950396272F0E94D2210E94CA
:1043D000D121252F0E94D221242F0C94D221019685
:1043E000272F0E94D2210C94D121DC01CB01FC01AA
:1043F000F999FECF06C0F2BDE1BDF89A319600B43E
:104400000D9241505040B8F70895F894FFCFB90984
:10441000B909C209C209C409C209C209C209B90954
:10442000B909C909C209C209C90924124C12EA13FF
:104430004C12EA137F12A012EA139E13AB13C81694
:10444000C81601170117B817301730173017D217D1
:06445000A818B718B71808
:10445600AF06860BAE06820B7E0BAD06018182830C
:10446600E200E900EA00B500B600B700CD0083011E
:10447600CC008A0192019401210223022402250222
:10448600260227022A02B300B4006F00700000FF64
:104496000100010000FFFF0000010001FF00406D68
:1044A600223B01CE00AC00D907F2070B08C6343513
:1044B6009190976694F53331F7F6040002030105EF
:0244C6000706E7
:00000001FF
