:100000000C94D3060C941A070C941A070C941A0734
:100010000C941A070C941A070C941A070C941A07DC
:100020000C941A070C941A070C944A170C94061790
:100030000C94FF210C941A070C941A070C941A07BD
:100040000C941A070C941A070C941A070C941A07AC
:100050000C941A070C9479180C941A070C941A072C
:100060000C941A070C941A070C941A070C941A078C
:100070000C941A070C941A070C941A070C941A077C
:100080000C941A070C941A070C941A070C941A076C
:100090000C941A070C941A070C941A070C941A075C
:1000A0000C941A070C941A070C941A070631FF09CE
:1000B00074A1010975150026FF00952075088102BD
:1000C0000976150026FF00952075089102C00501EC
:1000D0000980A101850319012AB700150126B7007F
:1000E000950175108100C0050C0901A10185041955
:1000F000012AA002150126A002950175108100C0F9
:1001000005010906A1018506050719E029E7150083
:1001100025019508750181020507190029EF1500D1
:10012000250195F07501810205081901290595053C
:1001300075019102950175039101C005010906A1A0
:1001400001050719E029E7150025019508750181CA
:10015000029501750881010507190029FF15002680
:10016000FF00950675088100050819012905950508
:1001700075019102950175039101C07267626C6906
:100180006768742064697361626C65205B454550E3
:10019000524F4D5D3A207267626C696768745F63A5
:1001A0006F6E6669672E656E61626C65203D202505
:1001B000750A007267626C6967687420656E6162B7
:1001C0006C65205B454550524F4D5D3A2072676229
:1001D0006C696768745F636F6E6669672E656E61D0
:1001E000626C65203D2025750A007267626C696744
:1001F000687420746F67676C65205B454550524F8B
:100200004D5D3A207267626C696768745F636F6EF8
:100210006669672E656E61626C65203D2025750AF2
:100220000044454255473A2064697361626C6564D5
:100230002E0A0044454255473A20656E61626C655E
:10024000642E0A0022001500090019002C00270066
:1002500012000F003600E60021000800070006002B
:10026000E20026000C000E0010002C000000000030
:100270000000000000002A0031022800E5004F00C5
:10028000230017000A0005002C0024001C000B00AE
:10029000050000002900A800000000000000000088
:1002A000300000005200510020001A0016001B0010
:1002B0000000250018000D0011002C001E002B006E
:1002C0003900E100E0002E002F003400380050001B
:1002D0001F00140004001D00E3002D001300330074
:1002E000370000004F6E6573686F743A2061637465
:1002F0006976653A2025640A000A002530325820C4
:10030000006B6579626F6172645F7265706F7274A1
:100310003A2000646973706C61795F7365747570FD
:1003200032206661696C65640A0000DA0281FFD9D7
:10033000F1DB20A4A62EAF646973706C61795F66EF
:100340006C6970706564206661696C65640A0000A0
:10035000A0C06F6C65645F696E697420636D642012
:100360006E6F726D616C20726F746174696F6E2054
:100370006661696C65640A0000A1C86F6C65645FA2
:10038000696E697420636D64207365742031206622
:1003900061696C65640A0000AED580A81FD3004077
:1003A0008D1420007267626C696768745F636F6E9A
:1003B0006669672E7370656564203D2025640A00B8
:1003C0007267626C696768745F636F6E6669672ED7
:1003D00076616C203D2025640A007267626C696753
:1003E00068745F636F6E6669672E736174203D2069
:1003F00025640A007267626C696768745F636F6E78
:100400006669672E687565203D2025640A0072675D
:10041000686C696768745F636F6E6669672E6D6F7D
:100420006465203D2025640A007267626C69676814
:10043000745F636F6E6669672E656E61626C6520BE
:100440003D2025640A007267626C696768745F63A7
:100450006F6E66696720454550524F4D3A0A0072EB
:1004600067626C696768745F696E6974207267623D
:100470006C696768745F636F6E6669672E6D6F6421
:1004800065203D20302E20577269746520646566B2
:1004900061756C742076616C75657320746F20458E
:1004A0004550524F4D2E0A007267626C696768743E
:1004B0005F696E6974206565636F6E666967206940
:1004C00073206E6F7420656E61626C65642E0A0025
:1004D0007267626C696768745F696E6974207374AF
:1004E000617274210A007267626C696768745F697F
:1004F0006E69742063616C6C65642E0A005B735DC9
:10050000000A002530313662003A2000253032588A
:10051000000A722F632030313233343536373839A0
:100520004142434445460A002020202000534352C4
:1005300020002020202000434150200020202020A7
:10054000004E554D2000556E646566696E65640009
:1005500044656661756C740A004C617965723A2075
:10056000006F6C65645F72656E646572393020641B
:10057000617461206661696C65640A006F6C656412
:100580005F72656E64657220646174612066616982
:100590006C65640A006F6C65645F72656E64657299
:1005A000206F666673657420636F6D6D616E642085
:1005B0006661696C65640A000A0025303258006B78
:1005C0006579626F6172645F7365745F6C65643ACC
:1005D00020007267626C69676874206D6F646520C3
:1005E0005B4E4F454550524F4D5D3A2025750A00F0
:1005F0007267626C69676874206D6F6465205B4523
:100600004550524F4D5D3A2025750A000001010109
:1006100001010101010102020202020202020203BF
:10062000030303030303030404040404040405058F
:100630000505050606060606070707070708080852
:1006400008090909090A0A0A0B0B0B0C0C0C0D0D01
:100650000D0E0E0E0F0F0F10101111111212131399
:100660001414151516161717181819191A1A1B1B12
:100670001C1D1D1E1E1F202021222223242425266E
:1006800026272829292A2B2C2D2D2E2F30313232A6
:10069000333435363738393A3B3C3D3E3F404142B2
:1006A000434445464748494A4C4D4E4F5051535498
:1006B000555658595A5B5D5E5F616264656668694C
:1006C0006B6C6D6F7072737577787A7B7D7E8082CC
:1006D000838587888A8C8E8F91939596989A9C9E15
:1006E000A0A2A3A5A7A9ABADAFB1B3B5B7BABCBE25
:1006F000C0C2C4C6C9CBCDCFD1D4D6D8DBDDDFE2F2
:10070000E4E7E9EBEEF0F3F5F8FAFDFF7267626CEF
:10071000696768742073657420687376205B4E4F38
:10072000454550524F4D5D3A2025752C25752C2599
:10073000750A007267626C6967687420736574205B
:10074000687376205B454550524F4D5D3A202575C4
:100750002C25752C25750A006F6C65645F6F6E2003
:10076000636D64206661696C65640A0000AF6F6C3C
:1007700065645F6F666620636D64206661696C65A1
:10078000640A0000AE6164645F6B65795F626974DE
:100790003A2063616E2774206164643A2025303208
:1007A000580A0064656C5F6B65795F6269743A2012
:1007B00063616E27742064656C3A20253032580AD4
:1007C000005B435D005B445D005B535D005B575D18
:1007D000005B525D0009025B00030100A0FA0904FE
:1007E0000000010301010009211101000122400064
:1007F0000705810308000A09040100010300000045
:10080000092111010001226D000705820320000A61
:100810000904020002030000000921110100012265
:1008200022000705830320000107050303200001C0
:10083000120100020000000842446364FCFF010250
:10084000000108036F0077006C00000014036400CF
:100850006F006F00640062006F006100720064004E
:1008600000000403090407087F0807003E5B4F5B94
:100870003E003E6B4F6B3E001C3E7C3E1C00183C15
:100880007E3C18001C577D571C001C5E7F5E1C00C0
:1008900000183C180000FFE7C3E7FF000018241809
:1008A0000000FFE7DBE7FF0030483A060E0026298C
:1008B00079292600407F05050700407F05253F0078
:1008C0005A3CE73C5A007F3E1C1C0800081C1C3E9A
:1008D0007F0014227F2214005F5F005F5F00060923
:1008E0007F017F00006689956A006060606060003B
:1008F00094A2FFA2940008047E04080010207E2029
:10090000100008082A1C0800081C2A0808001E10ED
:10091000101010000C1E0C1E0C0030383E38300039
:10092000060E3E0E060000000000000000005F0002
:100930000000000700070000147F147F1400242A21
:100940007F2A1200231308646200364956205000A3
:10095000000807030000001C224100000041221C87
:1009600000002A1C7F1C2A0008083E08080000809E
:1009700070300000080808080800000060600000EF
:100980002010080402003E5149453E0000427F40CD
:1009900000007249494946002141494D330018146D
:1009A000127F10002745454539003C4A494931002E
:1009B000412111090700364949493600464949296C
:1009C0001E00000014000000004034000000000879
:1009D00014224100141414141400004122140800BD
:1009E0000201590906003E415D594E007C12111268
:1009F0007C007F49494936003E41414122007F4108
:100A000041413E007F49494941007F0909090100F0
:100A10003E41415173007F0808087F0000417F413B
:100A200000002040413F01007F08142241007F4028
:100A3000404040007F021C027F007F0408107F00BE
:100A40003E4141413E007F09090906003E415121D6
:100A50005E007F09192946002649494932000301F1
:100A60007F0103003F4040403F001F2040201F0007
:100A70003F4038403F0063140814630003047804C7
:100A800003006159494D4300007F41414100020488
:100A900008102000004141417F00040201020400CF
:100AA00040404040400000030708000020545478B4
:100AB00040007F28444438003844444428003844E7
:100AC00044287F0038545454180000087E0902005E
:100AD00018A4A49C78007F080404780000447D409A
:100AE00000002040403D00007F10284400000041ED
:100AF0007F4000007C04780478007C0804047800BF
:100B0000384444443800FC182424180018242418BD
:100B1000FC007C08040408004854545424000404D5
:100B20003F4424003C4040207C001C2040201C000E
:100B30003C4030403C004428102844004C909090A9
:100B40007C004464544C440000083641000000001E
:100B50007700000000413608000002010204020094
:100B60003C2623263C00000000000000404040F0EE
:100B7000F8F8FF38FFF8F83FF8F8FF38FFF8F8F01A
:100B800040404000000000000080C0C0C080000065
:100B9000C0C08000000080C0C000C0C0000080C095
:100BA000C00000000000C0C0C0C0C000C0C0000045
:100BB0000000000000000000000000000000000035
:100BC0000000000000000000000000000000000025
:100BD0000000000000000000000000000000000015
:100BE0000000000000C0F0F8FC3E1E0601000000FE
:100BF0007F4141417F007F4141417F000080C0E053
:100C00007E5B4F5BFEC00000C000DCD7DEDEDED7BF
:100C1000DC00C00000000000000000000000000038
:100C2000000000000000000000000000494949FFEA
:100C3000FFFFFFE0DFBFBF00BFBFDFE0FFFFFFFF41
:100C400049494900000000001F3F6060E0BF1F00ED
:100C50007F7F071E381E077F7F007F7F0E1F3B713F
:100C60006000000000007F7F0C0C0C007E7E007F87
:100C70007E0303007F7E03037E7E03037F7E000FDF
:100C80003E703C063C703E0F00327B49493F7E007F
:100C90007F7E0303001E3F69696F2600000000008D
:100CA0000000000000030F1F3F3C78706000000050
:100CB0007F4141417F007F4141417F00307B7F7810
:100CC00030202030787F3B0003000F7F0F0F0F7F15
:100CD0000F00030000000000000000000000000002
:100CE00000000000000000000000000001010107FA
:100CF0000F0F7F0F7F0F0F7E0F0F7F0F7F0F0F07DD
:100D000001010100000000000000000000010100DE
:100D100000000000000000000000000000000000D3
:100D200000000000000000000000000000000000C3
:100D300000000000000000000000000000000000B3
:100D400000000000000000000000000000000000A3
:100D50000000000000000000000000000000000093
:100D60000000000000000000000000000000000083
:100D70000000000000000000000000000000000073
:100D80000000000000000000000000000000000063
:100D90000000000000000000000000000000000053
:100DA00000000000000011241FBECFEFDAE0DEBF1C
:100DB000CDBF04B603FE27C08091F9049091FA04D8
:100DC000A091FB04B091FC048730904BA740B04B3E
:100DD000D1F41092F9041092FA041092FB041092CC
:100DE000FC0414BE84B7877F84BF0FB6F894A8951F
:100DF00080916000886180936000109260000FBE57
:100E0000E0E0F8E3099511E0A0E0B1E0E2E3F2E50B
:100E100002C005900D92A238B107D9F724E0A2E8EC
:100E2000B1E001C01D92A93FB207E1F70E9426225E
:100E30000C94F3280C940000FF93EF93E09182014F
:100E4000F0918301309709F00995EF91FF91089592
:100E5000FC018591803011F0EFDFFBCF0895FF2773
:100E6000E0E230E247FF0CC0419597FF09C0EDE298
:100E70006095709580959095611D711D811D911DE6
:100E800027FF02C0219530E350E2AA27660F771FA3
:100E9000881F991FAA1FA41710F0A41B63955A95C9
:100EA000A9F7AA3008F0A95FA05DAF93F39561158B
:100EB00071058105910541F7ED3211F4EF93F3953A
:100EC000F21718F43F93F395FBCF8F91B5DFFA95A6
:100ED000E1F70895E991F9918591803021F085320B
:100EE00019F0AADFF9CF089520E0E8945591553222
:100EF000C1F3503311F4689455915A3348F4505368
:100F000090F3220F022E220F220F200D250FF4CF77
:100F10000EF4219589919991533619F3533729F19C
:100F2000533559F1BC0188279927E8945C3621F4A0
:100F30008991999168945591543639F446EF7EF031
:100F400077FF0DC08FEF9FEF0AC055374AE039F0A9
:100F5000583540E121F0523642E009F00895FF9300
:100F6000EF937DDFEF91FF91B7CFFF93EF93FC01FC
:100F700081918030B9F360DFFBCFFF93EF9368DF9F
:100F8000F1CFDF93CF93CDB7DEB72596A3DFCF9117
:100F9000DF910895E8EDF0E080818E7F80831092EC
:100FA000E2001092DA001092E100A0EEB0E08C9125
:100FB00081608C9380818F77808319BCA7EDB0E02E
:100FC0008C918E7F8C9380818F7E80831092AC0277
:100FD00008952091E4003091E50095E6A901209163
:100FE000EC00822F817020FF06C08091E80080FF16
:100FF00006C080E008952091E80022FD1AC080918B
:10100000D102882389F0853089F08091EB0085FD3D
:101010000FC02091E4003091E50042175307F9F228
:101020009150E1F684E0089582E0089583E0089508
:1010300081E00895EF92FF920F931F93CF937C016D
:101040008B010E94E907C82F811117C08091E80029
:1010500085FD0BC08091E8008E778093E8000E94A8
:10106000E907882399F3C82F08C0F70181917F0110
:101070008093F1000150110949F78C2FCF911F91F6
:101080000F91FF90EF9008958091D30287FF13C0D6
:101090008091E80082FF06C08091E8008B77809302
:1010A000E80004C08091D1028111F2CF08958091AF
:1010B000D1028823D9F38091E80080FFF8CF809196
:1010C000E8008E77ECCF982F9093E900242F762FAD
:1010D00050E0891731F07091EC002091ED005091B3
:1010E000F00021FD07C09F5F973071F78093E90002
:1010F00081E008953091EB003E7F3093EB0030911A
:10110000ED003D7F3093ED003091EB003160309386
:10111000EB007093EC002093ED005093F0002091D1
:10112000EE0027FDE0CF80E00895CF92DF92EF92AE
:10113000FF920F931F93CF93DF93C8EDD0E0888188
:101140008F7E8883E7EDF0E080818160808384E09A
:1011500082BF81E08093AC0288818E7F888302EE1B
:1011600010E0F80110821092DA0081EEC82ED12C26
:10117000F601108288818F778883888180688883D0
:1011800088818F7D888319BC1092D1021092D2027F
:101190001092D0021092CF0290EEE92EF12CF701BE
:1011A00080818B7F808388818160888342E060E0DA
:1011B00080E00E946308F60180818E7F8083F801C1
:1011C000808181608083808188608083F701808155
:1011D0008E7F8083888180618883DF91CF911F918A
:1011E0000F91FF90EF90DF90CF900895FC018091D8
:1011F000D9029091DA0286179707A0F06115710560
:1012000029F49091E8009E779093E80090E06115B2
:10121000710551F4911108C08091E80082FF34C03B
:1012200080E00895BC01F2CF8091D1028823C1F102
:101230008530C1F18091E80083FD30C08091E800E5
:1012400082FDEACF8091E80080FFE1CF8091F3003A
:101250002091F200382F6115710519F02830310501
:1012600058F091E02830310509F090E02091E80035
:101270002E772093E800CBCF81918093F1006150CD
:1012800071092F5F3F4FE7CF8091D102882341F052
:10129000853041F08091E80083FFBECF81E0089562
:1012A00082E0089583E00895089508958091AE0244
:1012B00008952FB7F8946091A0027091A1028091D7
:1012C000A2029091A3022FBF089520919C02309119
:1012D0009D022817390771F090939D0280939C021C
:1012E000E0919A02F0919B02309721F00084F18501
:1012F000E02D0994089520919802309199022817C1
:10130000390771F09093990280939802E0919A02C4
:10131000F0919B02309721F00680F781E02D09942F
:101320000895E0919A02F0919B02309721F001908C
:10133000F081E02D099480E00895FA01811101C047
:10134000FB01099480918D02982F9E7F39F4809142
:101350008D028170826080938D0208958430B8F789
:1013600008959091A40292FF06C0282F287128307A
:10137000F9F4877F846093FF06C0282F28712831F5
:10138000F1F4877E84612091A50220FF06C0382FEA
:1013900038713830D9F4877F816021FF06C0282F4B
:1013A00028712831D1F4877E816194FD877E08956C
:1013B000282F24712430F9F68B7F8860DCCF282F0A
:1013C0002471243101F78B7E8861DDCF382F317194
:1013D000313019F78E7F8860E0CF282F21712131BD
:1013E00021F78E7E8861E1CFCF93DF93EC018238C5
:1013F0009105A9F1D8F58133910509F496C048F516
:101400008932910509F48AC08A9709F495C0C115FB
:1014100022E5D20708F0B6C0C11531E5D30708F0C0
:1014200026C1C83ED10508F09CC0C03ED10560F57C
:10143000C83AD10508F087C0C53AD10508F0EFC019
:10144000C130D10509F12097F9F0C430D105E0F49D
:1014500040C08533910509F45AC0C997C1F68091FF
:10146000A402837089F0C0EED0E00EC0833E9105E7
:1014700099F170F4803E910501F1823E910539F6B3
:101480008091A40282FD21C0CE01DF91CF91089509
:10149000863E910561F1873E910571F1843E91058B
:1014A00009F0B5CF8091A50281FFEECF8091A40213
:1014B000C7EED0E084FD0DC0E7CF8091A40280FD8F
:1014C00007C19091A50290FFDFCFC3EED0E084FF6B
:1014D000DBCFD0E0C0E0D8CF8091A40282FDFBC07A
:1014E0009091A50290FDBFCF84FFCECFF2CF809127
:1014F000A40283FDDDCFC8CF8091A40283FDEEC09E
:101500009091A50291FFF0CFC4EED0E0BDCF8091C5
:10151000A40285FFB9CFC9E2D0E0B6CF8091A40282
:1015200085FFB2CFC5E3D0E0AFCF8091A40286FFA4
:10153000ABCFCAE2D0E0A8CF8091A40286FFA4CFAF
:10154000C1E3D0E0A1CFCF3BD10518F6C85AD0E017
:10155000CC0FDD1FC95EDE4F0990D881C02DD46449
:1015600093CFC11540E5D40708F064C0C11580E4ED
:10157000D80708F05CC0CE019A9581159F4108F408
:1015800083CFA7CFC11536E5D30718F5C11545E5BB
:10159000D40708F084C0C11584E5D80708F07AC0E4
:1015A0009C2F969596959E0123703327C115D345A0
:1015B00008F462C0C1E0D0E002C0CC0FDD1F2A9564
:1015C000E2F730E2939FC0011124C82BD92BDA68CF
:1015D0005BCFC1158AE5D80778F4C11599E5D9071D
:1015E00008F068C0C11528E5D20708F472CFDC2FD7
:1015F000CC27C06FD06A48CFCE019056811590425B
:1016000008F067CF8D2F8F710E94B10990E0982F5D
:10161000882788279F719C012C2BE90149C0C55A56
:10162000D0E0CC5EDE4FC881D0E0D0642DCFDF703B
:10163000D06A2ACFCE01E4E096958795EA95E1F746
:1016400083702C2F26952695237040E2249F9001CD
:101650001124382B8C2F8370C1E0D0E002C0CC0F56
:10166000DD1F8A95E2F7C22BD32BDC680DCFDC2F70
:10167000CC27C16FD06A08CFC1E0D0E002C0CC0F48
:10168000DD1F2A95E2F720E2929FC0011124C82BAA
:10169000D92BEBCFDC2FCC27C46FD06AF5CE8C2FA3
:1016A0000E94B109C82FD0E0DC2FCC27CC27DF71F6
:1016B000D062EACE8C2F8F700E94B10934E0D695AB
:1016C000C7953A95E1F7CF709C2FEC01D069DCCE3D
:1016D000C9E3D0E0D9CEC2EED0E0D6CEC6EED0E09F
:1016E000D3CE809113028111109213020895809538
:1016F00090911202982390931202089580910E0205
:101700009091DD01981301C008958F5F8770FACF23
:10171000AF92BF92CF92DF92EF92FF920F931F93FF
:10172000CF93DF93C0902F02D0903002E09031022F
:10173000F09032024091140250911502609116020D
:1017400070911702C42AD52AE62AF72ACFE1D0E001
:10175000082F10E02AE0929F000D111D112490E542
:10176000A92EBC2ED701C6010C2E04C0B695A79594
:10177000979587950A94D2F780FD0FC0219788F737
:10178000B12C8B2DDF91CF911F910F91FF90EF9096
:10179000DF90CF90BF90AF900895AC9EF001AD9ECA
:1017A000F00D1124E00FF11FEE0FFF1FEC5BFD4F5A
:1017B000859194910E94F409019701F3E2CFCF93B0
:1017C000DF93EC010E94880BEC2FF0E09AE0D99FA8
:1017D000E00DF11D112490E5899FE00DF11D11240C
:1017E000EE0FFF1FEC5BFD4F85919491DF91CF9140
:1017F0000C94F4092AE0929F800D1124982F977081
:1018000086958695869525E0829FF0011124EB55FB
:10181000FE4F50E040E080E0219130E0092E02C010
:10182000369527950A94E2F721703327042E01C0DC
:10183000220F0A94EAF7822B4F5F5F4F4530510524
:1018400059F708952AE0929F800D1124982F9770E0
:1018500041E001C0440F9A95EAF7869586958695F2
:1018600095E0899FF0011124EB55FE4F90E080E058
:1018700070E05191DF0111979B01082E02C036954F
:1018800027950A94E2F721702195252724232527FF
:101890002C9301968530910561F70895FC018081B4
:1018A00091810E94DF0B292F2F7092959F7092508B
:1018B0009E3078F4E92FF0E0EB50F74D0C948F2830
:1018C000803F19F020F4883E20F481E00895843FA1
:1018D000E1F380E00895883EC0F3813FD1F7F5CF72
:1018E000822F8695869586950895829590E09C0135
:1018F000220F331F220F331F2C7C959587959595CA
:1019000087958373282B30E0C901880F991F8A7A45
:10191000359527952575822B08952F923F924F92EA
:101920005F926F927F928F929F92AF92BF92CF926F
:10193000DF92EF92FF920F931F93CF93DF93A9E76C
:10194000B1E031E8432E31E0532E80E06624639409
:10195000712C812C912C54018394ED916CE671E0F3
:1019600042E050E0F0E0EB019991BE01C92FC29531
:10197000CF70D0E09F70930101C0220F9A95EAF7D3
:101980008F01042E02C0159507950A94E2F79AA1DB
:1019900000FF58C0292B2AA34150510920F790E598
:1019A0009A95F1F7EE0FFF1FE751FB4FE080F180B2
:1019B0002FE6222E21E0322E30E020E0E101999145
:1019C0001E01492F42954F7050E0EA01C8A0B501B1
:1019D000A401022E04C0440F551F661F771F0A94EE
:1019E000D2F700811181D12C9F7002C0D594C79489
:1019F0009A95E2F7C0FC29C0402B512B51834083BC
:101A00002F5F3F4F2A303105C9F620813181E21620
:101A1000F30609F081E04A165B0609F09ECFDF91DC
:101A2000CF911F910F91FF90EF90DF90CF90BF90DB
:101A3000AF909F908F907F906F905F904F903F906E
:101A40002F90089520952923A6CF409550954023A7
:101A50005123D4CF9FB7F8941092AA029FBF9091C0
:101A6000D102943009F048C02091E9002F703091E4
:101A7000EC00932F917030FD90E8922B23E020939F
:101A8000E9002091EB0020FF34C02091EE0027FFF9
:101A900030C02091A902222321F02091E80025FFE7
:101AA00028C01092A90226E03091E80035FF14C04A
:101AB0008093F1008091E80085FD27C08091E800C7
:101AC00080FFFCCF8091E8008E778093E8009F70C4
:101AD0009093E90080E008953091D102343049F4C8
:101AE0003091EB0035FD05C0215041F481E0809339
:101AF000A9029F709093E9008FEF0895EFE9FFE04E
:101B00003197F1F700C00000CFCF8FB7F89421E0F4
:101B10002093AA028FBFDBCF8093A6027093A80206
:101B20006093A7028091D102843001F582E0809316
:101B3000E9008FEF9091E800815095FD06C095ED8A
:101B40009A95F1F700008111F5CF8091E80085FFAB
:101B50000DC050E040E063E070E086EA92E00E9451
:101B60001A088091E8008E778093E8000895BC0100
:101B700084E00C948C0DBC0183E00C948C0DCF930D
:101B8000DF93EC01809113018823B1F18091A402CD
:101B900087FF32C060E282E08093E9008FEF90918E
:101BA000E800815095FD06C095ED9A95F1F700008B
:101BB0008111F5CF8091E80085FF1BC08091130152
:101BC00070E050E040E0811104C050E040E068E087
:101BD00070E0CE010E941A088091E8008E77809311
:101BE000E80080E2FE01AFEAB2E001900D928A9532
:101BF000E1F7DF91CF91089568E081E0CDCF80914A
:101C00008D0280FD0AC0E6E6F2E0118210821282A7
:101C1000339652E0ED38F507C1F7849A31B33F7E31
:101C200021B320614FB7F89486E692E0FC01519110
:101C3000CF0168E021BB000000C057FF31BB550F4A
:101C4000000000C000C000C031BB00C06A9591F721
:101C5000F2E08D389F0751F74FBF8FE594E0019771
:101C6000F1F700C000000895CF93DF93682F81E063
:101C70006A3019F06D3029F480E0DF91CF910C9437
:101C8000C30E8091E7049091E80426E0FC01A1EEE8
:101C9000B4E001900D922A95E1F7603E08F45AC035
:101CA00026E0FC0111922A95E9F7C091E704D09152
:101CB000E80446E050E0BE0181EE94E00E949E28D8
:101CC0009E01215E3240892B41F1C90145E0969584
:101CD00087954A95E1F741E050E0BA0102C0660FEE
:101CE000771F8A95E2F7CB016091DF027091E002E5
:101CF000862B972BB9016B5F7F4FE5E07695679553
:101D0000EA95E1F702C0440F551F6A95E2F7842B6C
:101D1000952B9093E0028093DF022A5F3F4F409122
:101D2000DE02642F70E0C9010E945B28481B463028
:101D300010F4240F311D211572E0370710F030E048
:101D400020E02F513D4F3093E8042093E704DF91CA
:101D5000CF910895F6E06F9FB00111246A59774F33
:101D600046E050E00E949528A0CFCF93DF93EC018E
:101D7000FE018491811103C0DF91CF9108950E94EB
:101D8000340E2196F5CFCF93382FE091E704F091F0
:101D9000E804E15EF2402091DE02622F70E0CF01A4
:101DA0000E945B28281B822F332361F066E00E948B
:101DB0006F28C82FC15010F4CF91089580E20E947F
:101DC000340EF8CF9F01280F311D2115324018F035
:101DD00080E0F0E0E0E08E0F9F2F911D8F519D4F2E
:101DE0009093E8048093E704E7CFCF92DF92EF92DD
:101DF000FF920F931F93CF93DF936C017B0164E6F7
:101E000070E088E70E945A27EC0197FD12C010E0AD
:101E100000E0F601E00FF11F849164E670E00E949B
:101E2000D427EC01892B29F40F5F1F4F0E151F05D6
:101E300081F70E945728CE01DF91CF911F910F911A
:101E4000FF90EF90DF90CF9008958091960290914F
:101E50009702911103C091E089270895882389F0A2
:101E600062E070E083E897E00E94F50E892B39F07C
:101E70008EE697E00E9428078091960208951092BE
:101E8000960280919602E7CFCF93C09196028091FF
:101E900097028823F1F00E945909605A75418F4FCB
:101EA0009F4F609392027093930280939402909359
:101EB0009502C1110CC062E070E08CE697E00E94D0
:101EC000F50E892B49F088E597E00E942807C0911C
:101ED00096028C2FCF91089581E080939602F7CFE0
:101EE00020911301222351F12091A40227FF26C043
:101EF000E62FE695E695E695EE3178F4E80FF92FB2
:101F0000F11D677021E030E001C0220F6A95EAF709
:101F10002095828128232283089580919E0280FF4C
:101F200019C01F926F9383EA97E09F938F930E944B
:101F3000C1070F900F900F900F900895FC013296FB
:101F400008962191621303C0DF0111971C92E817D4
:101F5000F907B9F7089520911301222349F120913F
:101F6000A40227FF25C0E62FE695E695E695EE311B
:101F700070F4E80FF92FF11D677021E030E001C027
:101F8000220F6A95EAF78281822B828308958091DD
:101F90009E0280FF1EC01F926F9385E897E09F937B
:101FA0008F930E94C1070F900F900F900F9008958C
:101FB000FC0132962FEF30E04191641751F02F3F32
:101FC00019F4411101C0232F3F5F3630A9F72F3F8D
:101FD00009F40895820F911D27FD9A95FC016283F3
:101FE0000895EF92FF920F931F93CF93DF93809109
:101FF000120290911102892B90911002892B8093EB
:102000008401909113029923B1F0892B809384016C
:1020100080911301882309F45DC08091A40287FF99
:1020200059C08EE1E6E8F1E090E0815008F054C03C
:1020300091110E94710BE0919A02F0919B023097EE
:1020400009F450C080911301882359F08091A402B3
:1020500087FF07C0809184018093850186E080938B
:1020600084010280F381E02D84E891E0099580915C
:102070009E0282FF37C080FF04C081E093E00E948F
:102080002807C4E8D1E08CE8E82E81E0F82E0BEFB9
:1020900012E080919E0280FF0BC088811F928F9377
:1020A0001F930F930E94C1070F900F900F900F90F6
:1020B0002196EC16FD0669F780919E0280FF12C002
:1020C00089EF92E0DF91CF911F910F91FF90EF90F8
:1020D0000C94280786E0A6CF2191222309F4A5CFEE
:1020E0009F5FA3CFDF91CF911F910F91FF90EF9052
:1020F000089590E080E00E947B0990E080E00E94DB
:10210000650910921102109210020C94F10F609365
:102110002F027093300280933102909332020C941C
:1021200079100F931F9341E050E060E070E004C02D
:10213000440F551F661F771F8A95D2F7CB01BA014E
:10214000609570958095909500912F0210913002C6
:102150002091310230913202602371238223932334
:102160001F910F910C94871090910F0280958923F5
:1021700080930F02282F277091F4282F082E000C2F
:10218000330B9217130659F09091A50292FD07C0E8
:102190008595859585950E94911010920F0208955E
:1021A0000F931F9341E050E060E070E004C0440FE3
:1021B000551F661F771F8A95D2F780912F02909145
:1021C0003002A0913102B09132028A019B01082BAA
:1021D000192B2A2B3B2BC901B8011F910F910C948D
:1021E00087106093140270931502809316029093E7
:1021F00017020C9479101092120280911301E6E8F4
:10220000F1E0882359F08091A40287FF07C08EE196
:10221000DF011D928A95E9F70C94791086E0F8CFDA
:102220001F93CF93DF93CDB7DEB7AA970FB6F8947D
:10223000DEBF0FBECDBF83ED92E02091F100DC0147
:102240002D93CD01B2E08B3D9B07B9F78091D4026D
:10225000833009F470C0B8F4813009F447C082308B
:1022600009F4B1C08091E80083FF84C28091D30259
:102270009091D4029A3008F07DC2E92FF0E0ED5F32
:10228000F64D0C948F288A3009F48CC08B3009F4F9
:102290006FC0893039F78091D302813219F780916C
:1022A000D7029091D8020297E8F68091E800877FE4
:1022B0008093E8008091E80082FF38C09091F3009D
:1022C0008091F200029731F48091F100813011F099
:1022D000863021F48091F1008093AE028091E80075
:1022E0008B778093E8000E944408BCCF8091D30292
:1022F000813A09F0B7CF8091E800877F8093E800AA
:102300008091D7029091D802892B61F460E28FEA24
:1023100092E070E00E94F6088091E8008B7780934D
:10232000E800A0CF60E090E080E0F3CF8091D102A0
:102330008111C0CF97CF8091D302813A09F092CF1B
:102340008091D7029091D802892B09F08BCF809190
:10235000E800877F8093E8008091E80080FFFCCF51
:10236000809113018093F1008091E8008E77B9CFBE
:102370008091D302813209F075CF8091D70290917C
:10238000D802892B09F06ECF8091E800877F809377
:10239000E8000E9444088091D502809313010E94B6
:1023A000FB1060CF8091D302813209F05BCF809126
:1023B000E800877F8093E8000E9444088091D6025D
:1023C0008093AD024FCF8091D302813A09F04ACF7A
:1023D0008091E800877F8093E8008091E80080FF8B
:1023E000FCCF8091AD02BECF803899F0823809F0E1
:1023F000C1C18091D7028F70873008F0BBC1809334
:10240000E9008091EB0085FB882780F91092E900B4
:1024100006C08091CF029091D0029111826090917C
:10242000E800977F9093E8008093F1001092F1000C
:102430008091E8008E779AC1882309F488C18230A0
:1024400009F098C18091D50281118BC18091D7028A
:102450008F702FEF280F263008F08CC18093E90091
:102460002091EB0020FF7DC1933031F48091EB008F
:1024700080628093EB0075C19091EB009061909326
:10248000EB0021E030E001C0220F8A95EAF72093AB
:10249000EA001092EA008091EB008860EACF811197
:1024A00069C11091D5021F778091E3008078812B5C
:1024B0008093E3008091E800877F8093E8000E948A
:1024C00044088091E80080FFFCCF8091E3008068A1
:1024D0008093E30082E0111183E08093D1024AC12E
:1024E0008058823008F046C12091D5023091D60242
:1024F0002C3DE3E03E07A1F583E08A838AE28983ED
:102500004FB7F894DE01139620E03EE051E2E32F4E
:10251000F0E050935700E49120FF03C0E295EF7084
:102520003F5FEF708E2F90E0EA30C0F0C7968D933A
:102530009D932F5F243159F74FBF8091E800877F2B
:102540008093E8006AE270E0CE0101960E94F608EE
:102550008091E8008B778093E8000CC1C096E7CFAC
:102560008091D7029091D802432F552743305105CF
:1025700009F44AC078F54130510509F47AC08BE579
:1025800090E0E5EDF7E04230510509F0F3C020910D
:10259000E800277F2093E8002091D9023091DA02E9
:1025A0008217930708F49C0140E02115310509F0DA
:1025B00065C0411163C08091E80082FDC9CF809160
:1025C000D102882329F2853019F28091E80083FF37
:1025D000F2CFBECF4132510509F43CC04232510521
:1025E00009F0C8C08330910508F0C4C0FC01EE0FAB
:1025F000FF1FE05AFE4F0190F081E02D835A9E4F5D
:10260000DC018C9190E01AC0332721303105D1F0E4
:102610002115310561F02230310509F0ABC0E2E44B
:10262000F8E0E4918E2F90E0E2E4F8E007C0E2E603
:10263000F8E0E4918E2F90E0E2E6F8E0009709F4EC
:1026400099C0A5CFECE4F8E0E4918E2F90E0ECE4A3
:10265000F8E0F4CF8330910508F08CC0880F991F03
:10266000FC01EA59FE4F0190F081E02D89E090E0F5
:102670008ECF82E190E0E0E3F8E089CF8091D10253
:10268000882309F465CF853009F462CF8091E80092
:1026900083FD5ECF8091E80082FD8DCF8091E800C0
:1026A00080FF83CF9091F3008091F20021153105D6
:1026B00019F08830910550F041E0089709F040E0AA
:1026C0008091E8008E778093E8006FCF449140932B
:1026D000F1003196215031090196E8CF803809F098
:1026E00049C08091E800877F8093E8008091D20202
:1026F0008093F1009DCE81113DC01091D502123022
:10270000C8F58091E800877F8093E8001093D2029B
:102710000E944408112311F084E005C08091E30079
:1027200087FDFACF81E08093D10242E061EC81E045
:102730000E94630842E261EC82E00E94630842E288
:1027400061EC83E00E9463088091D10213C0809104
:10275000D502813079F481E0933009F080E08093F4
:10276000D0021092E9008091E800877F8093E80012
:102770000E9444088091E80083FF0AC08091E8002D
:10278000877F8093E8008091EB0080628093EB006C
:10279000AA960FB6F894DEBF0FBECDBFDF91CF91E2
:1027A0001F910895882321F00E94770B0C94F10F5C
:1027B0000895882339F090911202982B9093120279
:1027C0000C94F10F0895882341F19CEF980F913AF2
:1027D00038F4682F84E891E00E94700F0C94F10F98
:1027E00090E2980F983050F4877091E001C0990FF3
:1027F0008A95EAF7892F0E94770BF0CF9BE5980F17
:10280000933020F490E080E00C947B09885A873163
:1028100020F490E080E00C9465090895CF93C82FD0
:10282000882309F467C08CEF8C0F813AC0F5809142
:102830001301882311F18091A40287FF1EC0EC2FA1
:10284000E695E695E695F0E0EC57FE4F828190E044
:102850004C2F477021E030E002C0220F331F4A9511
:10286000E2F782239323892B91F06C2F84E891E087
:102870000E94700F0E94F10F0AC0E6E8F1E08CE8B8
:1028800091E02191C21789F38E179F07D1F76C2F22
:1028900084E891E00E94AB0FCF910C94F10F80E29D
:1028A0008C0F883068F4C77021E030E001C0220F3F
:1028B000CA95EAF780911202822B80931202ECCF24
:1028C000EBE5EC0FE33040F4F0E0EC5EFE4F80818E
:1028D00090E0CF910C947B09C85AC73158F4EC2F83
:1028E000F0E0EE0FFF1FE95EFE4F80819181CF91F6
:1028F0000C946509CF9108951F93CF93DF93182F00
:10290000EB010E940E148FE99FE00197F1F700C0E0
:1029100000002197C1F7812FDF91CF911F910C9477
:10292000E313CF92DF92EF92FF926B017C010E9442
:10293000A209B701A60188E090E0FF90EF90DF9038
:10294000CF900C94D1288F929F92AF92BF92CF924A
:10295000DF92EF92FF920F931F93CF93DF93D82FC5
:10296000C62F142F822E00918D0200FF51C0802FA0
:102970008E7F8230E1F4E42FF0E0E45FF94F6111E3
:1029800054C02491F22FE22F00FF11C0A6E6B2E05E
:102990008DE892E01196EC9311972C931296FC938C
:1029A000129713968A179B07A9F70E94FF0DD093E1
:1029B0008E02C0938F0210939002882009F4AAC05F
:1029C00060918D0270918E0280918F0290919002A1
:1029D0000E94911480919E0280FF1AC08091900203
:1029E0001F928F9380918F021F928F9380918E02FE
:1029F0001F928F9383E397E09F938F930E94C10769
:102A00008DB79EB708960FB6F8949EBF0FBE8DBFC8
:102A1000DF91CF911F910F91FF90EF90DF90CF90BA
:102A2000BF90AF909F908F900895E62EF12CE49187
:102A30009E2ECE2ED12C26E0D29FC00111242FEF46
:102A400030E0B9010E945B288D2F90E0880F991F1C
:102A5000F5E5F69FA001F79F500D1124841B950BFF
:102A6000B82EBB0CB80EA9014E195F094C9DC001D0
:102A70004D9D900D5C9D900D1124F92FCB9DA001D3
:102A80001124452F5527D901A41BB50BAC9DA001DE
:102A9000AD9D500DBC9D500D1124D901AB19B1094C
:102AA0005D01AE9CD001AF9CB00DBE9CB00D112459
:102AB000AB2FBB272A1B3B0B2C9DD0012D9DB00DAE
:102AC0003C9DB00D11242B2F62307105A1F050F404
:102AD0006115710509F458CF6130710581F0292F16
:102AE000F52F52CF6430710569F080F066307105C2
:102AF00009F44ACFF4CF2E2FE92FFB2F45CF2E2FED
:102B0000E52F42CF292FFE2FEB2F3ECFE92FF92DB6
:102B1000252F3ACF80919E0280FF7ACF1F921F937C
:102B20001F92CF931F92DF938CE097E09F938F9338
:102B30000E94C107ADB7BEB718960FB6F894BEBFD6
:102B40000FBEADBF65CFEDE8F2E0438121E1421B4E
:102B500008F440E021E0628181810C94A314EDE847
:102B6000F2E0438121E1420F08F44FEF21E062815E
:102B700081810C94A314EDE8F2E0628121E1621BF3
:102B800008F460E021E0438181810C94A314EDE816
:102B9000F2E0628121E1620F08F46FEF21E04381EE
:102BA00081810C94A314EDE8F2E0818121E043815E
:102BB000628188500C94A314EDE8F2E0818121E059
:102BC00043816281885F0C94A314809191028823D1
:102BD00019F081508093910260918D0270918E0264
:102BE00080918F02909190020C94911480919102A7
:102BF000833018F48F5F8093910260918D02709101
:102C00008E0280918F02909190020C949114809189
:102C10008D0280FF36C08170826080938D026623B2
:102C200031F160918D0270918E0280918F029091AE
:102C300090020E94911480919E0280FF0FC08091AB
:102C40008D0286951F928F9380EF95E09F938F93CF
:102C50000E94C1070F900F900F900F9020E04091BD
:102C6000900260918F0280918E020C94A314809147
:102C70009E0280FFF3CF1F9281E08F9382ED95E05B
:102C8000E5CF089580918D028695815009F481E009
:102C900061E00C94071661E081E00C940716EDE802
:102CA000F2E083E0808311828FEF8283838314823A
:102CB00060817181828193810C949114CF9384E01F
:102CC00090E00E94AB28C82F82E290E00E94AB28DF
:102CD000982F8C2FCF91089569EE7EEF90E080E0E1
:102CE0000E94DD2860E082E090E00E94BF2860E062
:102CF00083E090E00E94BF28109214021092150207
:102D0000109216021092170260E084E090E00E9498
:102D1000BF2860E082E290E00E94BF2860E085E08A
:102D200090E00E94BF2860E086E090E00E94BF280B
:102D30006FEF87E090E00E94BF2840E050E0BA01CA
:102D400088E090E00E94D12860E08DE090E00E9451
:102D5000BF2840E050E0BA0188E190E00E94D1280D
:102D600060E087E190E00E94BF2840E050E0BA01B7
:102D70008CE190E00E94D12870E060E080E290E079
:102D80000E94DD2840E050E0BA0188E190E00E9416
:102D9000D12840E050E0BA018FE090E00E94D128B5
:102DA00040E050E0BA0183E190E00C94D128CF9349
:102DB000DF93D82FC091A502C2FB882780F98D1719
:102DC00011F1D0FBC2F9C093A5026091A40284E086
:102DD00090E00E94BF286C2F82E290E00E94BF2802
:102DE00082E00E94B41080919E0280FF0CC01F926E
:102DF000DF9384EE92E09F938F930E94C1070F9020
:102E00000F900F900F90DF91CF9108951F920F9226
:102E10000FB60F9211242F933F934F935F936F93AD
:102E20007F938F939F93AF93BF93CF93DF93EF9352
:102E3000FF93D091E900DF708091EC00C82FC17042
:102E400080FDC0E81092E9008091F000877F8093B8
:102E5000F00078940E9410111092E9008091F00027
:102E600088608093F000CD2BCF70C093E900FF9174
:102E7000EF91DF91CF91BF91AF919F918F917F9112
:102E80006F915F914F913F912F910F900FBE0F90D7
:102E90001F9018951F920F920FB60F9211242F9327
:102EA0003F934F935F936F937F938F939F93AF93D2
:102EB000BF93EF93FF938091E10082FF15C0809153
:102EC000E20082FF11C08091E1008B7F8093E100DE
:102ED0002091AB022F5F822F62E30E946F2899231B
:102EE00009F4C0C02093AB028091DA0080FF28C0B3
:102EF0008091D80080FF24C08091DA008E7F80937B
:102F0000DA008091D90080FFE3C080E189BD82E1D1
:102F100089BD09B400FEFDCF81E08093D10281EC30
:102F200097E00E9428078091AC02811109C00E949D
:102F3000CA070E9495088091E20084608093E200B5
:102F40008091E10080FF1BC08091E20080FF17C0EC
:102F50008091E2008E7F8093E2008091E2008061A8
:102F60008093E2008091D80080628093D80019BCE1
:102F700085E08093D10289EC97E00E942807809138
:102F8000E10084FF2FC08091E20084FF2BC080E12C
:102F900089BD82E189BD89B5982F917080FFFBCFF3
:102FA0008091D8008F7D8093D8008091E1008F7E42
:102FB0008093E1008091E2008F7E8093E200809117
:102FC000E20081608093E2008091D202882309F4BC
:102FD00089C084E08093D1028DEC97E00E9428079D
:102FE0008091D1028091E10083FF2BC08091E200AB
:102FF00083FF27C08091E100877F8093E10082E01A
:103000008093D1021092D2028091E1008E7F809352
:10301000E1008091E2008E7F8093E2008091E200E7
:1030200080618093E20042E060E080E00E946308FB
:103030008091F00088608093F00081ED97E00E941D
:103040002807FF91EF91BF91AF919F918F917F9151
:103050006F915F914F913F912F910F900FBE0F9005
:103060001F9018951092AB028091AA02882309F450
:103070003BCF8091D1028430C1F49091E9009F70E0
:103080002091EC00822F817020FD80E8892B93E055
:103090009093E9009091EB0090FF04C09091EE00B6
:1030A00097FD08C08F708093E9001092AA021CCF90
:1030B0001092F1009091E80095FDFACF9091E80010
:1030C00090FFF0CF9091E8009E779093E800EACFD0
:1030D00019BC1092D10285EC97E00E94280710924B
:1030E000AC022ECF8091E30087FD93E09093D10254
:1030F00073CF78941F921FB61F9211248F939F93C2
:10310000AF93BF938091A0029091A102A091A202DF
:10311000B091A3020196A11DB11D8093A0029093CE
:10312000A102A093A202B093A302BF91AF919F917D
:103130008F911F901FBE1F9018959C014FB7F89458
:103140008091A0029091A102A091A202B091A3024D
:103150004FBF821B930B08952FB7F8948091A00264
:103160009091A102A091A202B091A3022FBF089555
:103170000F931F93CF93DF93C62FD42F022FFC0101
:1031800082818823A1F06093DD020E94AC189093A5
:10319000DC028093DB02C77081E001C0880FCA9512
:1031A000EAF7DF91CF911F910F910C94D913809181
:1031B000DD02681337C08091DB029091DC020E942F
:1031C0009D18883C910570F510E21D0FCD17B9F0E0
:1031D00080E28C0F883040F4C77081E001C0880F16
:1031E000CA95EAF70E94D213183048F481E09D2F67
:1031F000977001C0880F9A95EAF70E94D91364E18D
:1032000070E0802F0E947C14183098F4D77081E011
:1032100001C0880FDA95EAF7DF91CF911F910F91E6
:103220000C94D213C77081E001C0880FCA95EAF7E9
:10323000F3CFDF91CF911F910F9108954F925F923D
:103240006F927F928F929F92AF92BF92CF92DF92B6
:10325000EF92FF920F931F93CF93DF9300D000D094
:103260000F92CDB7DEB77C01FC0183819481892B5D
:1032700039F01081D180812F8D218F3F09F01FC53A
:103280000F900F900F900F900F90DF91CF911F91A3
:103290000F91FF90EF90DF90CF90BF90AF909F90F5
:1032A0008F907F906F905F904F9008950E94880B51
:1032B000082F682F89819A810E94220CE12FF0E06B
:1032C0002AE0D29EE00DF11D112430E5039FE00DB0
:1032D000F11D1124EE0FFF1FEC5BFD4F05911491C2
:1032E000043F8CE5180709F49AC0D0F5093DECE5D8
:1032F0001E0709F490C00A3DFCE51F0709F49BC0B6
:10330000083D2CE51207D1F526E241EE61EEC7013A
:103310000E94B81880910F02877009F4B1CFF701AD
:103320008281882309F4ACCF8091A50282FDA8CFC9
:1033300082E00F900F900F900F900F90DF91CF9140
:103340001F910F91FF90EF90DF90CF90BF90AF90C3
:103350009F908F907F906F905F904F900C94B410DF
:10336000063F3CE5130709F462C008F45CC027E29D
:1033700045EE66EE073F9CE5190749F2F7018281A9
:10338000882309F4ADC41092DD020430FDE51F0767
:1033900008F054C00B3F2CE5120730F4C8018250EE
:1033A0009C45449708F04FC00E945E169093A5027A
:1033B0008093A40200318CE5180709F417C108F0C6
:1033C00093C00830ECE51E0709F4FEC008F065C0A4
:1033D00004302CE5120709F4E9C008F04BC00230B4
:1033E0008CE5180709F4DCC08091A40282600330E8
:1033F0001C4509F4D8C06091A4021091A50284E094
:1034000090E00E94BF28612F82E290E00E94BF28D6
:103410000E94FB107FCF27E245EE65EE78CF26E2D3
:1034200041EE60EE74CF27E245EE64EE70CF26E207
:1034300041EE62EE6CCF28E241E0EFCF02363DE58F
:10344000130709F4B1CF809112020631ECE51E0793
:1034500009F053C48A7A91E009F490E09093A401B2
:1034600069E2811165E384E891E00E94AB0F0E945C
:10347000F10F50CF8091A40280610630ECE51E0769
:1034800009F491C08091A402886007301C4508F4BB
:103490008AC08091A402806286C08091A4028D7F40
:1034A0000C302CE5120709F47EC058F40A308CE584
:1034B000180709F493C008F48BC08091A4028E7F92
:1034C00072C08091A402877F0E30ECE51E0709F4DC
:1034D0006AC08091A4028B7F0F301C4508F463C042
:1034E0008091A4028F7E5FC00D3F2CE5120709F486
:1034F00079C068F504318CE5180709F48BC080F4B5
:103500000231ECE51E0709F475C08091A4028F7B9F
:1035100003311C4508F447C08091A402837F43C057
:103520000B3F2CE5120709F445C008F049C00531EE
:103530001C4509F060CF8091A40282FB992790F985
:1035400021E0922790FB82F990FB83F92CC0013097
:103550009DE5190709F454C088F48091A5028360A1
:103560000F3FFCE51F0749F18091A5028D7F0115F2
:103570001D4518F18091A5028C7F1FC003303DE5E9
:10358000130709F456C008F44EC002361D4509F071
:1035900032CF9091A402892F8F7E94FF806103C067
:1035A0008091A40281608093A40225CF8091A4021F
:1035B0008460F9CF8091A50281608093A5021BCF22
:1035C0008091A5028260F9CF8091A4028064EBCF44
:1035D0000E94FB108091A4028068E5CF8091A40234
:1035E0008C60E1CF8091A5028E7FE7CF8091A4020D
:1035F0008F7DD9CF0E94FB108091A4028F77D3CF0B
:103600008091A502982F909591708E7F892B90FBC9
:1036100081F9D3CF0E94FB109091A402892F97FBD0
:1036200087F98058C0CF61E08EE090E00E94BF280B
:10363000E2CE60E0F9CF80919E0280FF10C08091C1
:103640008D02809581701F928F938AEE91E09F93F7
:103650008F930E94C1070F900F900F900F90809151
:103660008D0280FF2CC08E7F80938D0260918D0231
:1036700070918E0280918F02909190020E9491141D
:1036800080919E0280FF0FC080918D0281701F92F9
:103690008F938BE791E09F938F930E94C1070F90C8
:1036A0000F900F900F90FFEF20E732E0F150204095
:1036B0003040E1F700C000000E94FF0D2BCE81607A
:1036C00080938D0280919E0280FF0DC01F9281E049
:1036D0008F9383EB91E09F938F930E94C1070F908C
:1036E0000F900F900F9080918D0261E086950E945F
:1036F000071610CE42E456E16BE476E10E949D0984
:1037000009CE4BE456E162E476E1F8CF43ED55E1B2
:103710006CED75E1F3CF43EA55E16FEA75E1EECF69
:1037200061E081E0E4CF0C352DE5120709F444C0D7
:103730000D351007B9F10B351D4509F009C381E0BE
:1037400038C00E94FB109FEFE4E3FCE09150E040A2
:10375000F040E1F700C0000087E797E79093010889
:103760008093000888E19AE00FB6F894A8958093BA
:1037700060000FBE90936000FFCF90919E02892F52
:103780008E7F90FF816080939E0280FF05C083E35F
:1037900092E00E942807BECD81E292E0FACF0E941B
:1037A0006C16B8CD8091A50282FB882780F991E044
:1037B00089270E94D716CCC280E0FBCF812F902FA3
:1037C0000E94FA0BD82ED5C2212F2F70C22E107F47
:1037D00019F0C29420EFC222DD20B9F0CC2069F0AC
:1037E00080E2800F883010F0811009C080911202B1
:1037F000C82AC09212020E94F10F802F4BC0809104
:103800001102C82AC0921102F6CF802F0E94E31342
:10381000CC2009F441C0005E083010F0811004C0D3
:103820008C2D0E94770B06C0C09480911102C82293
:10383000C09211020E94F10F2FC0312F3F70C32E92
:10384000107F103219F0C29490EFC922882089F0BD
:1038500081E0881609F489C0DD2009F493C099201D
:1038600009F489C0F701858180FFC7CF8F708583F8
:1038700082C02091A50222FF55C0DD2009F44BC073
:10388000CC2039F080911202C82AC09212020E9404
:10389000F10F80E00E940E142A2D2850330B2430A3
:1038A000310510F40E949109BB20A9F080910F020C
:1038B00080FD11C0F70112828595859585950E943E
:1038C000D010C7010E941E1980910F028595859521
:1038D00085950E94911085E0F701DE011196019017
:1038E0000D928A95E1F789819A810E94FA0B9A815B
:1038F000E981F0E02AE0929FE00DF11D112430E50E
:10390000839FE00DF11D1124EE0FFF1FEC5BFD4FB7
:1039100085919491B5CC80E00E94E313CC2009F40A
:10392000BBCF7ECFDD20A1F0909113028C2D892B8F
:10393000911003C00E94D913AFCFE1E09E12FACFDD
:1039400022FDAACF981709F4A7CF80931302A4CF22
:10395000911006C00E94710B8C2D0E94D2139CCF37
:10396000F1E09F1609F498CFF5CFDD2031F025E086
:10397000291508F491CF8C2DDDCF34E0391508F4EA
:103980008BCFEACF992041F3F9E38F128DC12FEF4E
:1039900037EE83E0215030408040E1F700C0000066
:1039A000802F0E94E31378CF812F869586958370B0
:1039B00061F0813009F070CFC8019370D11002C05E
:1039C00090E080E00E94650967CFC8019370D11034
:1039D00002C090E080E00E947B095ECF812F83705F
:1039E00009F066C0D11058CF802F829586958770D8
:1039F000880F880F602F6F70462E512C712C612C10
:103A0000082E04C0440C551C661C771C0A94D2F77F
:103A100040E050E0BA0104FF0FC04FE050E060E02A
:103A200070E004C0440F551F661F771F8A95D2F7B8
:103A30004095509560957095812F869586958370F9
:103A4000823019F1D8F400911402109115022091DE
:103A5000160230911702813069F0442955296629F0
:103A60007729CB01BA0160237123822393230E941B
:103A7000F11012CF402A512A622A732ACB01BA01CF
:103A80006429752986299729F2CF44295529662961
:103A9000772900911402109115022091160230919D
:103AA0001702CB01BA016027712782279327DFCF46
:103AB0008695DD2011F0812F8170882309F4ECCEEA
:103AC000802F829586958770880F880F602F6F7082
:103AD000462E512C712C612C082E04C0440C551C10
:103AE000661C771C0A94D2F740E050E0BA0104FF4C
:103AF0000FC04FE050E060E070E004C0440F551F7D
:103B0000661F771F8A95D2F74095509560957095FE
:103B1000812F869586958370823019F1D8F40091B3
:103B20002F02109130022091310230913202813007
:103B300069F04429552966297729CB01BA01602308
:103B40007123822393230E948710A6CE402A512AF4
:103B5000622A732ACB01BA0164297529862997291B
:103B6000F2CF442955296629772900912F02109117
:103B700030022091310230913202CB01BA0160272C
:103B8000712782279327DFCF1F70DD2029F0812F37
:103B90000E94D010802FCECE802F0E94D213812F72
:103BA0000E94911079CE802F22EF821609F43FC037
:103BB000281570F030EF8316D1F091EF891691F04F
:103BC000DD2009F46CC0911018CE812F8F7133C0A5
:103BD000E3EF8E1699F1F4EF8F12F2CF8091A502E8
:103BE00082FF3FC0812F8F71DD20D1F224C0DD2004
:103BF000C9F024E0291508F44FCE1F7161E070E090
:103C000080E090E004C0660F771F881F991F1A9507
:103C1000D2F700912F0210913002209131023091A1
:103C20003202ADCF35E0391508F436CEE6CF812F1C
:103C30008F71D110B5CF0E94D0102ECE60E070E011
:103C4000CB01DD2009F47FCF1F7161E070E080E0DF
:103C500090E004C0660F771F881F991F1A95D2F74E
:103C600072CFDD2089F01F71812F0E94D0108091CA
:103C7000A50282FD07C0E8E01E9FC00111248360F9
:103C800080930F02812FD7CF81E00E94B410F1E022
:103C9000F91508F001CE82E00E94B410FDCD992004
:103CA00059F0893309F473CE9FEFE9EFF0E09150BA
:103CB000E040F040E1F772CE812F8F7171CF85E047
:103CC000DE01119601900D928A95E1F7F7012281AC
:103CD00089819A812111EACA0E94FA0B082FEECA43
:103CE00006311C45A9F58091A40169E2811165E3C3
:103CF00084E891E00E94700FBACB82720A3C2CE5F6
:103D0000120709F408CD08F091C0063C9CE519079C
:103D100009F4FCCC08F074C0043CFCE51F0709F46E
:103D2000E9CC08F0EECC033C3CE5130709F483CC66
:103D30000F3D8CE5180709F432CD08F0F4CC0115DD
:103D4000ECE51E0709F4FDCC01301C4509F415CD46
:103D5000F701828110810181882309F42FCD812F01
:103D6000902F0E94880BD82E682F812F902F0E94B1
:103D7000220CE12FF0E02AE0029FE00DF11D11245A
:103D800030E5D39EE00DF11D1124EE0FFF1FEC5B1B
:103D9000FD4F859194910E94F4098C01882EF701C2
:103DA000D280958092945FE0952280910F02877077
:103DB000C1F0BD2CDD20B1F0812F807F803421F057
:103DC00080E2800F883068F08091A50282FD09C0F2
:103DD00082E00E94B41080910F028770BB24B394DC
:103DE0008111B12CA12EA2943FE0A322FBE0FA1591
:103DF00008F452CDEA2DF0E0E35FF64D0C948F28E5
:103E00004BEB55E167EC75E1083C9CE5190709F4BB
:103E100075CC4CED55E163ED75E1093C1C4508F4AA
:103E20006DCC47EC55E16BEB75E168CC0E3CFCE5E5
:103E30001F0709F475CCB0F445EE55E166EF75E166
:103E40000C3C3CE5130709F459CC4FEA55E163EA11
:103E500075E10D3C1C4508F451CC46EF55E165EE8B
:103E600075E14CCC073DECE51E0708F453CA0E354E
:103E7000FDE51F0709F44ECA5BCF1F93CF93DF9375
:103E80008091DC01807FA9F48091D901882389F099
:103E900080910E02D091DD016091D7017091D8011F
:103EA000A091DA01B091DB01C62FC72316E0D81329
:103EB00004C0DF91CF911F91089590E0109711F009
:103EC000CF3F19F401968770F2CF189F9001199F88
:103ED000300D1124F901E252FE4F41814713F2CF18
:103EE00040814613EFCF42814111ECCF4381548191
:103EF0004A1B5B0B483C510528F78091DC018F7011
:103F000080618093DC01F901ED51FE4F80818F705B
:103F10008061808387ED91E00E941E19DF91CF912F
:103F20001F910C947E0BAF92BF92CF92DF92EF92D3
:103F3000FF920F931F93CF93DF93CDB7DEB76197B7
:103F40000FB6F894DEBF0FBECDBF8C0185E0F8013F
:103F5000DE011D9601900D928A95E1F7F801E2804D
:103F600087EDA82E81E0B82E6091DA017091DB0117
:103F70006115710509F432C19091D7014091D801C2
:103F8000892F84238F3F09F429C120813181C38087
:103F9000D480F090D901F601E61BF70BFF2009F45D
:103FA000E8C08091DC01582F507FE83CF10508F013
:103FB000ABC0511177C0FE2C431321C092131FC018
:103FC000E1101DC08F7080618093DC01C5010E94EB
:103FD0001E198091DC01F80185838F2D61960FB643
:103FE000F894DEBF0FBECDBFDF91CF911F910F912F
:103FF000FF90EF90DF90CF90BF90AF900895CD28C5
:1040000029F0822F83238F3F09F003C180E0F82F2E
:10401000F170DF2E80FF3CC080910E024091DD01E7
:1040200056E0841315C02D873E878D859E850E949E
:10403000DF0B292F22952F702230F0F0243018F555
:104040009F70F1F0F8019581907FD1F4D12C1EC0C2
:1040500090E0589FF001599FF00D1124E252FE4F5D
:104060006181361306C06081261303C06281E612A7
:104070000FC001968770D5CF9F7011F0882331F360
:10408000805E883018F3C8010E941E19FD2CA5CF50
:10409000EE2009F4A2CF8091DC0181608093DC01E5
:1040A000F12C9BCF431306C0921304C0F801EE20FD
:1040B00009F479C0C8010E944E0C882309F1EE2052
:1040C000F9F08091DC01803270F02091D7013091BD
:1040D000D80138872F831986DB86CA868C87CE0164
:1040E00007960E941E1986E0F801A7EDB1E0019045
:1040F0000D928A95E1F70E943D1FFF24F3946DCF46
:10410000C8010E941E19F9CF51110AC087ED91E034
:104110000E941E1986E0F50111928A95E9F7C0CF39
:1041200043130FC092130DC0E1100BC0F80185833B
:10413000C8010E941E1986E0F50111928A95E9F7DF
:104140004CCFC8010E944E0C8823D1F2EE20C1F260
:104150008091DC01803238F22091D7013091D80172
:104160003A8329831B82DD82CC828E83CE01019625
:10417000B8CFE83CF105F8F6FE2CEE2009F2431327
:104180001FC092131DC08091DC0180FD10C0982FCC
:10419000907F69F0F8018583903F31F0982F907FF0
:1041A000905F8F70892B8583C8010E941E1986E05D
:1041B000F801A7EDB1E001900D928A95E1F70DCFDE
:1041C000C8010E944E0C81118ECF8091DC0181606C
:1041D0008093DC01C8010E941E19FFCEEE2009F475
:1041E0008FCFC8010E944E0CF82E882309F488CF87
:1041F00086E0F801A7EDB1E001900D928A95E1F714
:104200008091D7019091D8010E94DF0B0E943D1F41
:10421000E4CE81E08E25FBCE1F93CF93DF93CDB705
:10422000DEB767970FB6F894DEBF0FBECDBF4B8BDE
:104230005C8B6D8B7E8B8F8B6111109211021A8AB1
:10424000198A85E0FE017396DE011D9601900D929C
:104250008A95E1F786E0FE013D96DE011796019012
:104260000D928A95E1F7CE0107960E94931F88234D
:1042700089F016E080910E029091DD01891349C00A
:1042800067960FB6F894DEBF0FBECDBFDF91CF911A
:104290001F91089586E0FE013796DE011196019088
:1042A0000D928A95E1F78A859B85892B11F38F8181
:1042B000988589238F3FE9F22091DD0130E0C90123
:1042C00001968770992740910E024817190671F4DC
:1042D0000E94FB101092DD0110920E0286E0E7EDC5
:1042E000F1E0DF011D928A95E9F7C3CF96E0929F36
:1042F000D001939FB00D1124A252BE4FFE01319602
:1043000001900D929A95E1F78093DD010E947E0B5A
:10431000B0CF819FC001112482529E4F0E94931FF3
:10432000882309F4ADCF80910E0290E0019687704A
:10433000992780930E029ECFCF930E948D0CC82F99
:10434000882309F455C081E080931A020E94AC18BA
:10435000909319028093180280911802909119028B
:104360000E949D18049708F447C08091E904909139
:10437000EA0490931D0280931C028091EB049091BB
:10438000EC0490931F0280931E028091ED049091A3
:10439000EE0490932102809320028091EF0490918B
:1043A000F00490932302809322028091F104909173
:1043B000F20490932502809324028091F30490915B
:1043C000F40490932702809326028091F504909143
:1043D000F60490932902809328028091F70490912B
:1043E000F80490932B0280932A0210921A0204C0C0
:1043F00080911A028111B0CF8C2FCF9108951F9216
:104400001FB61F9211248F939F93AF93BF938091F8
:104410009F02811113C08091A0029091A102A091EE
:10442000A202B091A3024196A11DB11D8093A002EA
:104430009093A102A093A202B093A302BF91AF9167
:104440009F918F911F901FBE1F901895CDB7DEB71B
:1044500060970FB6F894DEBF0FBECDBF84B7877FDD
:1044600084BF0FB6F894A89580916000886180930E
:104470006000109260000FBE80E890E00FB6F894E4
:1044800080936100909361000FBE85B7806885BFFF
:1044900085B7806885BF8AE29DE090938301809311
:1044A00082010E94CA070E9495088091E200846000
:1044B0008093E20078948091D1028823A1F010913A
:1044C000E9001F709091EC00892F817090FD80E8C9
:1044D000182B1092E9008091E80083FD0E941011D2
:1044E0001F701093E90082E084BD93E095BD9AEFC0
:1044F00097BD80936E00ACE6B1E02FE631E061E05D
:1045000070E08D91E82FE295EF70F0E091A18F704F
:10451000AB0101C0440F8A95EAF7892F842B81A350
:104520002A173B0771F7AFE6B1E029E731E041E038
:1045300050E08D91E82FE295EF70F0E011A18F70BF
:10454000BA0101C0660F8A95EAF7962F90959123DC
:1045500091A382A1862B82A32A173B0751F7E9EE8C
:10456000F4E089EF94E0ACE1B2E0119211921D9277
:104570001D928E179F07C9F790E080E00E94B9282E
:10458000893E9E4F11F00E946C1682E090E00E94DE
:10459000AB2880939E020E945E169093A5028093A2
:1045A000A40283E090E00E94AB28682F70E090E0C6
:1045B00080E00E94F1101092530280E88093DE02A6
:1045C0000E9454276DE070E087E993E00E94F50EA9
:1045D000892B09F445C18BE793E00E94280780915D
:1045E0001B028111DEC080919E0280FF14C086EE06
:1045F00094E09F938F930E94C10780919E020F9039
:104600000F9080FF08C080ED94E09F938F930E94ED
:10461000C1070F900F9090E080E00E94B928893E7A
:104620009E4F81F080919E0280FF08C088EA94E04E
:104630009F938F930E94C1070F900F900E946C165A
:104640000E944F1688E090E00E94B32860938D028C
:1046500070938E0280938F02909390026E7FD1F4BC
:1046600080919E0280FF08C08FE594E09F938F9316
:104670000E94C1070F900F900E944F1688E090E0B3
:104680000E94B32860938D0270938E0280938F02F4
:10469000909390020E94A20980919E0280FF76C0B2
:1046A00086E494E09F938F930E94C10780919E02BD
:1046B0000F900F9080FF6AC080918D0281701F92D1
:1046C0008F9389E294E09F938F930E94C10780911A
:1046D0009E020F900F900F900F9080FF57C0809117
:1046E0008D0286951F928F938EE094E09F938F9317
:1046F0000E94C10780919E020F900F900F900F9023
:1047000080FF44C080918E021F928F9384EF93E0CC
:104710009F938F930E94C10780919E020F900F90EC
:104720000F900F9080FF32C080918F021F928F9365
:104730008AED93E09F938F930E94C10780919E0220
:104740000F900F900F900F9080FF20C080919002EB
:104750001F928F9380EC93E09F938F930E94C107E9
:1047600080919E020F900F900F900F9080FF0EC0CF
:10477000809191021F928F9384EA93E09F938F938D
:104780000E94C1070F900F900F900F9080918D02A3
:1047900080FF04C060E086950E94071681E0809348
:1047A0001B0253985B9A52985A9A89B183FB8827C7
:1047B00080F94A99A2C090E0892B80932E028091C3
:1047C0009E02876080939E0280E091E090939B021E
:1047D00080939A028091D102853079F48DEF94E034
:1047E0000E94280700E112E18091D102853009F48E
:1047F00086C00E94FB100E9491090E949C218B8719
:1048000081110E94590956E5452E52E0552E6CE162
:10481000662E62E0762E10E000E00E87D301ED9068
:10482000FD903D01F201A190B1902F01AE14BF04A3
:1048300009F0A3C00F5F1F4F0830110571F78FEF0C
:104840008E838F8318860E94AC188160782F9A8798
:1048500089874E815F8168858A850E940C21BEC050
:104860008091530263E070E081FD09C088E793E026
:104870000E94F50E892B61F082E593E0AECE8FE4C5
:1048800093E00E94F50E892B19F087E393E0A5CE03
:104890006DE070E08AE293E00E94F50E892B19F03A
:1048A00083E193E09ACE0E945909605A75418F4F77
:1048B0009F4F60939202709393028093940290931F
:1048C0009502E1EEF2E080E092E0DF019C011D92B2
:1048D00021503040E1F7F093E804E093E7048FEFD4
:1048E0009FEF9093E0028093DF0281E08093970234
:1048F000809396021092540272CE92E05DCF809126
:10490000D102843031F10E94250F10929F0288E17C
:1049100090E0A0E40FB6F894A895809360000FBED5
:10492000A093600083B7817F846083BF83B7816079
:1049300083BF7894889583B78E7F83BF0FB6F89432
:10494000A89580916000886180936000109260005B
:104950000FBE8091D002882309F446CF0E949C218B
:10496000ECE1F2E081919191892B09F087C22CE270
:1049700032E02E173F07B1F737CF80919E0281FDBD
:1049800054C1AE24BF2480E0CC24C394D12C950123
:104990002C213D21232B09F484C18983AE85AA8370
:1049A000EC20FD2081E0EF2809F480E08B830E9459
:1049B000AC188160782F9D838C8349815A816B81EB
:1049C0008D810E940C21000F111FF801EA5AFD4F42
:1049D00080819181C826D926D182C082E0912E02A1
:1049E000EE0FEE0FE0932E0289B183FB882780F94A
:1049F0008C871D864A995CC180E02C853D85822B81
:104A0000E82BE0932E02EF70F0E0EB5BFE4F80812D
:104A100090912D02890F80932D02D12C823064F069
:104A200080912C028F5F80932C0264E170E08AEA0F
:104A30000E947C14DD24D39480912D028F3F64F476
:104A400080912C02815080932C0264E170E089EA0D
:104A50000E947C14DD24D39480912D02082E000C3A
:104A6000990B62E070E00E947B2880932D02D110A8
:104A70000E94590980919702882309F4A1C081EE10
:104A800092E09093E8048093E70489E595E00E9422
:104A9000B50E80912F0290913002A0913102B09119
:104AA0003202AD016627772720E0411551056105E7
:104AB000710519F0DB01CA0120E1492F5A2F6B2F34
:104AC0007727411551056105710519F0285FDB0154
:104AD000CA01AC01BD01F4E07695679557954795FD
:104AE000FA95D1F7411551056105710519F02C5F53
:104AF000DB01CA01AC01BD01E2E0769567955795EF
:104B00004795EA95D1F7411551056105710519F0F1
:104B10002E5FDB01CA01B695A79597958795892BDE
:104B20008A2B8B2B09F0C7C02111C5C080E595E009
:104B30000E94B50E0E949109182F8CE395E010FF9A
:104B400002C081E495E00E94B50E82E395E011FF7A
:104B500002C087E395E00E94B50E88E295E012FF5F
:104B600002C08DE295E00E94B50E809197028823E5
:104B700071F02091DF023091E0022115310539F00A
:104B80008091540261E070E0882309F49DC0809117
:104B900096028823A9F00E9459090091920210916F
:104BA00093022091940230919502601B710B820B4D
:104BB000930B6F3F7F4F8F4F9F4710F40E94250F3D
:104BC0002B85211101C0D1100E94440F0E94910930
:104BD00090915502891709F4FDCD0E949109182F73
:104BE0008093550280919E0282FFF4CD80FFF2CD2A
:104BF0008FEB95E00E94280780919E0280FFEACD0E
:104C00001F921F938AEB95E09F938F930E94C10799
:104C100080919E020F900F900F900F9080FFDACD41
:104C200088EB95E00E942807D5CD81E195E00E94B0
:104C300028073CE1832E32E0932ED12CC12CDF9249
:104C4000CF922CE035E03F932F930E94C10789E07B
:104C500095E00E942807D4018C9111962C90B2E027
:104C60008B0E911C0E94750C382E822D0E94750CA3
:104C70003F928F93E3E0F5E0FF93EF930E94C1072B
:104C800081E095E00E9428073FEFC31AD30A0FB6D0
:104C9000F894DEBF0FBECDBF98E0C916D10479F6F7
:104CA00070CE8F5FCC0CDD1C8A3009F070CEC2CD87
:104CB00082E090E0A2CE86E495E00E94B50E81E00D
:104CC0000E94C30E37CF8F5F082F10E07B01082EA4
:104CD00002C0EE0CFF1C0A94E2F7A9014E215F21ED
:104CE000452B89F39091530290FD21C08295880F46
:104CF000807680930E0198013695279536952795F5
:104D000020931101815E80930F011092120124E61D
:104D100030E047E050E06CE071E088E70E94032853
:104D2000892B99F085E995E00E94280730CF880FFC
:104D3000880F880F80930E0110921101895F809374
:104D40000F0183E080931201E2CFA80125E0440F18
:104D5000551F2A95E1F78091530280FD10C04F51F5
:104D60005D4F04E610E020E230E060E488E70E9456
:104D70002A28892B09F473C08CE795E0D5CFE3E3AB
:104D8000F2E080E2DF011D928A95E9F7E9E5F1E0C2
:104D9000F88BEF8705E511E08DE5282E81E0382EB0
:104DA00097E0B92EAA24A394AF85B8892D91B88B2A
:104DB000AF87F80141908F01440E552E511CC2015E
:104DC0008F519D4F2C01E22FF0E0ED5CFD4F30E064
:104DD00020E08B2C821ACA2C022E01C0CC0C0A9423
:104DE000EAF7320190E0D3018D913D018C21682DCD
:104DF000691B6770962E062E000C770BB82F01C02A
:104E0000BB0F9A94EAF79B2E7195619571096770B3
:104E1000772701C086956A95EAF7982A8081982AB3
:104E200090829F5F9830F9F62F5F3F4F3196283080
:104E3000310579F6EF85F8892E163F0609F0B4CFD3
:104E400004E610E020E230E043E352E060E488E76B
:104E50000E942A28892B19F081E695E065CF0E94EF
:104E6000440FE094F0948091DF029091E002E822F8
:104E7000F922F092E002E092DF0289CE09BD19BD6D
:104E800009B400FEFDCF8091D8008F7D8093D800BB
:104E90008091E00082608093E0008091E00081FDDD
:104EA000FCCF0E94FB10A0CC1092B9008CE0809344
:104EB000B80008959F92AF92BF92CF92DF92EF9287
:104EC000FF920F931F93CF93DF93B82EEB010E94B5
:104ED000AC186C01EE24E394F12CC431D10560F0E0
:104EE00025E0E22EF12CCF3FDC0731F0CE0164E16A
:104EF00070E00E945B287B0184EAA82E94E8992E3A
:104F00001092BC00A092BC000E94AC188C01809151
:104F1000BC0087FF0DC08091B900887F883039F1CF
:104F20008091B900887F803111F10FEF1FEF09C028
:104F30000E94AC18801B910B8E159F0540F30EEF5D
:104F40001FEFCF3FDC07E1F2C6010E949D188C17CE
:104F50009D07B0F2C801DF91CF911F910F91FF9093
:104F6000EF90DF90CF90BF90AF909F900895B09258
:104F7000BB009092BC000E94AC188C018091BC00D8
:104F800087FF0AC08091B900887F883111F0803492
:104F900061F610E000E0DECF0E94AC18801B910BA0
:104FA0008E159F0558F3CBCF0F931F93CF93DF93AD
:104FB000EB018093BB0084E88093BC000E94AC1896
:104FC0008C018091BC0087FF11C02091B900287F1F
:104FD00081E090E0283211F490E080E09195819595
:104FE0009109DF91CF911F910F910895CF3FDC0779
:104FF00041F30E94AC18801B910B8C179D0708F39E
:105000008EEF9FEFEECFCF92DF92EF92FF920F9352
:105010001F93CF93DF936B018A017901B9010E943D
:105020005A27E6010C0D1D1DC017D10761F424E9B4
:105030002093BC00DF91CF911F910F91FF90EF90D3
:10504000DF90CF90089597FDF2CFB70189910E942C
:10505000D427EACFCF92DF92EF92FF920F931F9364
:10506000CF93DF93C62F6A017901B8010E945A27B6
:1050700097FD0CC0B8018C2F0E94D427E601EC0CE0
:10508000FD1CCE15DF0511F097FF0CC024E920931D
:10509000BC00DF91CF911F910F91FF90EF90DF90B7
:1050A000CF900895B80189910E94D427EACF84E96E
:1050B0008093BC000895AA1BBB1B51E107C0AA1F27
:1050C000BB1FA617B70710F0A61BB70B881F991FA9
:1050D0005A95A9F780959095BC01CD010895991B2B
:1050E00079E004C0991F961708F0961B881F7A95DF
:1050F000C9F78095089597FB072E16F4009407D002
:1051000077FD09D00E945B2807FC05D03EF49095FE
:1051100081959F4F0895709561957F4F0895EE0F8B
:10512000FF1F0590F491E02D0994FB01DC0102C002
:1051300005900D9241505040D8F70895FB01DC01D5
:1051400004C08D910190801921F441505040C8F75E
:10515000881B990B0895F999FECF92BD81BDF89AED
:10516000992780B50895A6E1B0E044E050E00C94A2
:10517000E528A8E1B0E042E050E00C94E528262FB5
:10518000F999FECF92BD81BDF89A019700B402163D
:1051900039F01FBA20BD0FB6F894FA9AF99A0FBEEB
:1051A00008950396272F0E94C0280E94BF28252F0C
:1051B0000E94C028242F0C94C0280196272F0E94FB
:1051C000C0280C94BF28DC01CB01FC01F999FECF6B
:1051D00006C0F2BDE1BDF89A319600B40D9241507F
:1051E0005040B8F70895F894FFCF600C600C690C3C
:1051F000690C6B0C690C690C690C600C600C700C10
:10520000690C690C700CF4111C12BA131C12BA133D
:105210004F127012BA136E137B13E41BE41B1D1C98
:105220001D1CD41C4C1C4C1C4C1CEE1CC41DD31D42
:02523000D31D8C
:105232005609BF0D5509BB0DB70D54090021007F5A
:1052420022000301818283E200E900EA00B500B690
:1052520000B700CD008301CC008A019201940121A4
:1052620002230224022502260227022A02B300B4E4
:10527200006F00700000FF0100010000FFFF00004E
:10528200010001FF000008101818100800406D22EC
:105292003B01CE00AC00E70700081908C6343532DE
:1052A20036976694F53331F7F604000203010507D9
:0252B2000600F4
:00000001FF
